{"abi":[{"type":"constructor","inputs":[{"name":"_eas","type":"address","internalType":"contract IEAS"},{"name":"_schemaRegistry","type":"address","internalType":"contract ISchemaRegistry"}],"stateMutability":"nonpayable"},{"type":"receive","stateMutability":"payable"},{"type":"function","name":"ATTESTATION_SCHEMA","inputs":[],"outputs":[{"name":"","type":"bytes32","internalType":"bytes32"}],"stateMutability":"view"},{"type":"function","name":"attest","inputs":[{"name":"attestation","type":"tuple","internalType":"struct Attestation","components":[{"name":"uid","type":"bytes32","internalType":"bytes32"},{"name":"schema","type":"bytes32","internalType":"bytes32"},{"name":"time","type":"uint64","internalType":"uint64"},{"name":"expirationTime","type":"uint64","internalType":"uint64"},{"name":"revocationTime","type":"uint64","internalType":"uint64"},{"name":"refUID","type":"bytes32","internalType":"bytes32"},{"name":"recipient","type":"address","internalType":"address"},{"name":"attester","type":"address","internalType":"address"},{"name":"revocable","type":"bool","internalType":"bool"},{"name":"data","type":"bytes","internalType":"bytes"}]}],"outputs":[{"name":"","type":"bool","internalType":"bool"}],"stateMutability":"payable"},{"type":"function","name":"checkObligation","inputs":[{"name":"obligation","type":"tuple","internalType":"struct Attestation","components":[{"name":"uid","type":"bytes32","internalType":"bytes32"},{"name":"schema","type":"bytes32","internalType":"bytes32"},{"name":"time","type":"uint64","internalType":"uint64"},{"name":"expirationTime","type":"uint64","internalType":"uint64"},{"name":"revocationTime","type":"uint64","internalType":"uint64"},{"name":"refUID","type":"bytes32","internalType":"bytes32"},{"name":"recipient","type":"address","internalType":"address"},{"name":"attester","type":"address","internalType":"address"},{"name":"revocable","type":"bool","internalType":"bool"},{"name":"data","type":"bytes","internalType":"bytes"}]},{"name":"demand","type":"bytes","internalType":"bytes"},{"name":"","type":"bytes32","internalType":"bytes32"}],"outputs":[{"name":"","type":"bool","internalType":"bool"}],"stateMutability":"view"},{"type":"function","name":"collectEscrow","inputs":[{"name":"escrow","type":"bytes32","internalType":"bytes32"},{"name":"fulfillment","type":"bytes32","internalType":"bytes32"}],"outputs":[{"name":"","type":"bytes32","internalType":"bytes32"}],"stateMutability":"nonpayable"},{"type":"function","name":"collectEscrowRaw","inputs":[{"name":"_escrow","type":"bytes32","internalType":"bytes32"},{"name":"_fulfillment","type":"bytes32","internalType":"bytes32"}],"outputs":[{"name":"","type":"bytes","internalType":"bytes"}],"stateMutability":"nonpayable"},{"type":"function","name":"decodeObligationData","inputs":[{"name":"data","type":"bytes","internalType":"bytes"}],"outputs":[{"name":"","type":"tuple","internalType":"struct AttestationEscrowObligation.ObligationData","components":[{"name":"arbiter","type":"address","internalType":"address"},{"name":"demand","type":"bytes","internalType":"bytes"},{"name":"attestation","type":"tuple","internalType":"struct AttestationRequest","components":[{"name":"schema","type":"bytes32","internalType":"bytes32"},{"name":"data","type":"tuple","internalType":"struct AttestationRequestData","components":[{"name":"recipient","type":"address","internalType":"address"},{"name":"expirationTime","type":"uint64","internalType":"uint64"},{"name":"revocable","type":"bool","internalType":"bool"},{"name":"refUID","type":"bytes32","internalType":"bytes32"},{"name":"data","type":"bytes","internalType":"bytes"},{"name":"value","type":"uint256","internalType":"uint256"}]}]}]}],"stateMutability":"pure"},{"type":"function","name":"doObligation","inputs":[{"name":"data","type":"tuple","internalType":"struct AttestationEscrowObligation.ObligationData","components":[{"name":"arbiter","type":"address","internalType":"address"},{"name":"demand","type":"bytes","internalType":"bytes"},{"name":"attestation","type":"tuple","internalType":"struct AttestationRequest","components":[{"name":"schema","type":"bytes32","internalType":"bytes32"},{"name":"data","type":"tuple","internalType":"struct AttestationRequestData","components":[{"name":"recipient","type":"address","internalType":"address"},{"name":"expirationTime","type":"uint64","internalType":"uint64"},{"name":"revocable","type":"bool","internalType":"bool"},{"name":"refUID","type":"bytes32","internalType":"bytes32"},{"name":"data","type":"bytes","internalType":"bytes"},{"name":"value","type":"uint256","internalType":"uint256"}]}]}]},{"name":"expirationTime","type":"uint64","internalType":"uint64"}],"outputs":[{"name":"","type":"bytes32","internalType":"bytes32"}],"stateMutability":"nonpayable"},{"type":"function","name":"doObligationFor","inputs":[{"name":"data","type":"tuple","internalType":"struct AttestationEscrowObligation.ObligationData","components":[{"name":"arbiter","type":"address","internalType":"address"},{"name":"demand","type":"bytes","internalType":"bytes"},{"name":"attestation","type":"tuple","internalType":"struct AttestationRequest","components":[{"name":"schema","type":"bytes32","internalType":"bytes32"},{"name":"data","type":"tuple","internalType":"struct AttestationRequestData","components":[{"name":"recipient","type":"address","internalType":"address"},{"name":"expirationTime","type":"uint64","internalType":"uint64"},{"name":"revocable","type":"bool","internalType":"bool"},{"name":"refUID","type":"bytes32","internalType":"bytes32"},{"name":"data","type":"bytes","internalType":"bytes"},{"name":"value","type":"uint256","internalType":"uint256"}]}]}]},{"name":"expirationTime","type":"uint64","internalType":"uint64"},{"name":"recipient","type":"address","internalType":"address"}],"outputs":[{"name":"","type":"bytes32","internalType":"bytes32"}],"stateMutability":"nonpayable"},{"type":"function","name":"doObligationForRaw","inputs":[{"name":"data","type":"bytes","internalType":"bytes"},{"name":"expirationTime","type":"uint64","internalType":"uint64"},{"name":"payer","type":"address","internalType":"address"},{"name":"recipient","type":"address","internalType":"address"},{"name":"refUID","type":"bytes32","internalType":"bytes32"}],"outputs":[{"name":"uid_","type":"bytes32","internalType":"bytes32"}],"stateMutability":"payable"},{"type":"function","name":"doObligationRaw","inputs":[{"name":"data","type":"bytes","internalType":"bytes"},{"name":"expirationTime","type":"uint64","internalType":"uint64"},{"name":"refUID","type":"bytes32","internalType":"bytes32"}],"outputs":[{"name":"uid_","type":"bytes32","internalType":"bytes32"}],"stateMutability":"payable"},{"type":"function","name":"extractArbiterAndDemand","inputs":[{"name":"data","type":"bytes","internalType":"bytes"}],"outputs":[{"name":"arbiter","type":"address","internalType":"address"},{"name":"demand","type":"bytes","internalType":"bytes"}],"stateMutability":"pure"},{"type":"function","name":"getObligationData","inputs":[{"name":"uid","type":"bytes32","internalType":"bytes32"}],"outputs":[{"name":"","type":"tuple","internalType":"struct AttestationEscrowObligation.ObligationData","components":[{"name":"arbiter","type":"address","internalType":"address"},{"name":"demand","type":"bytes","internalType":"bytes"},{"name":"attestation","type":"tuple","internalType":"struct AttestationRequest","components":[{"name":"schema","type":"bytes32","internalType":"bytes32"},{"name":"data","type":"tuple","internalType":"struct AttestationRequestData","components":[{"name":"recipient","type":"address","internalType":"address"},{"name":"expirationTime","type":"uint64","internalType":"uint64"},{"name":"revocable","type":"bool","internalType":"bool"},{"name":"refUID","type":"bytes32","internalType":"bytes32"},{"name":"data","type":"bytes","internalType":"bytes"},{"name":"value","type":"uint256","internalType":"uint256"}]}]}]}],"stateMutability":"view"},{"type":"function","name":"getSchema","inputs":[],"outputs":[{"name":"","type":"tuple","internalType":"struct SchemaRecord","components":[{"name":"uid","type":"bytes32","internalType":"bytes32"},{"name":"resolver","type":"address","internalType":"contract ISchemaResolver"},{"name":"revocable","type":"bool","internalType":"bool"},{"name":"schema","type":"string","internalType":"string"}]}],"stateMutability":"view"},{"type":"function","name":"isPayable","inputs":[],"outputs":[{"name":"","type":"bool","internalType":"bool"}],"stateMutability":"pure"},{"type":"function","name":"multiAttest","inputs":[{"name":"attestations","type":"tuple[]","internalType":"struct Attestation[]","components":[{"name":"uid","type":"bytes32","internalType":"bytes32"},{"name":"schema","type":"bytes32","internalType":"bytes32"},{"name":"time","type":"uint64","internalType":"uint64"},{"name":"expirationTime","type":"uint64","internalType":"uint64"},{"name":"revocationTime","type":"uint64","internalType":"uint64"},{"name":"refUID","type":"bytes32","internalType":"bytes32"},{"name":"recipient","type":"address","internalType":"address"},{"name":"attester","type":"address","internalType":"address"},{"name":"revocable","type":"bool","internalType":"bool"},{"name":"data","type":"bytes","internalType":"bytes"}]},{"name":"values","type":"uint256[]","internalType":"uint256[]"}],"outputs":[{"name":"","type":"bool","internalType":"bool"}],"stateMutability":"payable"},{"type":"function","name":"multiRevoke","inputs":[{"name":"attestations","type":"tuple[]","internalType":"struct Attestation[]","components":[{"name":"uid","type":"bytes32","internalType":"bytes32"},{"name":"schema","type":"bytes32","internalType":"bytes32"},{"name":"time","type":"uint64","internalType":"uint64"},{"name":"expirationTime","type":"uint64","internalType":"uint64"},{"name":"revocationTime","type":"uint64","internalType":"uint64"},{"name":"refUID","type":"bytes32","internalType":"bytes32"},{"name":"recipient","type":"address","internalType":"address"},{"name":"attester","type":"address","internalType":"address"},{"name":"revocable","type":"bool","internalType":"bool"},{"name":"data","type":"bytes","internalType":"bytes"}]},{"name":"values","type":"uint256[]","internalType":"uint256[]"}],"outputs":[{"name":"","type":"bool","internalType":"bool"}],"stateMutability":"payable"},{"type":"function","name":"reclaimExpired","inputs":[{"name":"uid","type":"bytes32","internalType":"bytes32"}],"outputs":[{"name":"","type":"bool","internalType":"bool"}],"stateMutability":"nonpayable"},{"type":"function","name":"revoke","inputs":[{"name":"attestation","type":"tuple","internalType":"struct Attestation","components":[{"name":"uid","type":"bytes32","internalType":"bytes32"},{"name":"schema","type":"bytes32","internalType":"bytes32"},{"name":"time","type":"uint64","internalType":"uint64"},{"name":"expirationTime","type":"uint64","internalType":"uint64"},{"name":"revocationTime","type":"uint64","internalType":"uint64"},{"name":"refUID","type":"bytes32","internalType":"bytes32"},{"name":"recipient","type":"address","internalType":"address"},{"name":"attester","type":"address","internalType":"address"},{"name":"revocable","type":"bool","internalType":"bool"},{"name":"data","type":"bytes","internalType":"bytes"}]}],"outputs":[{"name":"","type":"bool","internalType":"bool"}],"stateMutability":"payable"},{"type":"function","name":"version","inputs":[],"outputs":[{"name":"","type":"string","internalType":"string"}],"stateMutability":"view"},{"type":"event","name":"EscrowCollected","inputs":[{"name":"escrow","type":"bytes32","indexed":true,"internalType":"bytes32"},{"name":"fulfillment","type":"bytes32","indexed":true,"internalType":"bytes32"},{"name":"fulfiller","type":"address","indexed":true,"internalType":"address"}],"anonymous":false},{"type":"event","name":"EscrowMade","inputs":[{"name":"escrow","type":"bytes32","indexed":true,"internalType":"bytes32"},{"name":"buyer","type":"address","indexed":true,"internalType":"address"}],"anonymous":false},{"type":"error","name":"AccessDenied","inputs":[]},{"type":"error","name":"AttestationCreationFailed","inputs":[]},{"type":"error","name":"AttestationNotFound","inputs":[{"name":"attestationId","type":"bytes32","internalType":"bytes32"}]},{"type":"error","name":"AttestationRevoked","inputs":[]},{"type":"error","name":"DeadlineExpired","inputs":[]},{"type":"error","name":"InsufficientValue","inputs":[]},{"type":"error","name":"InvalidEAS","inputs":[]},{"type":"error","name":"InvalidEscrowAttestation","inputs":[]},{"type":"error","name":"InvalidFulfillment","inputs":[]},{"type":"error","name":"InvalidLength","inputs":[]},{"type":"error","name":"InvalidSchema","inputs":[]},{"type":"error","name":"NotFromThisAttester","inputs":[]},{"type":"error","name":"NotPayable","inputs":[]},{"type":"error","name":"RevocationFailed","inputs":[{"name":"attestationId","type":"bytes32","internalType":"bytes32"}]},{"type":"error","name":"UnauthorizedCall","inputs":[]}],"bytecode":{"object":"0x610160806040523461028457604081611fdf803803809161002082856102be565b8339810103126102845780516001600160a01b038116918282036102845760200151916001600160a01b0383168084036102845760405160e081016001600160401b038111828210176102aa5760405260b1815260208101927f6164647265737320617262697465722c2062797465732064656d616e642c207484527f75706c65286279746573333220736368656d612c207475706c6528616464726560408301527f737320726563697069656e742c2075696e7436342065787069726174696f6e5460608301527f696d652c20626f6f6c207265766f6361626c652c20627974657333322072656660808301527f5549442c20627974657320646174612c2075696e743235362076616c7565292060a0830152703230ba30949030ba3a32b9ba30ba34b7b760791b60c08301526001608052600360a0525f60c0521561029b576084948460209560e05261012052610100525f604051958680958194630c1af44f60e31b8352606060048401525180918160648501528484015e818101830184905230602483015260016044830152601f01601f191681010301925af1908115610290575f9161025a575b5061014052604051611cfd90816102e2823960805181610a47015260a05181610a72015260c05181610a9d015260e05181611c14015261010051816108c9015261012051818181610558015281816107c5015281816112780152611a110152610140518181816105980152818161089701528181610a05015281816114580152818161184d01526119c60152f35b90506020813d602011610288575b81610275602093836102be565b8101031261028457515f6101cc565b5f80fd5b3d9150610268565b6040513d5f823e3d90fd5b6341bc07ff60e11b5f5260045ffd5b634e487b7160e01b5f52604160045260245ffd5b601f909101601f19168101906001600160401b038211908210176102aa5760405256fe60806040526004361015610027575b3615610018575f80fd5b631574f9f360e01b5f5260045ffd5b5f3560e01c80632c713cd914610b1657806354fd4d5014610a285780635bf2f20d146109ee5780636b122fe0146108585780637d2c29311461078d5780638371ef591461072f57806388e5b2d9146106e2578063891d9ea81461070157806391db0b7e146106e25780639c13d80e1461065a578063b3b902d414610614578063c6ec507014610519578063c93844be1461039c578063cce1f561146102bd578063ce46e046146102a3578063e49617e114610288578063e60c350514610288578063e6c9714d146101685763f0ffa1850361000e5760a0366003190112610164576004356001600160401b03811161016457610127903690600401610d81565b61012f610d2d565b91610138610d57565b606435906001600160a01b03821682036101645760209461015c9460843594611955565b604051908152f35b5f80fd5b34610164576060366003190112610164576004356001600160401b03811161016457610140600319823603011261016457604051906101a682610c01565b80600401358252602481013560208301526101c360448201610d43565b60408301526101d460648201610d43565b60608301526101e560848201610d43565b608083015260a481013560a083015261020060c48201610d6d565b60c083015261021160e48201610d6d565b60e08301526102236101048201610e98565b610100830152610124810135906001600160401b03821161016457600461024d9236920101610c8f565b6101208201526024356001600160401b0381116101645760209161027861027e923690600401610c8f565b9061184b565b6040519015158152f35b602061027e61029636610e64565b61029e611c12565b611c53565b34610164575f3660031901126101645760206040515f8152f35b34610164576040366003190112610164576004356001600160401b038111610164576060600319823603011261016457602061034091610313610321610301610d2d565b926040519283916004018683016116b0565b03601f198101835282610c1d565b60405163f0ffa18560e01b8152938492839233918291600486016117aa565b03815f305af18015610391575f9061035e575b602090604051908152f35b506020813d602011610389575b8161037860209383610c1d565b810103126101645760209051610353565b3d915061036b565b6040513d5f823e3d90fd5b34610164576020366003190112610164576004356001600160401b038111610164576103cc903690600401610d81565b6103d46117ed565b50810190602081830312610164578035906001600160401b0382116101645701606081830312610164576040519061040b82610bb0565b61041481610d6d565b825260208101356001600160401b0381116101645783610435918301610c8f565b60208301526040810135906001600160401b0382116101645701604081840312610164576040519061046682610bcb565b803582526020810135906001600160401b03821161016457019260c084820312610164576040519061049782610be6565b6104a085610d6d565b82526104ae60208601610d43565b60208301526104bf60408601610e98565b6040830152606085013560608301526080850135946001600160401b038611610164576104f360a092610515978301610c8f565b6080840152013560a08201526020820152604082015260405191829182610e1d565b0390f35b34610164576020366003190112610164576105326117ed565b5061053b610ee8565b506040516328c44a9960e21b815260048035908201525f816024817f00000000000000000000000000000000000000000000000000000000000000006001600160a01b03165afa908115610391575f916105f2575b5060208101517f0000000000000000000000000000000000000000000000000000000000000000036105e3576105d76101206105159201516020808251830101910161104f565b60405191829182610e1d565b635527981560e11b5f5260045ffd5b61060e91503d805f833e6106068183610c1d565b810190610f74565b81610590565b6060366003190112610164576004356001600160401b0381116101645761015c6106446020923690600401610d81565b61064c610d2d565b916044359233923392611955565b34610164576060366003190112610164576004356001600160401b03811161016457606060031982360301126101645760206106b4610697610d2d565b6106c26106a2610d57565b946040519384916004018683016116b0565b03601f198101845283610c1d565b610340604051948593849363f0ffa18560e01b85523391600486016117aa565b602061027e6106f036610cdd565b926106fc929192611c12565b6111aa565b346101645761051561071b61071536610b47565b9061124e565b604051918291602083526020830190610b5d565b34610164576020366003190112610164576004356001600160401b03811161016457610762610767913690600401610c8f565b611181565b604080516001600160a01b03909316835260208301819052829161051591830190610b5d565b34610164576020366003190112610164576004356107a9610ee8565b506040516328c44a9960e21b8152600481018290525f816024817f00000000000000000000000000000000000000000000000000000000000000006001600160a01b03165afa5f918161083c575b5061080f57506301fb6dd160e01b5f5260045260245ffd5b606001516001600160401b0316421061082d57602060405160018152f35b637bf6a16f60e01b5f5260045ffd5b6108519192503d805f833e6106068183610c1d565b90836107f7565b34610164575f3660031901126101645760608060405161087781610b81565b5f81525f60208201525f604082015201526040516351753e3760e11b81527f000000000000000000000000000000000000000000000000000000000000000060048201525f8160248160018060a01b037f0000000000000000000000000000000000000000000000000000000000000000165afa8015610391575f9061093e575b606090610515604051928392602084528051602085015260018060a01b0360208201511660408501526040810151151582850152015160808084015260a0830190610b5d565b503d805f833e61094e8183610c1d565b810190602081830312610164578051906001600160401b0382116101645701608081830312610164576040519061098482610b81565b8051825260208101516001600160a01b03811681036101645760208301526109ae60408201610ea5565b60408301526060810151906001600160401b038211610164570182601f82011215610164576060928160206109e593519101610eb2565b828201526108f8565b34610164575f3660031901126101645760206040517f00000000000000000000000000000000000000000000000000000000000000008152f35b34610164575f36600319011261016457610515602061071b6001610a6b7f0000000000000000000000000000000000000000000000000000000000000000611aa5565b8184610a967f0000000000000000000000000000000000000000000000000000000000000000611aa5565b8180610ac17f0000000000000000000000000000000000000000000000000000000000000000611aa5565b9260405199878b985191829101848a015e870190601760f91b83830152805192839101602183015e010190601760f91b84830152805192839101600283015e01015f838201520301601f198101835282610c1d565b3461016457610b2761071536610b47565b602081519181808201938492010103126101645760209051604051908152f35b6040906003190112610164576004359060243590565b805180835260209291819084018484015e5f828201840152601f01601f1916010190565b608081019081106001600160401b03821117610b9c57604052565b634e487b7160e01b5f52604160045260245ffd5b606081019081106001600160401b03821117610b9c57604052565b604081019081106001600160401b03821117610b9c57604052565b60c081019081106001600160401b03821117610b9c57604052565b61014081019081106001600160401b03821117610b9c57604052565b90601f801991011681019081106001600160401b03821117610b9c57604052565b6001600160401b038111610b9c57601f01601f191660200190565b929192610c6582610c3e565b91610c736040519384610c1d565b829481845281830111610164578281602093845f960137010152565b9080601f8301121561016457816020610caa93359101610c59565b90565b9181601f84011215610164578235916001600160401b038311610164576020808501948460051b01011161016457565b6040600319820112610164576004356001600160401b0381116101645781610d0791600401610cad565b92909291602435906001600160401b03821161016457610d2991600401610cad565b9091565b602435906001600160401b038216820361016457565b35906001600160401b038216820361016457565b604435906001600160a01b038216820361016457565b35906001600160a01b038216820361016457565b9181601f84011215610164578235916001600160401b038311610164576020838186019501011161016457565b602090805183520151906040602082015260018060a01b0382511660408201526001600160401b036020830151166060820152604082015115156080820152606082015160a082015260e060a0610e14608085015160c080860152610100850190610b5d565b93015191015290565b90610caa916020815260018060a01b0382511660208201526040610e4f60208401516060838501526080840190610b5d565b920151906060601f1982850301910152610dae565b602060031982011261016457600435906001600160401b038211610164576101409082900360031901126101645760040190565b3590811515820361016457565b5190811515820361016457565b929192610ebe82610c3e565b91610ecc6040519384610c1d565b829481845281830111610164578281602093845f96015e010152565b60405190610ef582610c01565b6060610120835f81525f60208201525f60408201525f838201525f60808201525f60a08201525f60c08201525f60e08201525f6101008201520152565b51906001600160401b038216820361016457565b51906001600160a01b038216820361016457565b9080601f83011215610164578151610caa92602001610eb2565b602081830312610164578051906001600160401b0382116101645701610140818303126101645760405191610fa883610c01565b8151835260208201516020840152610fc260408301610f32565b6040840152610fd360608301610f32565b6060840152610fe460808301610f32565b608084015260a082015160a0840152610fff60c08301610f46565b60c084015261101060e08301610f46565b60e08401526110226101008301610ea5565b6101008401526101208201516001600160401b038111610164576110469201610f5a565b61012082015290565b602081830312610164578051906001600160401b038211610164570190606082820312610164576040519161108383610bb0565b61108c81610f46565b835260208101516001600160401b03811161016457826110ad918301610f5a565b60208401526040810151906001600160401b03821161016457019060408282031261016457604051916110df83610bcb565b805183526020810151906001600160401b03821161016457019060c082820312610164576040519161111083610be6565b61111981610f46565b835261112760208201610f32565b602084015261113860408201610ea5565b60408401526060810151606084015260808101516001600160401b0381116101645760a092611168918301610f5a565b6080840152015160a08201526020820152604082015290565b611194906020808251830101910161104f565b80516020909101516001600160a01b0390911691565b92909281840361123f575f91345b858410156112345781841015611220578360051b80860135908282116112115784013561013e1985360301811215610164576111f5908501611c53565b1561120657600191039301926111b8565b505050505050505f90565b63044044a560e21b5f5260045ffd5b634e487b7160e01b5f52603260045260245ffd5b505050505050600190565b63251f56a160e21b5f5260045ffd5b915f611258610ee8565b50611261610ee8565b506040516328c44a9960e21b8152600481018590527f00000000000000000000000000000000000000000000000000000000000000006001600160a01b0316905f81602481855afa5f9181611643575b506112c957856301fb6dd160e01b5f5260045260245ffd5b9491929394906040516328c44a9960e21b81528660048201525f81602481855afa5f9181611627575b5061130a57866301fb6dd160e01b5f5260045260245ffd5b9591929394959261131a81611c6c565b15611618576113f960206101208084019360c08861140b61133b8851611181565b91909451916040519889978896879663e6c9714d60e01b885260606004890152805160648901528b81015160848901526001600160401b0360408201511660a48901526001600160401b0360608201511660c48901526001600160401b0360808201511660e489015260a0810151610104890152019e8f60018060a01b0390511661012488015260018060a01b0360e082015116610144880152610100810151151561016488015201516101406101848701526101a4860190610b5d565b84810360031901602486015290610b5d565b604483019190915203916001600160a01b03165afa908115610391575f916115de575b50156115cf5760405161144081610bcb565b8581525f60208201526040519061145682610bcb565b7f0000000000000000000000000000000000000000000000000000000000000000825260208201908152833b1561016457604051634692626760e01b81529151600483015251805160248301526020015160448201525f8160648183875af190816115ba575b506114d55763614cf93960e01b86526004859052602486fd5b61151a869260406114f5602094989697985185808251830101910161104f565b015160405194858094819363f17325e760e01b83528760048401526024830190610dae565b03925af1859181611586575b5061153a57638d7100d760e01b8552600485fd5b7ff96e77bc177ae8e2ff25185e7c6d85f8ba97c8bdd9d46933aac70a7a33edf6c090949360405195602087015260208652611576604087610c1d565b516001600160a01b03169380a490565b9091506020813d6020116115b2575b816115a260209383610c1d565b810103126101645751905f611526565b3d9150611595565b6115c79197505f90610c1d565b5f955f6114bc565b630ebe58ef60e11b5f5260045ffd5b90506020813d602011611610575b816115f960209383610c1d565b810103126101645761160a90610ea5565b5f61142e565b3d91506115ec565b63629cd40b60e11b5f5260045ffd5b61163c9192503d805f833e6106068183610c1d565b905f6112f2565b6116589192503d805f833e6106068183610c1d565b905f6112b1565b9035601e19823603018112156101645701602081359101916001600160401b03821161016457813603831361016457565b908060209392818452848401375f828201840152601f01601f1916010190565b602081526001600160a01b036116c583610d6d565b1660208201526116ec6116db602084018461165f565b606060408501526080840191611690565b916040810135603e19823603018112156101645701906060601f198285030191015280358252602081013560be1982360301811215610164576040602084015201906001600160a01b0361173f83610d6d565b1660408201526001600160401b0361175960208401610d43565b16606082015261176b60408301610e98565b15156080820152606082013560a082015260e060a06117a1611790608086018661165f565b60c080870152610100860191611690565b93013591015290565b90935f936001600160401b036117cc608095989760a0865260a0860190610b5d565b971660208401526001600160a01b0390811660408401521660608201520152565b604051906117fa82610bb0565b815f815260606020820152604080519161181383610bcb565b5f8352815161182181610be6565b5f81525f60208201525f838201525f6060820152606060808201525f60a082015260208401520152565b7f00000000000000000000000000000000000000000000000000000000000000006020820151036119465761187f81611c6c565b156119405761189f6101206118af9201516020808251830101910161104f565b916020808251830101910161104f565b60408201516040516118d1816103136020820194602086526040830190610dae565b51902060408201516040516118f6816103136020820194602086526040830190610dae565b519020149182611927575b8261190b57505090565b6020919250810151818151910120910151602081519101201490565b805182516001600160a01b039081169116149250611901565b50505f90565b635f9bd90760e11b5f5260045ffd5b6020935061197990611a0c979692959395611971368284610c59565b503691610c59565b906001600160401b036040519361198f85610be6565b60018060a01b031695868552168484015260016040840152606083015260808201525f60a0820152604051906119c482610bcb565b7f00000000000000000000000000000000000000000000000000000000000000008252828201526040518095819263f17325e760e01b83528460048401526024830190610dae565b03815f7f00000000000000000000000000000000000000000000000000000000000000006001600160a01b03165af1928315610391575f93611a71575b50827f8f7f2dbafd79125e808bf16a53d7fa4e17b8b6374ced76d946a45f94b7bf4d065f80a3565b9092506020813d602011611a9d575b81611a8d60209383610c1d565b810103126101645751915f611a49565b3d9150611a80565b805f9172184f03e93ff9f4daa797ed6e38ed64bf6a1f0160401b821015611bef575b806d04ee2d6d415b85acef8100000000600a921015611bd4575b662386f26fc10000811015611bc0575b6305f5e100811015611baf575b612710811015611ba0575b6064811015611b92575b1015611b87575b600a60216001840193611b2c85610c3e565b94611b3a6040519687610c1d565b808652611b49601f1991610c3e565b013660208701378401015b5f1901916f181899199a1a9b1b9c1cb0b131b232b360811b8282061a8353048015611b8257600a9091611b54565b505090565b600190910190611b1a565b606460029104930192611b13565b61271060049104930192611b09565b6305f5e10060089104930192611afe565b662386f26fc1000060109104930192611af1565b6d04ee2d6d415b85acef810000000060209104930192611ae1565b506040915072184f03e93ff9f4daa797ed6e38ed64bf6a1f0160401b8104611ac7565b7f00000000000000000000000000000000000000000000000000000000000000006001600160a01b03163303611c4457565b634ca8886760e01b5f5260045ffd5b60e0013560018060a01b03811680910361016457301490565b6001600160401b036060820151168015159081611cbd575b50611cae57608001516001600160401b0316611c9f57600190565b637b6227e960e11b5f5260045ffd5b631ab7da6b60e01b5f5260045ffd5b905042115f611c8456fea26469706673582212205e374c78f7af15efbdee91c1f54f9cf2f951341c5e836f4ce432c8b5918d793564736f6c634300081b0033","linkReferences":{}},"methodIdentifiers":{"ATTESTATION_SCHEMA()":"5bf2f20d","attest((bytes32,bytes32,uint64,uint64,uint64,bytes32,address,address,bool,bytes))":"e60c3505","checkObligation((bytes32,bytes32,uint64,uint64,uint64,bytes32,address,address,bool,bytes),bytes,bytes32)":"e6c9714d","collectEscrow(bytes32,bytes32)":"2c713cd9","collectEscrowRaw(bytes32,bytes32)":"891d9ea8","decodeObligationData(bytes)":"c93844be","doObligation((address,bytes,(bytes32,(address,uint64,bool,bytes32,bytes,uint256))),uint64)":"cce1f561","doObligationFor((address,bytes,(bytes32,(address,uint64,bool,bytes32,bytes,uint256))),uint64,address)":"9c13d80e","doObligationForRaw(bytes,uint64,address,address,bytes32)":"f0ffa185","doObligationRaw(bytes,uint64,bytes32)":"b3b902d4","extractArbiterAndDemand(bytes)":"8371ef59","getObligationData(bytes32)":"c6ec5070","getSchema()":"6b122fe0","isPayable()":"ce46e046","multiAttest((bytes32,bytes32,uint64,uint64,uint64,bytes32,address,address,bool,bytes)[],uint256[])":"91db0b7e","multiRevoke((bytes32,bytes32,uint64,uint64,uint64,bytes32,address,address,bool,bytes)[],uint256[])":"88e5b2d9","reclaimExpired(bytes32)":"7d2c2931","revoke((bytes32,bytes32,uint64,uint64,uint64,bytes32,address,address,bool,bytes))":"e49617e1","version()":"54fd4d50"},"id":113}