{"abi":[{"type":"constructor","inputs":[{"name":"_eas","type":"address","internalType":"contract IEAS"},{"name":"_erc20Escrow","type":"address","internalType":"contract ERC20EscrowObligation"},{"name":"_erc20Payment","type":"address","internalType":"contract ERC20PaymentObligation"},{"name":"_erc721Escrow","type":"address","internalType":"contract ERC721EscrowObligation"},{"name":"_erc721Payment","type":"address","internalType":"contract ERC721PaymentObligation"},{"name":"_erc1155Escrow","type":"address","internalType":"contract ERC1155EscrowObligation"},{"name":"_erc1155Payment","type":"address","internalType":"contract ERC1155PaymentObligation"},{"name":"_bundleEscrow","type":"address","internalType":"contract TokenBundleEscrowObligation2"},{"name":"_bundlePayment","type":"address","internalType":"contract TokenBundlePaymentObligation2"},{"name":"_nativeEscrow","type":"address","internalType":"contract NativeTokenEscrowObligation"},{"name":"_nativePayment","type":"address","internalType":"contract NativeTokenPaymentObligation"}],"stateMutability":"nonpayable"},{"type":"function","name":"buyBundleWithErc20","inputs":[{"name":"bidToken","type":"address","internalType":"address"},{"name":"bidAmount","type":"uint256","internalType":"uint256"},{"name":"askData","type":"tuple","internalType":"struct TokenBundlePaymentObligation2.ObligationData","components":[{"name":"nativeAmount","type":"uint256","internalType":"uint256"},{"name":"erc20Tokens","type":"address[]","internalType":"address[]"},{"name":"erc20Amounts","type":"uint256[]","internalType":"uint256[]"},{"name":"erc721Tokens","type":"address[]","internalType":"address[]"},{"name":"erc721TokenIds","type":"uint256[]","internalType":"uint256[]"},{"name":"erc1155Tokens","type":"address[]","internalType":"address[]"},{"name":"erc1155TokenIds","type":"uint256[]","internalType":"uint256[]"},{"name":"erc1155Amounts","type":"uint256[]","internalType":"uint256[]"},{"name":"payee","type":"address","internalType":"address"}]},{"name":"expiration","type":"uint64","internalType":"uint64"}],"outputs":[{"name":"","type":"bytes32","internalType":"bytes32"}],"stateMutability":"nonpayable"},{"type":"function","name":"buyErc1155WithErc20","inputs":[{"name":"bidToken","type":"address","internalType":"address"},{"name":"bidAmount","type":"uint256","internalType":"uint256"},{"name":"askToken","type":"address","internalType":"address"},{"name":"askId","type":"uint256","internalType":"uint256"},{"name":"askAmount","type":"uint256","internalType":"uint256"},{"name":"expiration","type":"uint64","internalType":"uint64"}],"outputs":[{"name":"","type":"bytes32","internalType":"bytes32"}],"stateMutability":"nonpayable"},{"type":"function","name":"buyErc20ForErc20","inputs":[{"name":"bidToken","type":"address","internalType":"address"},{"name":"bidAmount","type":"uint256","internalType":"uint256"},{"name":"askToken","type":"address","internalType":"address"},{"name":"askAmount","type":"uint256","internalType":"uint256"},{"name":"expiration","type":"uint64","internalType":"uint64"}],"outputs":[{"name":"","type":"bytes32","internalType":"bytes32"}],"stateMutability":"nonpayable"},{"type":"function","name":"buyErc721WithErc20","inputs":[{"name":"bidToken","type":"address","internalType":"address"},{"name":"bidAmount","type":"uint256","internalType":"uint256"},{"name":"askToken","type":"address","internalType":"address"},{"name":"askId","type":"uint256","internalType":"uint256"},{"name":"expiration","type":"uint64","internalType":"uint64"}],"outputs":[{"name":"","type":"bytes32","internalType":"bytes32"}],"stateMutability":"nonpayable"},{"type":"function","name":"buyEthWithErc20","inputs":[{"name":"bidToken","type":"address","internalType":"address"},{"name":"bidAmount","type":"uint256","internalType":"uint256"},{"name":"askAmount","type":"uint256","internalType":"uint256"},{"name":"expiration","type":"uint64","internalType":"uint64"}],"outputs":[{"name":"","type":"bytes32","internalType":"bytes32"}],"stateMutability":"nonpayable"},{"type":"function","name":"payErc20ForBundle","inputs":[{"name":"buyAttestation","type":"bytes32","internalType":"bytes32"}],"outputs":[{"name":"","type":"bytes32","internalType":"bytes32"}],"stateMutability":"nonpayable"},{"type":"function","name":"payErc20ForErc1155","inputs":[{"name":"buyAttestation","type":"bytes32","internalType":"bytes32"}],"outputs":[{"name":"","type":"bytes32","internalType":"bytes32"}],"stateMutability":"nonpayable"},{"type":"function","name":"payErc20ForErc20","inputs":[{"name":"buyAttestation","type":"bytes32","internalType":"bytes32"}],"outputs":[{"name":"","type":"bytes32","internalType":"bytes32"}],"stateMutability":"nonpayable"},{"type":"function","name":"payErc20ForErc721","inputs":[{"name":"buyAttestation","type":"bytes32","internalType":"bytes32"}],"outputs":[{"name":"","type":"bytes32","internalType":"bytes32"}],"stateMutability":"nonpayable"},{"type":"function","name":"payErc20ForEth","inputs":[{"name":"buyAttestation","type":"bytes32","internalType":"bytes32"}],"outputs":[{"name":"","type":"bytes32","internalType":"bytes32"}],"stateMutability":"nonpayable"},{"type":"function","name":"permitAndBuyBundleWithErc20","inputs":[{"name":"bidToken","type":"address","internalType":"address"},{"name":"bidAmount","type":"uint256","internalType":"uint256"},{"name":"askData","type":"tuple","internalType":"struct TokenBundlePaymentObligation2.ObligationData","components":[{"name":"nativeAmount","type":"uint256","internalType":"uint256"},{"name":"erc20Tokens","type":"address[]","internalType":"address[]"},{"name":"erc20Amounts","type":"uint256[]","internalType":"uint256[]"},{"name":"erc721Tokens","type":"address[]","internalType":"address[]"},{"name":"erc721TokenIds","type":"uint256[]","internalType":"uint256[]"},{"name":"erc1155Tokens","type":"address[]","internalType":"address[]"},{"name":"erc1155TokenIds","type":"uint256[]","internalType":"uint256[]"},{"name":"erc1155Amounts","type":"uint256[]","internalType":"uint256[]"},{"name":"payee","type":"address","internalType":"address"}]},{"name":"expiration","type":"uint64","internalType":"uint64"},{"name":"deadline","type":"uint256","internalType":"uint256"},{"name":"v","type":"uint8","internalType":"uint8"},{"name":"r","type":"bytes32","internalType":"bytes32"},{"name":"s","type":"bytes32","internalType":"bytes32"}],"outputs":[{"name":"","type":"bytes32","internalType":"bytes32"}],"stateMutability":"nonpayable"},{"type":"function","name":"permitAndBuyErc1155WithErc20","inputs":[{"name":"bidToken","type":"address","internalType":"address"},{"name":"bidAmount","type":"uint256","internalType":"uint256"},{"name":"askToken","type":"address","internalType":"address"},{"name":"askId","type":"uint256","internalType":"uint256"},{"name":"askAmount","type":"uint256","internalType":"uint256"},{"name":"expiration","type":"uint64","internalType":"uint64"},{"name":"deadline","type":"uint256","internalType":"uint256"},{"name":"v","type":"uint8","internalType":"uint8"},{"name":"r","type":"bytes32","internalType":"bytes32"},{"name":"s","type":"bytes32","internalType":"bytes32"}],"outputs":[{"name":"","type":"bytes32","internalType":"bytes32"}],"stateMutability":"nonpayable"},{"type":"function","name":"permitAndBuyErc20ForErc20","inputs":[{"name":"bidToken","type":"address","internalType":"address"},{"name":"bidAmount","type":"uint256","internalType":"uint256"},{"name":"askToken","type":"address","internalType":"address"},{"name":"askAmount","type":"uint256","internalType":"uint256"},{"name":"expiration","type":"uint64","internalType":"uint64"},{"name":"deadline","type":"uint256","internalType":"uint256"},{"name":"v","type":"uint8","internalType":"uint8"},{"name":"r","type":"bytes32","internalType":"bytes32"},{"name":"s","type":"bytes32","internalType":"bytes32"}],"outputs":[{"name":"","type":"bytes32","internalType":"bytes32"}],"stateMutability":"nonpayable"},{"type":"function","name":"permitAndBuyErc721WithErc20","inputs":[{"name":"bidToken","type":"address","internalType":"address"},{"name":"bidAmount","type":"uint256","internalType":"uint256"},{"name":"askToken","type":"address","internalType":"address"},{"name":"askId","type":"uint256","internalType":"uint256"},{"name":"expiration","type":"uint64","internalType":"uint64"},{"name":"deadline","type":"uint256","internalType":"uint256"},{"name":"v","type":"uint8","internalType":"uint8"},{"name":"r","type":"bytes32","internalType":"bytes32"},{"name":"s","type":"bytes32","internalType":"bytes32"}],"outputs":[{"name":"","type":"bytes32","internalType":"bytes32"}],"stateMutability":"nonpayable"},{"type":"function","name":"permitAndBuyEthWithErc20","inputs":[{"name":"bidToken","type":"address","internalType":"address"},{"name":"bidAmount","type":"uint256","internalType":"uint256"},{"name":"askAmount","type":"uint256","internalType":"uint256"},{"name":"expiration","type":"uint64","internalType":"uint64"},{"name":"deadline","type":"uint256","internalType":"uint256"},{"name":"v","type":"uint8","internalType":"uint8"},{"name":"r","type":"bytes32","internalType":"bytes32"},{"name":"s","type":"bytes32","internalType":"bytes32"}],"outputs":[{"name":"","type":"bytes32","internalType":"bytes32"}],"stateMutability":"nonpayable"},{"type":"function","name":"permitAndBuyWithErc20","inputs":[{"name":"token","type":"address","internalType":"address"},{"name":"amount","type":"uint256","internalType":"uint256"},{"name":"arbiter","type":"address","internalType":"address"},{"name":"demand","type":"bytes","internalType":"bytes"},{"name":"expiration","type":"uint64","internalType":"uint64"},{"name":"deadline","type":"uint256","internalType":"uint256"},{"name":"v","type":"uint8","internalType":"uint8"},{"name":"r","type":"bytes32","internalType":"bytes32"},{"name":"s","type":"bytes32","internalType":"bytes32"}],"outputs":[{"name":"","type":"bytes32","internalType":"bytes32"}],"stateMutability":"nonpayable"},{"type":"function","name":"permitAndPayErc20ForBundle","inputs":[{"name":"buyAttestation","type":"bytes32","internalType":"bytes32"},{"name":"deadline","type":"uint256","internalType":"uint256"},{"name":"v","type":"uint8","internalType":"uint8"},{"name":"r","type":"bytes32","internalType":"bytes32"},{"name":"s","type":"bytes32","internalType":"bytes32"}],"outputs":[{"name":"","type":"bytes32","internalType":"bytes32"}],"stateMutability":"nonpayable"},{"type":"function","name":"permitAndPayErc20ForErc1155","inputs":[{"name":"buyAttestation","type":"bytes32","internalType":"bytes32"},{"name":"deadline","type":"uint256","internalType":"uint256"},{"name":"v","type":"uint8","internalType":"uint8"},{"name":"r","type":"bytes32","internalType":"bytes32"},{"name":"s","type":"bytes32","internalType":"bytes32"}],"outputs":[{"name":"","type":"bytes32","internalType":"bytes32"}],"stateMutability":"nonpayable"},{"type":"function","name":"permitAndPayErc20ForErc20","inputs":[{"name":"buyAttestation","type":"bytes32","internalType":"bytes32"},{"name":"deadline","type":"uint256","internalType":"uint256"},{"name":"v","type":"uint8","internalType":"uint8"},{"name":"r","type":"bytes32","internalType":"bytes32"},{"name":"s","type":"bytes32","internalType":"bytes32"}],"outputs":[{"name":"","type":"bytes32","internalType":"bytes32"}],"stateMutability":"nonpayable"},{"type":"function","name":"permitAndPayErc20ForErc721","inputs":[{"name":"buyAttestation","type":"bytes32","internalType":"bytes32"},{"name":"deadline","type":"uint256","internalType":"uint256"},{"name":"v","type":"uint8","internalType":"uint8"},{"name":"r","type":"bytes32","internalType":"bytes32"},{"name":"s","type":"bytes32","internalType":"bytes32"}],"outputs":[{"name":"","type":"bytes32","internalType":"bytes32"}],"stateMutability":"nonpayable"},{"type":"function","name":"permitAndPayErc20ForEth","inputs":[{"name":"buyAttestation","type":"bytes32","internalType":"bytes32"},{"name":"deadline","type":"uint256","internalType":"uint256"},{"name":"v","type":"uint8","internalType":"uint8"},{"name":"r","type":"bytes32","internalType":"bytes32"},{"name":"s","type":"bytes32","internalType":"bytes32"}],"outputs":[{"name":"","type":"bytes32","internalType":"bytes32"}],"stateMutability":"nonpayable"},{"type":"function","name":"permitAndPayWithErc20","inputs":[{"name":"token","type":"address","internalType":"address"},{"name":"amount","type":"uint256","internalType":"uint256"},{"name":"payee","type":"address","internalType":"address"},{"name":"deadline","type":"uint256","internalType":"uint256"},{"name":"v","type":"uint8","internalType":"uint8"},{"name":"r","type":"bytes32","internalType":"bytes32"},{"name":"s","type":"bytes32","internalType":"bytes32"}],"outputs":[{"name":"","type":"bytes32","internalType":"bytes32"}],"stateMutability":"nonpayable"},{"type":"error","name":"AttestationNotFound","inputs":[{"name":"attestationId","type":"bytes32","internalType":"bytes32"}]},{"type":"error","name":"CouldntCollectEscrow","inputs":[]},{"type":"error","name":"PermitFailed","inputs":[{"name":"token","type":"address","internalType":"address"},{"name":"reason","type":"string","internalType":"string"}]}],"bytecode":{"object":"0x6080346101ff57601f6126b638819003918201601f19168301916001600160401b0383118484101761020357808492610160946040528339810103126101ff5780516001600160a01b03811691908290036101ff5760208101516001600160a01b038116908190036101ff5760408201516001600160a01b038116908190036101ff5760608301516001600160a01b038116908190036101ff5760808401516001600160a01b038116908190036101ff5760a08501516001600160a01b03811691908290036101ff5760c08601516001600160a01b03811693908490036101ff5760e08701516001600160a01b03811695908690036101ff576101008801516001600160a01b03811697908890036101ff576101208901516001600160a01b03811699908a90036101ff5761014001516001600160a01b0381169a908b90036101ff5760018060a01b03195f5416175f5560018060a01b0319600154161760015560018060a01b0319600254161760025560018060a01b0319600354161760035560018060a01b0319600454161760045560018060a01b0319600554161760055560018060a01b0319600654161760065560018060a01b0319600754161760075560018060a01b0319600854161760085560018060a01b0319600954161760095560018060a01b0319600a541617600a5560405161249e90816102188239f35b5f80fd5b634e487b7160e01b5f52604160045260245ffdfe6080806040526004361015610012575f80fd5b5f905f3560e01c9081631454e3d214610f5b575080631b24bf5214610f3f5780632676380114610e625780632bf2ee3914610db45780633d94053d14610d9757806346b3aca214610d5657806357b378a614610d2157806367cebb7014610baf57806372448d4d14610a98578063759503f214610a03578063a0309a34146109a1578063a40318ca146108f5578063a611316414610862578063a663332a146107ac578063a6c002e914610719578063a7a6884d14610679578063a8270530146105da578063ab2fc26514610542578063b56edf5414610484578063c177838914610351578063c2661373146101d75763e3139e8614610110575f80fd5b346101d45761011e36611001565b9160248660018060a09897981b03815416604051928380926328c44a9960e21b82528960048301525afa9081156101c957916101926020610182610120610199979561019e9b9a99978d859e926101a6575b50500151828082518301019101611a06565b01518980825183010191016113d1565b9586611baa565b6123a1565b604051908152f35b6101c292503d8091833e6101ba8183611151565b810190611276565b5f80610170565b6040513d89823e3d90fd5b80fd5b50346101d45760e03660031901126101d457806101f261102d565b6024356101fd611043565b6084359260ff8416840361034d576002546001600160a01b03918216949116843b1561034957610252918691604051938492839263d505accf60e01b845260c4359160a435918a606435913360048901611410565b038183885af190811561033e578591610320575b5050906020926102c19260018060a01b036002541692604051926102898461111a565b8352858301526001600160a01b03166040808301919091525163446c5bf160e11b815295869384928391903390819060048501611b6b565b03925af190811561031457906102dd575b602090604051908152f35b506020813d60201161030c575b816102f760209383611151565b8101031261030857602090516102d2565b5f80fd5b3d91506102ea565b604051903d90823e3d90fd5b8161032d91949394611151565b6103395790835f610266565b505050fd5b6040513d87823e3d90fd5b8580fd5b8480fd5b50346101d4576101403660031901126101d45761036c61102d565b60243591610378611043565b92610381611083565b9160e43560ff81168103610480576001546001600160a01b038681169116813b1561047c579183929183926103dc9560405180978195829463d505accf60e01b8452610124359161010435918d60c435913360048901611410565b03925af19182610467575b505061045357826103f6611451565b6308c379a014610422575b6040516308f14ec160e11b815290819061041e9060048301611527565b0390fd5b61042a61146c565b9081610437579050610401565b61041e6040519283926308f14ec160e11b845260048401611505565b61019e926020946084359260643592612122565b610472828092611151565b6101d457806103e7565b8380fd5b5080fd5b50346101d45760203660031901126101d4576024906004356104a461177b565b5081546040516328c44a9960e21b81526004810183905293839185919082906001600160a01b03165afa80938394610526575b506104ef576301fb6dd160e01b825260045260249150fd5b61019e60209161052083610510610120880151828082518301019101611a06565b01518480825183010191016113d1565b906123a1565b61053b9194503d8085833e6101ba8183611151565b925f6104d7565b50346101d4576105513661118d565b60015497999497959695929493926001600160a01b038a81169391169190833b15610349578594939261059f8d9387936040519a8b988997889663d505accf60e01b88523360048901611410565b03925af191826105c5575b50506105b957836103f6611451565b60209461019e946120f5565b6105d0828092611151565b6101d457806105aa565b50346101d45760203660031901126101d45780546040516328c44a9960e21b815260048035908201819052918390829060249082906001600160a01b03165afa90811561066e57602061051061012061019e959461064d9488859992610653575b50500151828082518301019101611351565b90612213565b61066792503d8091833e6101ba8183611151565b5f8061063b565b6040513d85823e3d90fd5b50346101d4576106883661118d565b6001549499959896979695949293926001600160a01b038088169391169190833b1561071557869493926106d78a938793604051998a988997889663d505accf60e01b88523360048901611410565b03925af1801561070a576106f5575b602061019e8888888888611da4565b610700828092611151565b6101d457806106e6565b6040513d84823e3d90fd5b8680fd5b50346101d45761072836611001565b9160248660018060a09897981b03815416604051928380926328c44a9960e21b82528960048301525afa9081156101c95791610192602061018261012061078c979561019e9b9a99978d859e92610791575b505001518280825183010191016117c5565b61202e565b6107a592503d8091833e6101ba8183611151565b5f8061077a565b50346101d45760203660031901126101d4576024600435918060018060a01b03815416604051938480926328c44a9960e21b82528760048301525afa918215610855578192610839575b5081511561082557602061019e8461081f836105106101208801518280825183010191016118d5565b906122da565b6301fb6dd160e01b81526004839052602490fd5b61084e9192503d8084833e6101ba8183611151565b905f6107f6565b50604051903d90823e3d90fd5b50346101d45761087136611001565b9160248660018060a09897981b03815416604051928380926328c44a9960e21b82528960048301525afa9081156101c9579161019260206101826101206108d5979561019e9b9a99978d859e926108da575b505001518280825183010191016118d5565b6122da565b6108ee92503d8091833e6101ba8183611151565b5f806108c3565b50346101d4576101003660031901126101d45761091061102d565b60243561091b61106d565b92610924610ff1565b6001546001600160a01b038581169116813b1561047c5791839161096d938360405180968195829463d505accf60e01b845260e4359160c435918d608435913360048901611410565b03925af1801561070a5761098c575b602061019e8660443586886121a5565b610997828092611151565b6101d4578061097c565b50346101d45760803660031901126101d4576109bb61102d565b604435916001600160401b0383116101d45761012060031984360301126101d457602061019e84846109f96109ee61106d565b923690600401611638565b9060243590611f22565b50346101d45760203660031901126101d4576024600435918060018060a01b03815416604051938480926328c44a9960e21b82528760048301525afa918215610855578192610a7c575b5081511561082557602061019e84610a7683610510610120880151828082518301019101611351565b90611c93565b610a919192503d8084833e6101ba8183611151565b905f610a4d565b50346101d457610aa736611001565b85546040516328c44a9960e21b81526004810187905292969492908590829060249082906001600160a01b03165afa90811561033e57610b02610120610b13936020938991610b95575b500151828082518301019101611351565b0151602080825183010191016113d1565b8051600254602083015192986001600160a01b03928316949190921691843b15610b915791610b618896959493928793604051998a988997889663d505accf60e01b88523360048901611410565b03925af1801561070a57610b7c575b602061019e8585612213565b610b87828092611151565b6101d45780610b70565b8780fd5b610ba991503d808b833e6101ba8183611151565b5f610af1565b50346101d4576101203660031901126101d457610bca61102d565b602435610bd5611043565b606435916001600160401b03831161034d573660238401121561034d5784836004013593610c0285611172565b94610c106040519687611151565b8086523660248284010111610d1d57806024602093018388013785010152608435936001600160401b03851685036103495760c4359060ff82168203610715576001546001600160a01b03918216929116908790833b1561048057610c9992604051938492839263d505accf60e01b8452610104359160e435918a60a435913360048901611410565b038183865af180156101c957610d08575b5091602093916102c196959360018060a01b03600154169360405193610ccf856110eb565b60018060a01b03168452868401526040830152606082015284604051809781958294631e72ae8160e11b8452339133916004860161185f565b610d13878092611151565b610349575f610caa565b8280fd5b50346101d45760803660031901126101d457602061019e610d4061102d565b610d4861106d565b9060443590602435906121a5565b50346101d45760c03660031901126101d457602061019e610d7561102d565b610d7d611043565b610d85611083565b91608435916064359160243590612122565b50346101d457602061019e610dab36611099565b939290926120f5565b50346101d45760203660031901126101d457602490600435610dd461177b565b5081546040516328c44a9960e21b81526004810183905293839185919082906001600160a01b03165afa80938394610e46575b50610e1f576301fb6dd160e01b825260045260249150fd5b61019e602091610e40836105106101208801518280825183010191016117c5565b9061202e565b610e5b9194503d8085833e6101ba8183611151565b925f610e07565b346103085761010036600319011261030857610e7c61102d565b6044356024356001600160401b03821161030857610120600319833603011261030857610ea761106d565b91610eb0610ff1565b6001546001600160a01b0386811692911690823b1561030857610efa925f928360405180968195829463d505accf60e01b845260e4359160c435918d608435913360048901611410565b03925af19081610f2f575b50610f1357836103f6611451565b9261019e9291610f296020953690600401611638565b91611f22565b5f610f3991611151565b5f610f05565b3461030857602061019e610f5236611099565b93929092611da4565b3461030857610f6936611001565b5f80546328c44a9960e21b8852600488018790529396929593839060249082906001600160a01b03165afa948515610fe6576020966101928861018261012061019e9a610fc7985f91610fcc57500151828082518301019101611351565b611c93565b610fe091503d805f833e6101ba8183611151565b8d610af1565b6040513d5f823e3d90fd5b60a4359060ff8216820361030857565b60a090600319011261030857600435906024359060443560ff8116810361030857906064359060843590565b600435906001600160a01b038216820361030857565b604435906001600160a01b038216820361030857565b35906001600160a01b038216820361030857565b606435906001600160401b038216820361030857565b60a435906001600160401b038216820361030857565b60a0906003190112610308576004356001600160a01b03811681036103085790602435906044356001600160a01b03811681036103085790606435906084356001600160401b03811681036103085790565b608081019081106001600160401b0382111761110657604052565b634e487b7160e01b5f52604160045260245ffd5b606081019081106001600160401b0382111761110657604052565b61014081019081106001600160401b0382111761110657604052565b90601f801991011681019081106001600160401b0382111761110657604052565b6001600160401b03811161110657601f01601f191660200190565b610120906003190112610308576004356001600160a01b03811681036103085790602435906044356001600160a01b03811681036103085790606435906084356001600160401b0381168103610308579060a4359060c43560ff81168103610308579060e435906101043590565b51906001600160401b038216820361030857565b51906001600160a01b038216820361030857565b5190811515820361030857565b81601f820112156103085780519061124782611172565b926112556040519485611151565b8284526020838301011161030857815f9260208093018386015e8301015290565b602081830312610308578051906001600160401b03821161030857016101408183031261030857604051916112aa83611135565b81518352602082015160208401526112c4604083016111fb565b60408401526112d5606083016111fb565b60608401526112e6608083016111fb565b608084015260a082015160a084015261130160c0830161120f565b60c084015261131260e0830161120f565b60e08401526113246101008301611223565b6101008401526101208201516001600160401b038111610308576113489201611230565b61012082015290565b602081830312610308578051906001600160401b0382116103085701906080828203126103085760405191611385836110eb565b61138e8161120f565b835260208101516001600160401b038111610308576060926113b1918301611230565b60208401526113c26040820161120f565b60408401520151606082015290565b908160609103126103085761140860408051926113ed8461111a565b6113f68161120f565b8452602081015160208501520161120f565b604082015290565b9360c095919897969360ff9360e087019a60018060a01b0316875260018060a01b031660208701526040860152606085015216608083015260a08201520152565b5f9060033d1161145d57565b905060045f803e5f5160e01c90565b5f60443d106114d0576040513d600319016004823e8051913d60248401116001600160401b038411176114db57828201928351916001600160401b0383116114d3573d840160031901858401602001116114d357506114d092910160200190611151565b90565b949350505050565b92915050565b805180835260209291819084018484015e5f828201840152601f01601f1916010190565b6001600160a01b0390911681526040602082018190526114d0929101906114e1565b6001600160a01b039091168152604060208201819052600d908201526c2ab735b737bbb71032b93937b960991b606082015260800190565b6001600160401b0381116111065760051b60200190565b9080601f8301121561030857813561158d8161155f565b9261159b6040519485611151565b81845260208085019260051b82010192831161030857602001905b8282106115c35750505090565b602080916115d084611059565b8152019101906115b6565b9080601f830112156103085781356115f28161155f565b926116006040519485611151565b81845260208085019260051b82010192831161030857602001905b8282106116285750505090565b813581526020918201910161161b565b91909161012081840312610308576040519061012082018281106001600160401b038211176111065760405281938135835260208201356001600160401b0381116103085781611689918401611576565b602084015260408201356001600160401b03811161030857816116ad9184016115db565b604084015260608201356001600160401b03811161030857816116d1918401611576565b606084015260808201356001600160401b03811161030857816116f59184016115db565b608084015260a08201356001600160401b0381116103085781611719918401611576565b60a084015260c08201356001600160401b038111610308578161173d9184016115db565b60c084015260e0820135906001600160401b038211610308578261176b6101009492611776948694016115db565b60e086015201611059565b910152565b6040519061178882611135565b6060610120835f81525f60208201525f60408201525f838201525f60808201525f60a08201525f60c08201525f60e08201525f6101008201520152565b602081830312610308578051906001600160401b03821161030857019060a082820312610308576040519160a083018381106001600160401b03821117611106576040526118128161120f565b835260208101516001600160401b03811161030857608092611835918301611230565b60208401526118466040820161120f565b6040840152606081015160608401520151608082015290565b926001600160401b036060939695926080865260018060a01b0381511660808701528461189c6020830151608060a08a01526101008901906114e1565b6040838101516001600160a01b0390811660c08b0152929093015160e08901529890921660208701529181169185019190915216910152565b602081830312610308578051906001600160401b03821161030857019060608282031261030857604051916119098361111a565b6119128161120f565b835260208101516001600160401b03811161030857604092611935918301611230565b60208401520151604082015290565b9080601f8301121561030857815161195b8161155f565b926119696040519485611151565b81845260208085019260051b82010192831161030857602001905b8282106119915750505090565b6020809161199e8461120f565b815201910190611984565b9080601f830112156103085781516119c08161155f565b926119ce6040519485611151565b81845260208085019260051b82010192831161030857602001905b8282106119f65750505090565b81518152602091820191016119e9565b602081830312610308578051906001600160401b0382116103085701610140818303126103085760405191611a3a83611135565b611a438261120f565b835260208201516001600160401b0381116103085781611a64918401611230565b60208401526040820151604084015260608201516001600160401b0381116103085781611a92918401611944565b606084015260808201516001600160401b0381116103085781611ab69184016119a9565b608084015260a08201516001600160401b0381116103085781611ada918401611944565b60a084015260c08201516001600160401b0381116103085781611afe9184016119a9565b60c084015260e08201516001600160401b0381116103085781611b22918401611944565b60e08401526101008201516001600160401b0381116103085781611b479184016119a9565b6101008401526101208201516001600160401b0381116103085761134892016119a9565b81516001600160a01b03908116825260208084015190830152604092830151811692820192909252918116606083015291909116608082015260a00190565b805160025460208301519297969495946001600160a01b039283169392909116833b1561030857611bf75f96928793604051998a988997889663d505accf60e01b88523360048901611410565b03925af19081611c83575b50611c7f5750611c10611451565b6308c379a014611c42575b516040516308f14ec160e11b815290819061041e906001600160a01b031660048301611527565b611c4a61146c565b9081611c57579050611c1b565b516040516308f14ec160e11b815291829161041e91906001600160a01b031660048401611505565b9050565b5f611c8d91611151565b5f611c02565b6020611cc65f9360018060a01b03600254169060405195868094819363446c5bf160e11b83523390339060048501611b6b565b03925af1918215610fe6575f92611d6f575b50600354604051632c713cd960e01b8152600481019290925260248201839052602090829060449082905f906001600160a01b03165af1908115610fe6575f91611d35575b5015611d265790565b63a97a981d60e01b5f5260045ffd5b90506020813d602011611d67575b81611d5060209383611151565b8101031261030857611d6190611223565b5f611d1d565b3d9150611d43565b9091506020813d602011611d9c575b81611d8b60209383611151565b810103126103085751906020611cd8565b3d9150611d7e565b600154600254604051611e6f9760209790966001600160a01b0394851696949093169492611dd18361111a565b60018060a01b0316825287820152336040820152611e1a604051918883019060409060018060a01b038151168352602081015160208401528160018060a01b0391015116910152565b60608152611e29608082611151565b60405193611e36856110eb565b84528684015260018060a01b0316604083015260608201525f604051809681958294631e72ae8160e11b8452339133916004860161185f565b03925af1908115610fe6575f91611e84575090565b90506020813d602011611eab575b81611e9f60209383611151565b81010312610308575190565b3d9150611e92565b90602080835192838152019201905f5b818110611ed05750505090565b82516001600160a01b0316845260209384019390920191600101611ec3565b90602080835192838152019201905f5b818110611f0c5750505090565b8251845260209384019390920191600101611eff565b602092611e6f949260018060a01b03600154169260018060a01b036008541692611e296040518092898083015280516040830152612009611ff2611fdb611fc5611faf611f998f611f839088015161012060608b01526101608a0190611eb3565b6040880151898203603f190160808b0152611eef565b6060870151888203603f190160a08a0152611eb3565b6080860151878203603f190160c0890152611eef565b60a0850151868203603f190160e0880152611eb3565b60c0840151858203603f1901610100870152611eef565b60e0830151848203603f1901610120860152611eef565b61010091909101516001600160a01b031661014083015203601f198101835282611151565b60206120615f9360018060a01b03600254169060405195868094819363446c5bf160e11b83523390339060048501611b6b565b03925af1918215610fe6575f926120c0575b50600554604051632c713cd960e01b8152600481019290925260248201839052602090829060449082905f906001600160a01b03165af1908115610fe6575f91611d35575015611d265790565b9091506020813d6020116120ed575b816120dc60209383611151565b810103126103085751906020612073565b3d91506120cf565b600154600454604051611e6f9760209790966001600160a01b0394851696949093169492611dd18361111a565b600154600654604051611e6f9860209890976001600160a01b0394851697939094169594939192606090612155856110eb565b60018060a01b0316938481528a8101938452604081019283520191338352604051938a85015251604084015251606083015260018060a01b03905116608082015260808152611e2960a082611151565b600154600a546040805190810196909590946001600160a01b03938416949390921692908688106001600160401b038911176111065760208097611e6f9960405282815201338152604051918883015260018060a01b03905116604082015260408152611e29606082611151565b60206122465f9360018060a01b03600254169060405195868094819363446c5bf160e11b83523390339060048501611b6b565b03925af1918215610fe6575f926122a5575b50600154604051632c713cd960e01b8152600481019290925260248201839052602090829060449082905f906001600160a01b03165af1908115610fe6575f91611d35575015611d265790565b9091506020813d6020116122d2575b816122c160209383611151565b810103126103085751906020612258565b3d91506122b4565b602061230d5f9360018060a01b03600254169060405195868094819363446c5bf160e11b83523390339060048501611b6b565b03925af1918215610fe6575f9261236c575b50600954604051632c713cd960e01b8152600481019290925260248201839052602090829060449082905f906001600160a01b03165af1908115610fe6575f91611d35575015611d265790565b9091506020813d602011612399575b8161238860209383611151565b81010312610308575190602061231f565b3d915061237b565b60206123d45f9360018060a01b03600254169060405195868094819363446c5bf160e11b83523390339060048501611b6b565b03925af1918215610fe6575f92612433575b50600754604051632c713cd960e01b8152600481019290925260248201839052602090829060449082905f906001600160a01b03165af1908115610fe6575f91611d35575015611d265790565b9091506020813d602011612460575b8161244f60209383611151565b8101031261030857519060206123e6565b3d915061244256fea2646970667358221220bfac0ccf9e2ddee6efb597700d6474f3ecc131a0d8977a9dd14cf46e79c7201264736f6c634300081b0033","linkReferences":{}},"methodIdentifiers":{"buyBundleWithErc20(address,uint256,(uint256,address[],uint256[],address[],uint256[],address[],uint256[],uint256[],address),uint64)":"a0309a34","buyErc1155WithErc20(address,uint256,address,uint256,uint256,uint64)":"46b3aca2","buyErc20ForErc20(address,uint256,address,uint256,uint64)":"1b24bf52","buyErc721WithErc20(address,uint256,address,uint256,uint64)":"3d94053d","buyEthWithErc20(address,uint256,uint256,uint64)":"57b378a6","payErc20ForBundle(bytes32)":"b56edf54","payErc20ForErc1155(bytes32)":"2bf2ee39","payErc20ForErc20(bytes32)":"a8270530","payErc20ForErc721(bytes32)":"759503f2","payErc20ForEth(bytes32)":"a663332a","permitAndBuyBundleWithErc20(address,uint256,(uint256,address[],uint256[],address[],uint256[],address[],uint256[],uint256[],address),uint64,uint256,uint8,bytes32,bytes32)":"26763801","permitAndBuyErc1155WithErc20(address,uint256,address,uint256,uint256,uint64,uint256,uint8,bytes32,bytes32)":"c1778389","permitAndBuyErc20ForErc20(address,uint256,address,uint256,uint64,uint256,uint8,bytes32,bytes32)":"a7a6884d","permitAndBuyErc721WithErc20(address,uint256,address,uint256,uint64,uint256,uint8,bytes32,bytes32)":"ab2fc265","permitAndBuyEthWithErc20(address,uint256,uint256,uint64,uint256,uint8,bytes32,bytes32)":"a40318ca","permitAndBuyWithErc20(address,uint256,address,bytes,uint64,uint256,uint8,bytes32,bytes32)":"67cebb70","permitAndPayErc20ForBundle(bytes32,uint256,uint8,bytes32,bytes32)":"e3139e86","permitAndPayErc20ForErc1155(bytes32,uint256,uint8,bytes32,bytes32)":"a6c002e9","permitAndPayErc20ForErc20(bytes32,uint256,uint8,bytes32,bytes32)":"72448d4d","permitAndPayErc20ForErc721(bytes32,uint256,uint8,bytes32,bytes32)":"1454e3d2","permitAndPayErc20ForEth(bytes32,uint256,uint8,bytes32,bytes32)":"a6113164","permitAndPayWithErc20(address,uint256,address,uint256,uint8,bytes32,bytes32)":"c2661373"},"id":136}