{"abi":[{"type":"constructor","inputs":[{"name":"_baseObligation","type":"address","internalType":"contract ERC20EscrowObligation"},{"name":"_specificAttestation","type":"address","internalType":"contract SpecificAttestationArbiter"}],"stateMutability":"nonpayable"},{"type":"function","name":"checkObligation","inputs":[{"name":"obligation","type":"tuple","internalType":"struct Attestation","components":[{"name":"uid","type":"bytes32","internalType":"bytes32"},{"name":"schema","type":"bytes32","internalType":"bytes32"},{"name":"time","type":"uint64","internalType":"uint64"},{"name":"expirationTime","type":"uint64","internalType":"uint64"},{"name":"revocationTime","type":"uint64","internalType":"uint64"},{"name":"refUID","type":"bytes32","internalType":"bytes32"},{"name":"recipient","type":"address","internalType":"address"},{"name":"attester","type":"address","internalType":"address"},{"name":"revocable","type":"bool","internalType":"bool"},{"name":"data","type":"bytes","internalType":"bytes"}]},{"name":"demand","type":"bytes","internalType":"bytes"},{"name":"counteroffer","type":"bytes32","internalType":"bytes32"}],"outputs":[{"name":"","type":"bool","internalType":"bool"}],"stateMutability":"view"},{"type":"function","name":"paymentObligation","inputs":[],"outputs":[{"name":"","type":"address","internalType":"contract ERC20EscrowObligation"}],"stateMutability":"view"},{"type":"function","name":"specificAttestation","inputs":[],"outputs":[{"name":"","type":"address","internalType":"contract SpecificAttestationArbiter"}],"stateMutability":"view"},{"type":"error","name":"InvalidObligation","inputs":[]},{"type":"error","name":"InvalidValidation","inputs":[]}],"bytecode":{"object":"0x60c03461009a57601f61063c38819003918201601f19168301916001600160401b0383118484101761009e57808492604094855283398101031261009a578051906001600160a01b038216820361009a5760200151906001600160a01b038216820361009a5760805260a05260405161058990816100b382396080518181816101be0152610425015260a05181818161032301526104660152f35b5f80fd5b634e487b7160e01b5f52604160045260245ffdfe6080806040526004361015610012575f80fd5b5f3560e01c9081630ac21e3314610454575080638660b17b146104105763e6c9714d1461003d575f80fd5b346103b45760603660031901126103b4576004356001600160401b0381116103b45761014060031982360301126103b4576040519061014082018281106001600160401b038211176103a057604052806004013582526020820191602482013583526100ab604483016104b6565b60408201526100bc606483016104b6565b91606082019283526100d0608482016104b6565b608083015260a481013560a08301526100eb60c482016104ca565b60c08301526100fc60e482016104ca565b60e083015261010481013580151581036103b4576101008301526101248101356001600160401b0381116103b45761012091600461013d92369201016104f9565b91019081526024356001600160401b0381116103b4576101619036906004016104f9565b916040838051810103126103b4576040519260408401908482106001600160401b038311176103a057604091825261019b6020820161053f565b8552015160208085019182529451604051635bf2f20d60e01b81529195826004817f00000000000000000000000000000000000000000000000000000000000000006001600160a01b03165afa918215610405575f926103d1575b50036103b857516001600160401b031680151590816103c7575b506103b8575191825183019160208301936020818503126103b4576020810151906001600160401b0382116103b4570192608090849003126103b45760405192608084018481106001600160401b038211176103a0576040526102756020820161053f565b845260408101516001600160401b0381116103b45760209082010185601f820112156103b4578051906102a7826104de565b966102b56040519889610495565b828852602083830101116103b457815f926020809301838a015e870101526020840194855260806102e86060830161053f565b604086018190529101516060850190815291516001600160a01b03908116911603610391575190511161039157516001600160a01b039081167f00000000000000000000000000000000000000000000000000000000000000009091160361039157516020818051810103126103b4576040519060208201908282106001600160401b038311176103a05760209160405201518091526044350361039157602060405160018152f35b634af2691560e01b5f5260045ffd5b634e487b7160e01b5f52604160045260245ffd5b5f80fd5b637a9e2e8d60e01b5f5260045ffd5b905042115f610210565b9091506020813d6020116103fd575b816103ed60209383610495565b810103126103b45751905f6101f6565b3d91506103e0565b6040513d5f823e3d90fd5b346103b4575f3660031901126103b4576040517f00000000000000000000000000000000000000000000000000000000000000006001600160a01b03168152602090f35b346103b4575f3660031901126103b4577f00000000000000000000000000000000000000000000000000000000000000006001600160a01b03168152602090f35b90601f801991011681019081106001600160401b038211176103a057604052565b35906001600160401b03821682036103b457565b35906001600160a01b03821682036103b457565b6001600160401b0381116103a057601f01601f191660200190565b81601f820112156103b457803590610510826104de565b9261051e6040519485610495565b828452602083830101116103b457815f926020809301838601378301015290565b51906001600160a01b03821682036103b45756fea264697066735822122064d77817fc2b8a650c5b7effb57f2b7daf60b731e14114d53c9bd1fd2c62ae9c64736f6c634300081b0033","linkReferences":{}},"methodIdentifiers":{"checkObligation((bytes32,bytes32,uint64,uint64,uint64,bytes32,address,address,bool,bytes),bytes,bytes32)":"e6c9714d","paymentObligation()":"8660b17b","specificAttestation()":"0ac21e33"},"id":100}