{"abi":[{"type":"constructor","inputs":[{"name":"_eas","type":"address","internalType":"contract IEAS"},{"name":"_schemaRegistry","type":"address","internalType":"contract ISchemaRegistry"}],"stateMutability":"nonpayable"},{"type":"receive","stateMutability":"payable"},{"type":"function","name":"ATTESTATION_SCHEMA","inputs":[],"outputs":[{"name":"","type":"bytes32","internalType":"bytes32"}],"stateMutability":"view"},{"type":"function","name":"attest","inputs":[{"name":"attestation","type":"tuple","internalType":"struct Attestation","components":[{"name":"uid","type":"bytes32","internalType":"bytes32"},{"name":"schema","type":"bytes32","internalType":"bytes32"},{"name":"time","type":"uint64","internalType":"uint64"},{"name":"expirationTime","type":"uint64","internalType":"uint64"},{"name":"revocationTime","type":"uint64","internalType":"uint64"},{"name":"refUID","type":"bytes32","internalType":"bytes32"},{"name":"recipient","type":"address","internalType":"address"},{"name":"attester","type":"address","internalType":"address"},{"name":"revocable","type":"bool","internalType":"bool"},{"name":"data","type":"bytes","internalType":"bytes"}]}],"outputs":[{"name":"","type":"bool","internalType":"bool"}],"stateMutability":"payable"},{"type":"function","name":"checkObligation","inputs":[{"name":"obligation","type":"tuple","internalType":"struct Attestation","components":[{"name":"uid","type":"bytes32","internalType":"bytes32"},{"name":"schema","type":"bytes32","internalType":"bytes32"},{"name":"time","type":"uint64","internalType":"uint64"},{"name":"expirationTime","type":"uint64","internalType":"uint64"},{"name":"revocationTime","type":"uint64","internalType":"uint64"},{"name":"refUID","type":"bytes32","internalType":"bytes32"},{"name":"recipient","type":"address","internalType":"address"},{"name":"attester","type":"address","internalType":"address"},{"name":"revocable","type":"bool","internalType":"bool"},{"name":"data","type":"bytes","internalType":"bytes"}]},{"name":"demand","type":"bytes","internalType":"bytes"},{"name":"","type":"bytes32","internalType":"bytes32"}],"outputs":[{"name":"","type":"bool","internalType":"bool"}],"stateMutability":"view"},{"type":"function","name":"decodeObligationData","inputs":[{"name":"data","type":"bytes","internalType":"bytes"}],"outputs":[{"name":"","type":"tuple","internalType":"struct ERC721PaymentObligation.ObligationData","components":[{"name":"token","type":"address","internalType":"address"},{"name":"tokenId","type":"uint256","internalType":"uint256"},{"name":"payee","type":"address","internalType":"address"}]}],"stateMutability":"pure"},{"type":"function","name":"doObligation","inputs":[{"name":"data","type":"tuple","internalType":"struct ERC721PaymentObligation.ObligationData","components":[{"name":"token","type":"address","internalType":"address"},{"name":"tokenId","type":"uint256","internalType":"uint256"},{"name":"payee","type":"address","internalType":"address"}]}],"outputs":[{"name":"uid_","type":"bytes32","internalType":"bytes32"}],"stateMutability":"nonpayable"},{"type":"function","name":"doObligationFor","inputs":[{"name":"data","type":"tuple","internalType":"struct ERC721PaymentObligation.ObligationData","components":[{"name":"token","type":"address","internalType":"address"},{"name":"tokenId","type":"uint256","internalType":"uint256"},{"name":"payee","type":"address","internalType":"address"}]},{"name":"payer","type":"address","internalType":"address"},{"name":"recipient","type":"address","internalType":"address"}],"outputs":[{"name":"uid_","type":"bytes32","internalType":"bytes32"}],"stateMutability":"nonpayable"},{"type":"function","name":"doObligationForRaw","inputs":[{"name":"data","type":"bytes","internalType":"bytes"},{"name":"expirationTime","type":"uint64","internalType":"uint64"},{"name":"payer","type":"address","internalType":"address"},{"name":"recipient","type":"address","internalType":"address"},{"name":"refUID","type":"bytes32","internalType":"bytes32"}],"outputs":[{"name":"uid_","type":"bytes32","internalType":"bytes32"}],"stateMutability":"payable"},{"type":"function","name":"doObligationRaw","inputs":[{"name":"data","type":"bytes","internalType":"bytes"},{"name":"expirationTime","type":"uint64","internalType":"uint64"},{"name":"refUID","type":"bytes32","internalType":"bytes32"}],"outputs":[{"name":"uid_","type":"bytes32","internalType":"bytes32"}],"stateMutability":"payable"},{"type":"function","name":"getObligationData","inputs":[{"name":"uid","type":"bytes32","internalType":"bytes32"}],"outputs":[{"name":"","type":"tuple","internalType":"struct ERC721PaymentObligation.ObligationData","components":[{"name":"token","type":"address","internalType":"address"},{"name":"tokenId","type":"uint256","internalType":"uint256"},{"name":"payee","type":"address","internalType":"address"}]}],"stateMutability":"view"},{"type":"function","name":"getSchema","inputs":[],"outputs":[{"name":"","type":"tuple","internalType":"struct SchemaRecord","components":[{"name":"uid","type":"bytes32","internalType":"bytes32"},{"name":"resolver","type":"address","internalType":"contract ISchemaResolver"},{"name":"revocable","type":"bool","internalType":"bool"},{"name":"schema","type":"string","internalType":"string"}]}],"stateMutability":"view"},{"type":"function","name":"isPayable","inputs":[],"outputs":[{"name":"","type":"bool","internalType":"bool"}],"stateMutability":"pure"},{"type":"function","name":"multiAttest","inputs":[{"name":"attestations","type":"tuple[]","internalType":"struct Attestation[]","components":[{"name":"uid","type":"bytes32","internalType":"bytes32"},{"name":"schema","type":"bytes32","internalType":"bytes32"},{"name":"time","type":"uint64","internalType":"uint64"},{"name":"expirationTime","type":"uint64","internalType":"uint64"},{"name":"revocationTime","type":"uint64","internalType":"uint64"},{"name":"refUID","type":"bytes32","internalType":"bytes32"},{"name":"recipient","type":"address","internalType":"address"},{"name":"attester","type":"address","internalType":"address"},{"name":"revocable","type":"bool","internalType":"bool"},{"name":"data","type":"bytes","internalType":"bytes"}]},{"name":"values","type":"uint256[]","internalType":"uint256[]"}],"outputs":[{"name":"","type":"bool","internalType":"bool"}],"stateMutability":"payable"},{"type":"function","name":"multiRevoke","inputs":[{"name":"attestations","type":"tuple[]","internalType":"struct Attestation[]","components":[{"name":"uid","type":"bytes32","internalType":"bytes32"},{"name":"schema","type":"bytes32","internalType":"bytes32"},{"name":"time","type":"uint64","internalType":"uint64"},{"name":"expirationTime","type":"uint64","internalType":"uint64"},{"name":"revocationTime","type":"uint64","internalType":"uint64"},{"name":"refUID","type":"bytes32","internalType":"bytes32"},{"name":"recipient","type":"address","internalType":"address"},{"name":"attester","type":"address","internalType":"address"},{"name":"revocable","type":"bool","internalType":"bool"},{"name":"data","type":"bytes","internalType":"bytes"}]},{"name":"values","type":"uint256[]","internalType":"uint256[]"}],"outputs":[{"name":"","type":"bool","internalType":"bool"}],"stateMutability":"payable"},{"type":"function","name":"revoke","inputs":[{"name":"attestation","type":"tuple","internalType":"struct Attestation","components":[{"name":"uid","type":"bytes32","internalType":"bytes32"},{"name":"schema","type":"bytes32","internalType":"bytes32"},{"name":"time","type":"uint64","internalType":"uint64"},{"name":"expirationTime","type":"uint64","internalType":"uint64"},{"name":"revocationTime","type":"uint64","internalType":"uint64"},{"name":"refUID","type":"bytes32","internalType":"bytes32"},{"name":"recipient","type":"address","internalType":"address"},{"name":"attester","type":"address","internalType":"address"},{"name":"revocable","type":"bool","internalType":"bool"},{"name":"data","type":"bytes","internalType":"bytes"}]}],"outputs":[{"name":"","type":"bool","internalType":"bool"}],"stateMutability":"payable"},{"type":"function","name":"version","inputs":[],"outputs":[{"name":"","type":"string","internalType":"string"}],"stateMutability":"view"},{"type":"event","name":"PaymentMade","inputs":[{"name":"payment","type":"bytes32","indexed":true,"internalType":"bytes32"},{"name":"buyer","type":"address","indexed":true,"internalType":"address"}],"anonymous":false},{"type":"error","name":"AccessDenied","inputs":[]},{"type":"error","name":"AttestationRevoked","inputs":[]},{"type":"error","name":"DeadlineExpired","inputs":[]},{"type":"error","name":"ERC721TransferFailed","inputs":[{"name":"token","type":"address","internalType":"address"},{"name":"from","type":"address","internalType":"address"},{"name":"to","type":"address","internalType":"address"},{"name":"tokenId","type":"uint256","internalType":"uint256"}]},{"type":"error","name":"InsufficientValue","inputs":[]},{"type":"error","name":"InvalidEAS","inputs":[]},{"type":"error","name":"InvalidLength","inputs":[]},{"type":"error","name":"InvalidSchema","inputs":[]},{"type":"error","name":"NotFromThisAttester","inputs":[]},{"type":"error","name":"NotPayable","inputs":[]}],"bytecode":{"object":"0x61016080604052346101d3576040816115dc8038038091610020828561020d565b8339810103126101d35780516001600160a01b038116918282036101d35760200151916001600160a01b0383168084036101d357604051606081016001600160401b038111828210176101f957604052602d815260208101927f6164647265737320746f6b656e2c2075696e7432353620746f6b656e49642c2084526c6164647265737320706179656560981b60408301526001608052600360a0525f60c052156101ea576084948460209560e05261012052610100525f604051958680958194630c1af44f60e31b8352606060048401525180918160648501528484015e818101830184905230602483015260016044830152601f01601f191681010301925af19081156101df575f916101a9575b50610140526040516113ab9081610231823960805181610994015260a051816109bf015260c051816109ea015260e051816113090152610100518161081601526101205181818161049d01526110c0015261014051818181610258015281816104d5015281816107e40152818161095201526110130152f35b90506020813d6020116101d7575b816101c46020938361020d565b810103126101d357515f610130565b5f80fd5b3d91506101b7565b6040513d5f823e3d90fd5b6341bc07ff60e11b5f5260045ffd5b634e487b7160e01b5f52604160045260245ffd5b601f909101601f19168101906001600160401b038211908210176101f95760405256fe60806040526004361015610027575b3615610018575f80fd5b631574f9f360e01b5f5260045ffd5b5f3560e01c806354fd4d50146109755780635bf2f20d1461093b5780636b122fe0146107a557806388d8b7e21461073d57806388e5b2d91461071e57806391db0b7e1461071e5780639b28978c14610679578063b3b902d414610633578063c6ec50701461041a578063c93844be1461039d578063ce46e04614610383578063e49617e11461035e578063e60c35051461035e578063e6c9714d146101405763f0ffa1850361000e5760a036600319011261013c576004356001600160401b03811161013c576100fb903690600401610b41565b90610104610b6e565b604435929091906001600160a01b038416840361013c576020936101349361012a610a97565b9260843594610ecc565b604051908152f35b5f80fd5b3461013c57606036600319011261013c576004356001600160401b03811161013c57610140600319823603011261013c576040519061017e82610bfb565b8060040135825260208201906024810135825261019d60448201610b84565b60408401526101ae60648201610b84565b606084019081526101c160848301610b84565b916080850192835260a481013560a08601526101df60c48201610aad565b60c08601526101f060e48201610aad565b60e0860152610104810135801515810361013c576101008601526101248101356001600160401b03811161013c576101209160046102319236920101610ca4565b94019384526024356001600160401b03811161013c57610255903690600401610ca4565b927f000000000000000000000000000000000000000000000000000000000000000090510361034f57516001600160401b03168015159081610345575b5061033657516001600160401b0316610327576102cc6102bd60209351848082518301019101610e56565b91838082518301019101610e56565b815181516001600160a01b039081169116149182610317575b826102f7575b50506040519015158152f35b6040908101519101516001600160a01b03908116911614905082806102eb565b83810151828501511492506102e5565b637b6227e960e11b5f5260045ffd5b631ab7da6b60e01b5f5260045ffd5b9050421184610292565b635f9bd90760e11b5f5260045ffd5b602061037961036c36610b98565b610374611307565b611348565b6040519015158152f35b3461013c575f36600319011261013c5760206040515f8152f35b3461013c57602036600319011261013c576004356001600160401b03811161013c576103e46103d3610416923690600401610b41565b6103db610e24565b50810190610e95565b6040805182516001600160a01b0390811682526020808501519083015292820151909216908201529081906060820190565b0390f35b3461013c57602036600319011261013c57610433610e24565b50606061012060405161044581610bfb565b5f81525f60208201525f60408201525f838201525f60808201525f60a08201525f60c08201525f60e08201525f61010082015201526040516328c44a9960e21b815260043560048201525f8160248160018060a01b037f0000000000000000000000000000000000000000000000000000000000000000165afa908115610628575f91610523575b5060208101517f000000000000000000000000000000000000000000000000000000000000000003610514576103e461012061041692015160208082518301019101610e56565b635527981560e11b5f5260045ffd5b90503d805f833e6105348183610c32565b81019060208183031261013c578051906001600160401b03821161013c5701906101408282031261013c576040519161056c83610bfb565b805183526020810151602084015261058660408201611361565b604084015261059760608201611361565b60608401526105a860808201611361565b608084015260a081015160a08401526105c360c08201610e42565b60c08401526105d460e08201610e42565b60e08401526105e66101008201610cc2565b610100840152610120810151906001600160401b03821161013c57019080601f8301121561013c57815161061c92602001610ccf565b610120820152816104cd565b6040513d5f823e3d90fd5b606036600319011261013c576004356001600160401b03811161013c576101346106636020923690600401610b41565b61066b610b6e565b916044359233923392610ecc565b3461013c57606036600319011261013c576106cd60206040516106af816106a1848201610d05565b03601f198101835282610c32565b6040518093819263f0ffa18560e01b83523390339060048501610d46565b03815f305af18015610628575f906106eb575b602090604051908152f35b506020813d602011610716575b8161070560209383610c32565b8101031261013c57602090516106e0565b3d91506106f8565b602061037961072c36610af1565b92610738929192611307565b610d80565b3461013c57366003190160a0811261013c5760601361013c5761075e610a97565b608435906001600160a01b038216820361013c57602090604051610787816106a1858201610d05565b6106cd604051948593849363f0ffa18560e01b855260048501610d46565b3461013c575f36600319011261013c576060806040516107c481610bcc565b5f81525f60208201525f604082015201526040516351753e3760e11b81527f000000000000000000000000000000000000000000000000000000000000000060048201525f8160248160018060a01b037f0000000000000000000000000000000000000000000000000000000000000000165afa8015610628575f9061088b575b606090610416604051928392602084528051602085015260018060a01b0360208201511660408501526040810151151582850152015160808084015260a0830190610a73565b503d805f833e61089b8183610c32565b81019060208183031261013c578051906001600160401b03821161013c570160808183031261013c57604051906108d182610bcc565b8051825260208101516001600160a01b038116810361013c5760208301526108fb60408201610cc2565b60408301526060810151906001600160401b03821161013c570182601f8201121561013c5760609281602061093293519101610ccf565b82820152610845565b3461013c575f36600319011261013c5760206040517f00000000000000000000000000000000000000000000000000000000000000008152f35b3461013c575f36600319011261013c576104166020610a6360016109b87f000000000000000000000000000000000000000000000000000000000000000061119a565b81846109e37f000000000000000000000000000000000000000000000000000000000000000061119a565b8180610a0e7f000000000000000000000000000000000000000000000000000000000000000061119a565b9260405199878b985191829101848a015e870190601760f91b83830152805192839101602183015e010190601760f91b84830152805192839101600283015e01015f838201520301601f198101835282610c32565b6040519182916020835260208301905b805180835260209291819084018484015e5f828201840152601f01601f1916010190565b606435906001600160a01b038216820361013c57565b35906001600160a01b038216820361013c57565b9181601f8401121561013c578235916001600160401b03831161013c576020808501948460051b01011161013c57565b604060031982011261013c576004356001600160401b03811161013c5781610b1b91600401610ac1565b92909291602435906001600160401b03821161013c57610b3d91600401610ac1565b9091565b9181601f8401121561013c578235916001600160401b03831161013c576020838186019501011161013c57565b602435906001600160401b038216820361013c57565b35906001600160401b038216820361013c57565b602060031982011261013c57600435906001600160401b03821161013c5761014090829003600319011261013c5760040190565b608081019081106001600160401b03821117610be757604052565b634e487b7160e01b5f52604160045260245ffd5b61014081019081106001600160401b03821117610be757604052565b606081019081106001600160401b03821117610be757604052565b90601f801991011681019081106001600160401b03821117610be757604052565b6001600160401b038111610be757601f01601f191660200190565b929192610c7a82610c53565b91610c886040519384610c32565b82948184528183011161013c578281602093845f960137010152565b9080601f8301121561013c57816020610cbf93359101610c6e565b90565b5190811515820361013c57565b929192610cdb82610c53565b91610ce96040519384610c32565b82948184528183011161013c578281602093845f96015e010152565b6060810191906004356001600160a01b0381169081900361013c57815260243560208201526044356001600160a01b038116919082900361013c5760400152565b5f929493610d5e60809360a0845260a0840190610a73565b602083018590526001600160a01b039687166040840152951660608201520152565b929092818403610e15575f91345b85841015610e0a5781841015610df6578360051b8086013590828211610de75784013561013e198536030181121561013c57610dcb908501611348565b15610ddc5760019103930192610d8e565b505050505050505f90565b63044044a560e21b5f5260045ffd5b634e487b7160e01b5f52603260045260245ffd5b505050505050600190565b63251f56a160e21b5f5260045ffd5b60405190610e3182610c17565b5f6040838281528260208201520152565b51906001600160a01b038216820361013c57565b9081606091031261013c57610e8d6040805192610e7284610c17565b610e7b81610e42565b84526020810151602085015201610e42565b604082015290565b9081606091031261013c57610e8d6040805192610eb184610c17565b610eba81610aad565b84526020810135602085015201610aad565b939195909495610ede86860186610e95565b928351975f9860018060a01b031696604086019860018060a01b038a5116986020880198895190823b1561013c5760405192839283926323b872dd60e01b8452600160a01b60019003169d8e6004850152602484015260448301525a925f6064928195f19081611185575b50610f8b5786518a51895160405163045b391760e01b81526001600160a01b039384166004820152602481018d90529290911660448301526064820152608490fd5b9296509296509350610fa09296503691610c6e565b906040519260c084018481106001600160401b0382111761117157906001600160401b039160405260018060a01b03169485855216602084015260016040840152606083015260808201528360a0820152604051604081018181106001600160401b0382111761115d57906020916040527f000000000000000000000000000000000000000000000000000000000000000081528181019283526040518093819263f17325e760e01b8352846004840152516024830152516040604483015260018060a01b0381511660648301526001600160401b03848201511660848301526040810151151560a4830152606081015160c483015260a06110b2608083015160c060e4860152610124850190610a73565b9101516101048301520381877f00000000000000000000000000000000000000000000000000000000000000006001600160a01b03165af1908115611152578491611120575b507f4b5d781b1f4414459813c44d669c7821fcdec72a83b67c0303229be68d03ad05819480a3565b90506020813d60201161114a575b8161113b60209383610c32565b8101031261013c57515f6110f8565b3d915061112e565b6040513d86823e3d90fd5b634e487b7160e01b86526041600452602486fd5b634e487b7160e01b88526041600452602488fd5b611192919c505f90610c32565b5f9a5f610f49565b805f9172184f03e93ff9f4daa797ed6e38ed64bf6a1f0160401b8210156112e4575b806d04ee2d6d415b85acef8100000000600a9210156112c9575b662386f26fc100008110156112b5575b6305f5e1008110156112a4575b612710811015611295575b6064811015611287575b101561127c575b600a6021600184019361122185610c53565b9461122f6040519687610c32565b80865261123e601f1991610c53565b013660208701378401015b5f1901916f181899199a1a9b1b9c1cb0b131b232b360811b8282061a835304801561127757600a9091611249565b505090565b60019091019061120f565b606460029104930192611208565b612710600491049301926111fe565b6305f5e100600891049301926111f3565b662386f26fc10000601091049301926111e6565b6d04ee2d6d415b85acef8100000000602091049301926111d6565b506040915072184f03e93ff9f4daa797ed6e38ed64bf6a1f0160401b81046111bc565b7f00000000000000000000000000000000000000000000000000000000000000006001600160a01b0316330361133957565b634ca8886760e01b5f5260045ffd5b60e0013560018060a01b03811680910361013c57301490565b51906001600160401b038216820361013c5756fea2646970667358221220471ebce8c2a9621796500c64d7a2417481179ac2e64608fe68ab49a7d783e38e64736f6c634300081b0033","linkReferences":{}},"methodIdentifiers":{"ATTESTATION_SCHEMA()":"5bf2f20d","attest((bytes32,bytes32,uint64,uint64,uint64,bytes32,address,address,bool,bytes))":"e60c3505","checkObligation((bytes32,bytes32,uint64,uint64,uint64,bytes32,address,address,bool,bytes),bytes,bytes32)":"e6c9714d","decodeObligationData(bytes)":"c93844be","doObligation((address,uint256,address))":"9b28978c","doObligationFor((address,uint256,address),address,address)":"88d8b7e2","doObligationForRaw(bytes,uint64,address,address,bytes32)":"f0ffa185","doObligationRaw(bytes,uint64,bytes32)":"b3b902d4","getObligationData(bytes32)":"c6ec5070","getSchema()":"6b122fe0","isPayable()":"ce46e046","multiAttest((bytes32,bytes32,uint64,uint64,uint64,bytes32,address,address,bool,bytes)[],uint256[])":"91db0b7e","multiRevoke((bytes32,bytes32,uint64,uint64,uint64,bytes32,address,address,bool,bytes)[],uint256[])":"88e5b2d9","revoke((bytes32,bytes32,uint64,uint64,uint64,bytes32,address,address,bool,bytes))":"e49617e1","version()":"54fd4d50"},"id":120}