{"abi":[{"type":"constructor","inputs":[{"name":"_eas","type":"address","internalType":"contract IEAS"},{"name":"_schemaRegistry","type":"address","internalType":"contract ISchemaRegistry"}],"stateMutability":"nonpayable"},{"type":"receive","stateMutability":"payable"},{"type":"function","name":"ATTESTATION_SCHEMA","inputs":[],"outputs":[{"name":"","type":"bytes32","internalType":"bytes32"}],"stateMutability":"view"},{"type":"function","name":"attest","inputs":[{"name":"attestation","type":"tuple","internalType":"struct Attestation","components":[{"name":"uid","type":"bytes32","internalType":"bytes32"},{"name":"schema","type":"bytes32","internalType":"bytes32"},{"name":"time","type":"uint64","internalType":"uint64"},{"name":"expirationTime","type":"uint64","internalType":"uint64"},{"name":"revocationTime","type":"uint64","internalType":"uint64"},{"name":"refUID","type":"bytes32","internalType":"bytes32"},{"name":"recipient","type":"address","internalType":"address"},{"name":"attester","type":"address","internalType":"address"},{"name":"revocable","type":"bool","internalType":"bool"},{"name":"data","type":"bytes","internalType":"bytes"}]}],"outputs":[{"name":"","type":"bool","internalType":"bool"}],"stateMutability":"payable"},{"type":"function","name":"checkObligation","inputs":[{"name":"obligation","type":"tuple","internalType":"struct Attestation","components":[{"name":"uid","type":"bytes32","internalType":"bytes32"},{"name":"schema","type":"bytes32","internalType":"bytes32"},{"name":"time","type":"uint64","internalType":"uint64"},{"name":"expirationTime","type":"uint64","internalType":"uint64"},{"name":"revocationTime","type":"uint64","internalType":"uint64"},{"name":"refUID","type":"bytes32","internalType":"bytes32"},{"name":"recipient","type":"address","internalType":"address"},{"name":"attester","type":"address","internalType":"address"},{"name":"revocable","type":"bool","internalType":"bool"},{"name":"data","type":"bytes","internalType":"bytes"}]},{"name":"demand","type":"bytes","internalType":"bytes"},{"name":"","type":"bytes32","internalType":"bytes32"}],"outputs":[{"name":"","type":"bool","internalType":"bool"}],"stateMutability":"view"},{"type":"function","name":"collectEscrow","inputs":[{"name":"escrow","type":"bytes32","internalType":"bytes32"},{"name":"fulfillment","type":"bytes32","internalType":"bytes32"}],"outputs":[{"name":"","type":"bool","internalType":"bool"}],"stateMutability":"nonpayable"},{"type":"function","name":"collectEscrowRaw","inputs":[{"name":"_escrow","type":"bytes32","internalType":"bytes32"},{"name":"_fulfillment","type":"bytes32","internalType":"bytes32"}],"outputs":[{"name":"","type":"bytes","internalType":"bytes"}],"stateMutability":"nonpayable"},{"type":"function","name":"decodeObligationData","inputs":[{"name":"data","type":"bytes","internalType":"bytes"}],"outputs":[{"name":"","type":"tuple","internalType":"struct NativeTokenEscrowObligation.ObligationData","components":[{"name":"arbiter","type":"address","internalType":"address"},{"name":"demand","type":"bytes","internalType":"bytes"},{"name":"amount","type":"uint256","internalType":"uint256"}]}],"stateMutability":"pure"},{"type":"function","name":"doObligation","inputs":[{"name":"data","type":"tuple","internalType":"struct NativeTokenEscrowObligation.ObligationData","components":[{"name":"arbiter","type":"address","internalType":"address"},{"name":"demand","type":"bytes","internalType":"bytes"},{"name":"amount","type":"uint256","internalType":"uint256"}]},{"name":"expirationTime","type":"uint64","internalType":"uint64"}],"outputs":[{"name":"","type":"bytes32","internalType":"bytes32"}],"stateMutability":"payable"},{"type":"function","name":"doObligationFor","inputs":[{"name":"data","type":"tuple","internalType":"struct NativeTokenEscrowObligation.ObligationData","components":[{"name":"arbiter","type":"address","internalType":"address"},{"name":"demand","type":"bytes","internalType":"bytes"},{"name":"amount","type":"uint256","internalType":"uint256"}]},{"name":"expirationTime","type":"uint64","internalType":"uint64"},{"name":"payer","type":"address","internalType":"address"},{"name":"recipient","type":"address","internalType":"address"}],"outputs":[{"name":"","type":"bytes32","internalType":"bytes32"}],"stateMutability":"payable"},{"type":"function","name":"doObligationForRaw","inputs":[{"name":"data","type":"bytes","internalType":"bytes"},{"name":"expirationTime","type":"uint64","internalType":"uint64"},{"name":"payer","type":"address","internalType":"address"},{"name":"recipient","type":"address","internalType":"address"},{"name":"refUID","type":"bytes32","internalType":"bytes32"}],"outputs":[{"name":"uid_","type":"bytes32","internalType":"bytes32"}],"stateMutability":"payable"},{"type":"function","name":"doObligationRaw","inputs":[{"name":"data","type":"bytes","internalType":"bytes"},{"name":"expirationTime","type":"uint64","internalType":"uint64"},{"name":"refUID","type":"bytes32","internalType":"bytes32"}],"outputs":[{"name":"uid_","type":"bytes32","internalType":"bytes32"}],"stateMutability":"payable"},{"type":"function","name":"extractArbiterAndDemand","inputs":[{"name":"data","type":"bytes","internalType":"bytes"}],"outputs":[{"name":"arbiter","type":"address","internalType":"address"},{"name":"demand","type":"bytes","internalType":"bytes"}],"stateMutability":"pure"},{"type":"function","name":"getObligationData","inputs":[{"name":"uid","type":"bytes32","internalType":"bytes32"}],"outputs":[{"name":"","type":"tuple","internalType":"struct NativeTokenEscrowObligation.ObligationData","components":[{"name":"arbiter","type":"address","internalType":"address"},{"name":"demand","type":"bytes","internalType":"bytes"},{"name":"amount","type":"uint256","internalType":"uint256"}]}],"stateMutability":"view"},{"type":"function","name":"getSchema","inputs":[],"outputs":[{"name":"","type":"tuple","internalType":"struct SchemaRecord","components":[{"name":"uid","type":"bytes32","internalType":"bytes32"},{"name":"resolver","type":"address","internalType":"contract ISchemaResolver"},{"name":"revocable","type":"bool","internalType":"bool"},{"name":"schema","type":"string","internalType":"string"}]}],"stateMutability":"view"},{"type":"function","name":"isPayable","inputs":[],"outputs":[{"name":"","type":"bool","internalType":"bool"}],"stateMutability":"pure"},{"type":"function","name":"multiAttest","inputs":[{"name":"attestations","type":"tuple[]","internalType":"struct Attestation[]","components":[{"name":"uid","type":"bytes32","internalType":"bytes32"},{"name":"schema","type":"bytes32","internalType":"bytes32"},{"name":"time","type":"uint64","internalType":"uint64"},{"name":"expirationTime","type":"uint64","internalType":"uint64"},{"name":"revocationTime","type":"uint64","internalType":"uint64"},{"name":"refUID","type":"bytes32","internalType":"bytes32"},{"name":"recipient","type":"address","internalType":"address"},{"name":"attester","type":"address","internalType":"address"},{"name":"revocable","type":"bool","internalType":"bool"},{"name":"data","type":"bytes","internalType":"bytes"}]},{"name":"values","type":"uint256[]","internalType":"uint256[]"}],"outputs":[{"name":"","type":"bool","internalType":"bool"}],"stateMutability":"payable"},{"type":"function","name":"multiRevoke","inputs":[{"name":"attestations","type":"tuple[]","internalType":"struct Attestation[]","components":[{"name":"uid","type":"bytes32","internalType":"bytes32"},{"name":"schema","type":"bytes32","internalType":"bytes32"},{"name":"time","type":"uint64","internalType":"uint64"},{"name":"expirationTime","type":"uint64","internalType":"uint64"},{"name":"revocationTime","type":"uint64","internalType":"uint64"},{"name":"refUID","type":"bytes32","internalType":"bytes32"},{"name":"recipient","type":"address","internalType":"address"},{"name":"attester","type":"address","internalType":"address"},{"name":"revocable","type":"bool","internalType":"bool"},{"name":"data","type":"bytes","internalType":"bytes"}]},{"name":"values","type":"uint256[]","internalType":"uint256[]"}],"outputs":[{"name":"","type":"bool","internalType":"bool"}],"stateMutability":"payable"},{"type":"function","name":"reclaimExpired","inputs":[{"name":"uid","type":"bytes32","internalType":"bytes32"}],"outputs":[{"name":"","type":"bool","internalType":"bool"}],"stateMutability":"nonpayable"},{"type":"function","name":"revoke","inputs":[{"name":"attestation","type":"tuple","internalType":"struct Attestation","components":[{"name":"uid","type":"bytes32","internalType":"bytes32"},{"name":"schema","type":"bytes32","internalType":"bytes32"},{"name":"time","type":"uint64","internalType":"uint64"},{"name":"expirationTime","type":"uint64","internalType":"uint64"},{"name":"revocationTime","type":"uint64","internalType":"uint64"},{"name":"refUID","type":"bytes32","internalType":"bytes32"},{"name":"recipient","type":"address","internalType":"address"},{"name":"attester","type":"address","internalType":"address"},{"name":"revocable","type":"bool","internalType":"bool"},{"name":"data","type":"bytes","internalType":"bytes"}]}],"outputs":[{"name":"","type":"bool","internalType":"bool"}],"stateMutability":"payable"},{"type":"function","name":"version","inputs":[],"outputs":[{"name":"","type":"string","internalType":"string"}],"stateMutability":"view"},{"type":"event","name":"EscrowCollected","inputs":[{"name":"escrow","type":"bytes32","indexed":true,"internalType":"bytes32"},{"name":"fulfillment","type":"bytes32","indexed":true,"internalType":"bytes32"},{"name":"fulfiller","type":"address","indexed":true,"internalType":"address"}],"anonymous":false},{"type":"event","name":"EscrowMade","inputs":[{"name":"escrow","type":"bytes32","indexed":true,"internalType":"bytes32"},{"name":"buyer","type":"address","indexed":true,"internalType":"address"}],"anonymous":false},{"type":"error","name":"AccessDenied","inputs":[]},{"type":"error","name":"AttestationNotFound","inputs":[{"name":"attestationId","type":"bytes32","internalType":"bytes32"}]},{"type":"error","name":"AttestationRevoked","inputs":[]},{"type":"error","name":"DeadlineExpired","inputs":[]},{"type":"error","name":"InsufficientPayment","inputs":[{"name":"expected","type":"uint256","internalType":"uint256"},{"name":"received","type":"uint256","internalType":"uint256"}]},{"type":"error","name":"InsufficientValue","inputs":[]},{"type":"error","name":"InvalidEAS","inputs":[]},{"type":"error","name":"InvalidEscrowAttestation","inputs":[]},{"type":"error","name":"InvalidFulfillment","inputs":[]},{"type":"error","name":"InvalidLength","inputs":[]},{"type":"error","name":"InvalidSchema","inputs":[]},{"type":"error","name":"NativeTokenTransferFailed","inputs":[{"name":"to","type":"address","internalType":"address"},{"name":"amount","type":"uint256","internalType":"uint256"}]},{"type":"error","name":"NotFromThisAttester","inputs":[]},{"type":"error","name":"NotPayable","inputs":[]},{"type":"error","name":"RevocationFailed","inputs":[{"name":"attestationId","type":"bytes32","internalType":"bytes32"}]},{"type":"error","name":"UnauthorizedCall","inputs":[]}],"bytecode":{"object":"0x61016080604052346101e857604081611c8880380380916100208285610222565b8339810103126101e85780516001600160a01b038116918282036101e85760200151916001600160a01b0383168084036101e857604051606081016001600160401b0381118282101761020e57604052602d815260208101927f6164647265737320617262697465722c2062797465732064656d616e642c207584526c1a5b9d0c8d4d88185b5bdd5b9d609a1b60408301526001608052600360a0525f60c052156101ff576084948460209560e05261012052610100525f604051958680958194630c1af44f60e31b8352606060048401525180918160648501528484015e818101830184905230602483015260016044830152601f01601f191681010301925af19081156101f4575f916101be575b5061014052604051611a42908161024682396080518161090e015260a05181610939015260c05181610964015260e051816118d1015261010051816107900152610120518181816103aa015281816106690152818161113301526116b80152610140518181816103ea0152818161075e015281816108cc01528181611312015281816114a6015261160b0152f35b90506020813d6020116101ec575b816101d960209383610222565b810103126101e857515f610130565b5f80fd5b3d91506101cc565b6040513d5f823e3d90fd5b6341bc07ff60e11b5f5260045ffd5b634e487b7160e01b5f52604160045260245ffd5b601f909101601f19168101906001600160401b0382119082101761020e5760405256fe608080604052600436101561001c575b50361561001a575f80fd5b005b5f3560e01c9081631c8a87e1146109ee575080632c713cd9146109dd57806354fd4d50146108ef5780635bf2f20d146108b55780636b122fe01461071f5780637d2c2931146106315780638371ef59146105d357806388e5b2d914610586578063891d9ea8146105a557806391db0b7e146105865780639d76101d146104b7578063b3b902d414610471578063c6ec50701461036b578063c93844be146102af578063ce46e04614610295578063e49617e11461027a578063e60c35051461027a578063e6c9714d146101585763f0ffa185146100f9575f61000f565b60a0366003190112610154576004356001600160401b0381116101545761014c6101296020923690600401610cab565b610131610a76565b610139610aa0565b90610142610ab6565b926084359461156f565b604051908152f35b5f80fd5b34610154576060366003190112610154576004356001600160401b038111610154576101406003198236030112610154576040519061019682610b64565b80600401358252602481013560208301526101b360448201610a8c565b60408301526101c460648201610a8c565b60608301526101d560848201610a8c565b608083015260a481013560a08301526101f060c48201610acc565b60c083015261020160e48201610acc565b60e0830152610104810135801515810361015457610100830152610124810135906001600160401b03821161015457600461023f9236920101610c0d565b6101208201526024356001600160401b0381116101545760209161026a610270923690600401610c0d565b906114a4565b6040519015158152f35b602061027061028836610d0f565b6102906118cf565b611910565b34610154575f3660031901126101545760206040515f8152f35b34610154576020366003190112610154576004356001600160401b038111610154576102df903690600401610cab565b6102e7611485565b50810190602081830312610154578035906001600160401b038211610154570190606082820312610154576040519061031f82610b49565b61032883610acc565b82526020830135926001600160401b0384116101545761034f604092610367958301610c0d565b60208401520135604082015260405191829182610cd8565b0390f35b3461015457602036600319011261015457610384611485565b5061038d610e47565b506040516328c44a9960e21b815260048035908201525f816024817f00000000000000000000000000000000000000000000000000000000000000006001600160a01b03165afa908115610466575f91610444575b5060208101517f0000000000000000000000000000000000000000000000000000000000000000036104355761042961012061036792015160208082518301019101610fae565b60405191829182610cd8565b635527981560e11b5f5260045ffd5b61046091503d805f833e6104588183610b9b565b810190610ed3565b816103e2565b6040513d5f823e3d90fd5b6060366003190112610154576004356001600160401b0381116101545761014c6104a16020923690600401610cab565b6104a9610a76565b91604435923392339261156f565b6040366003190112610154576004356001600160401b0381116101545760606003198236030112610154576020610535916105086105166104f6610a76565b92604051928391600401868301610d43565b03601f198101835282610b9b565b60405163f0ffa18560e01b815293849283923391829160048601610dc1565b038134305af18015610466575f90610553575b602090604051908152f35b506020813d60201161057e575b8161056d60209383610b9b565b810103126101545760209051610548565b3d9150610560565b602061027061059436610c5b565b926105a09291926118cf565b61108d565b34610154576103676105bf6105b936610ae0565b90611109565b604051918291602083526020830190610af6565b34610154576020366003190112610154576004356001600160401b0381116101545761060661060b913690600401610c0d565b61101d565b604080516001600160a01b03909316835260208301819052829161036791830190610af6565b346101545760203660031901126101545760043561064d610e47565b506040516328c44a9960e21b8152600481018290525f816024817f00000000000000000000000000000000000000000000000000000000000000006001600160a01b03165afa5f9181610703575b506106b357506301fb6dd160e01b5f5260045260245ffd5b6001600160401b0360608201511642106106f45761012081015160c0909101516106e8916001600160a01b0390911690611984565b50602060405160018152f35b637bf6a16f60e01b5f5260045ffd5b6107189192503d805f833e6104588183610b9b565b908361069b565b34610154575f3660031901126101545760608060405161073e81610b1a565b5f81525f60208201525f604082015201526040516351753e3760e11b81527f000000000000000000000000000000000000000000000000000000000000000060048201525f8160248160018060a01b037f0000000000000000000000000000000000000000000000000000000000000000165afa8015610466575f90610805575b606090610367604051928392602084528051602085015260018060a01b0360208201511660408501526040810151151582850152015160808084015260a0830190610af6565b503d805f833e6108158183610b9b565b810190602081830312610154578051906001600160401b0382116101545701608081830312610154576040519061084b82610b1a565b8051825260208101516001600160a01b038116810361015457602083015261087560408201610e04565b60408301526060810151906001600160401b038211610154570182601f82011215610154576060928160206108ac93519101610e11565b828201526107bf565b34610154575f3660031901126101545760206040517f00000000000000000000000000000000000000000000000000000000000000008152f35b34610154575f3660031901126101545761036760206105bf60016109327f0000000000000000000000000000000000000000000000000000000000000000611762565b818461095d7f0000000000000000000000000000000000000000000000000000000000000000611762565b81806109887f0000000000000000000000000000000000000000000000000000000000000000611762565b9260405199878b985191829101848a015e870190601760f91b83830152805192839101602183015e010190601760f91b84830152805192839101600283015e01015f838201520301601f198101835282610b9b565b34610154576106e86105b936610ae0565b608036600319011261015457600435906001600160401b038211610154576060600319833603011261015457602090610a25610a76565b90610535610a31610aa0565b94610a5b83610a4d610a41610ab6565b93600401888301610d43565b03601f198101855284610b9b565b60405163f0ffa18560e01b8152958694859460048601610dc1565b602435906001600160401b038216820361015457565b35906001600160401b038216820361015457565b604435906001600160a01b038216820361015457565b606435906001600160a01b038216820361015457565b35906001600160a01b038216820361015457565b6040906003190112610154576004359060243590565b805180835260209291819084018484015e5f828201840152601f01601f1916010190565b608081019081106001600160401b03821117610b3557604052565b634e487b7160e01b5f52604160045260245ffd5b606081019081106001600160401b03821117610b3557604052565b61014081019081106001600160401b03821117610b3557604052565b604081019081106001600160401b03821117610b3557604052565b90601f801991011681019081106001600160401b03821117610b3557604052565b6001600160401b038111610b3557601f01601f191660200190565b929192610be382610bbc565b91610bf16040519384610b9b565b829481845281830111610154578281602093845f960137010152565b9080601f8301121561015457816020610c2893359101610bd7565b90565b9181601f84011215610154578235916001600160401b038311610154576020808501948460051b01011161015457565b6040600319820112610154576004356001600160401b0381116101545781610c8591600401610c2b565b92909291602435906001600160401b03821161015457610ca791600401610c2b565b9091565b9181601f84011215610154578235916001600160401b038311610154576020838186019501011161015457565b6020815260018060a01b03825116602082015260606040610d06602085015183838601526080850190610af6565b93015191015290565b602060031982011261015457600435906001600160401b038211610154576101409082900360031901126101545760040190565b602081526001600160a01b03610d5883610acc565b1660208201526020820135601e19833603018112156101545782016020813591016001600160401b0382116101545781360381136101545760a09382604092606084870152816080870152868601375f84840186015201356060830152601f01601f1916010190565b90935f936001600160401b03610de3608095989760a0865260a0860190610af6565b971660208401526001600160a01b0390811660408401521660608201520152565b5190811515820361015457565b929192610e1d82610bbc565b91610e2b6040519384610b9b565b829481845281830111610154578281602093845f96015e010152565b60405190610e5482610b64565b6060610120835f81525f60208201525f60408201525f838201525f60808201525f60a08201525f60c08201525f60e08201525f6101008201520152565b51906001600160401b038216820361015457565b51906001600160a01b038216820361015457565b9080601f83011215610154578151610c2892602001610e11565b602081830312610154578051906001600160401b0382116101545701610140818303126101545760405191610f0783610b64565b8151835260208201516020840152610f2160408301610e91565b6040840152610f3260608301610e91565b6060840152610f4360808301610e91565b608084015260a082015160a0840152610f5e60c08301610ea5565b60c0840152610f6f60e08301610ea5565b60e0840152610f816101008301610e04565b6101008401526101208201516001600160401b03811161015457610fa59201610eb9565b61012082015290565b602081830312610154578051906001600160401b0382116101545701906060828203126101545760405191610fe283610b49565b610feb81610ea5565b835260208101516001600160401b0381116101545760409261100e918301610eb9565b60208401520151604082015290565b6110309060208082518301019101610fae565b80516020909101516001600160a01b0390911691565b91908110156110565760051b0190565b634e487b7160e01b5f52603260045260245ffd5b91908110156110565760051b8101359061013e1981360301821215610154570190565b929091928183036110fa575f91345b8484106110ae57505050505050600190565b6110b9848388611046565b358181116110eb576110cf61029086888761106a565b156110e0576001910393019261109c565b505050505050505f90565b63044044a560e21b5f5260045ffd5b63251f56a160e21b5f5260045ffd5b915f611113610e47565b5061111c610e47565b506040516328c44a9960e21b8152600481018590527f00000000000000000000000000000000000000000000000000000000000000006001600160a01b0316905f81602481855afa5f9181611469575b5061118457856301fb6dd160e01b5f5260045260245ffd5b94919293946040516328c44a9960e21b81528660048201525f81602481865afa5f918161144d575b506111c457866301fb6dd160e01b5f5260045260245ffd5b959192939495926111d482611929565b1561143e576112b360206101208085019460c0886112c56111f5895161101d565b91909451916040519889978896879663e6c9714d60e01b885260606004890152805160648901528b81015160848901526001600160401b0360408201511660a48901526001600160401b0360608201511660c48901526001600160401b0360808201511660e489015260a0810151610104890152019e8f60018060a01b0390511661012488015260018060a01b0360e082015116610144880152610100810151151561016488015201516101406101848701526101a4860190610af6565b84810360031901602486015290610af6565b604483019190915203916001600160a01b03165afa908115610466575f91611404575b50156113f5576040516112fa81610b80565b8581525f60208201526040519061131082610b80565b7f0000000000000000000000000000000000000000000000000000000000000000825260208201908152823b156101545760645f92836020956040519687958694634692626760e01b86525160048601525180516024860152015160448401525af190816113e0575b506113925763614cf93960e01b85526004849052602485fd5b51825192949391927ff96e77bc177ae8e2ff25185e7c6d85f8ba97c8bdd9d46933aac70a7a33edf6c0916113cf916001600160a01b031690611984565b94516001600160a01b03169380a490565b6113ed9196505f90610b9b565b5f945f611379565b630ebe58ef60e11b5f5260045ffd5b90506020813d602011611436575b8161141f60209383610b9b565b810103126101545761143090610e04565b5f6112e8565b3d9150611412565b63629cd40b60e11b5f5260045ffd5b6114629192503d805f833e6104588183610b9b565b905f6111ac565b61147e9192503d805f833e6104588183610b9b565b905f61116c565b6040519061149282610b49565b5f604083828152606060208201520152565b7f0000000000000000000000000000000000000000000000000000000000000000602082015103611560576114d881611929565b1561155a576114f861012061150892015160208082518301019101610fae565b9160208082518301019101610fae565b6040820151604082015111159182611541575b8261152557505090565b6020919250810151818151910120910151602081519101201490565b805182516001600160a01b03908116911614925061151b565b50505f90565b635f9bd90760e11b5f5260045ffd5b9193959492506040611594611585368486610bd7565b60208082518301019101610fae565b015180341061174c5750906115aa913691610bd7565b906040519460c08601908682106001600160401b03831117610b35576001600160401b039160405260018060a01b03169384875216602086015260016040860152606085015260808401525f60a0840152602060405161160981610b80565b7f000000000000000000000000000000000000000000000000000000000000000081528181019485526040518095819263f17325e760e01b8352846004840152516024830152516040604483015260018060a01b0381511660648301526001600160401b03848201511660848301526040810151151560a4830152606081015160c483015260a06116aa608083015160c060e4860152610124850190610af6565b91015161010483015203815f7f00000000000000000000000000000000000000000000000000000000000000006001600160a01b03165af1928315610466575f93611718575b50827f8f7f2dbafd79125e808bf16a53d7fa4e17b8b6374ced76d946a45f94b7bf4d065f80a3565b9092506020813d602011611744575b8161173460209383610b9b565b810103126101545751915f6116f0565b3d9150611727565b63b99e2ab760e01b5f526004523460245260445ffd5b805f9172184f03e93ff9f4daa797ed6e38ed64bf6a1f0160401b8210156118ac575b806d04ee2d6d415b85acef8100000000600a921015611891575b662386f26fc1000081101561187d575b6305f5e10081101561186c575b61271081101561185d575b606481101561184f575b1015611844575b600a602160018401936117e985610bbc565b946117f76040519687610b9b565b808652611806601f1991610bbc565b013660208701378401015b5f1901916f181899199a1a9b1b9c1cb0b131b232b360811b8282061a835304801561183f57600a9091611811565b505090565b6001909101906117d7565b6064600291049301926117d0565b612710600491049301926117c6565b6305f5e100600891049301926117bb565b662386f26fc10000601091049301926117ae565b6d04ee2d6d415b85acef81000000006020910493019261179e565b506040915072184f03e93ff9f4daa797ed6e38ed64bf6a1f0160401b8104611784565b7f00000000000000000000000000000000000000000000000000000000000000006001600160a01b0316330361190157565b634ca8886760e01b5f5260045ffd5b60e0013560018060a01b03811680910361015457301490565b6001600160401b03606082015116801515908161197a575b5061196b57608001516001600160401b031661195c57600190565b637b6227e960e11b5f5260045ffd5b631ab7da6b60e01b5f5260045ffd5b905042115f611941565b61199960409160208082518301019101610fae565b9160018060a01b031691015f8080808451865af13d15611a07573d6119bd81610bbc565b906119cb6040519283610b9b565b81525f60203d92013e5b156119f05750506040516119ea602082610b9b565b5f815290565b51906338f0620160e21b5f5260045260245260445ffd5b6119d556fea26469706673582212205da7f7175bae028fb10cbad0620085dc931ba451e870172b7c143c3434cfc80e64736f6c634300081b0033","linkReferences":{}},"methodIdentifiers":{"ATTESTATION_SCHEMA()":"5bf2f20d","attest((bytes32,bytes32,uint64,uint64,uint64,bytes32,address,address,bool,bytes))":"e60c3505","checkObligation((bytes32,bytes32,uint64,uint64,uint64,bytes32,address,address,bool,bytes),bytes,bytes32)":"e6c9714d","collectEscrow(bytes32,bytes32)":"2c713cd9","collectEscrowRaw(bytes32,bytes32)":"891d9ea8","decodeObligationData(bytes)":"c93844be","doObligation((address,bytes,uint256),uint64)":"9d76101d","doObligationFor((address,bytes,uint256),uint64,address,address)":"1c8a87e1","doObligationForRaw(bytes,uint64,address,address,bytes32)":"f0ffa185","doObligationRaw(bytes,uint64,bytes32)":"b3b902d4","extractArbiterAndDemand(bytes)":"8371ef59","getObligationData(bytes32)":"c6ec5070","getSchema()":"6b122fe0","isPayable()":"ce46e046","multiAttest((bytes32,bytes32,uint64,uint64,uint64,bytes32,address,address,bool,bytes)[],uint256[])":"91db0b7e","multiRevoke((bytes32,bytes32,uint64,uint64,uint64,bytes32,address,address,bool,bytes)[],uint256[])":"88e5b2d9","reclaimExpired(bytes32)":"7d2c2931","revoke((bytes32,bytes32,uint64,uint64,uint64,bytes32,address,address,bool,bytes))":"e49617e1","version()":"54fd4d50"},"id":17}