{"abi":[{"type":"constructor","inputs":[{"name":"_eas","type":"address","internalType":"contract IEAS"},{"name":"_erc20Escrow","type":"address","internalType":"contract ERC20EscrowObligation"},{"name":"_erc20Payment","type":"address","internalType":"contract ERC20PaymentObligation"},{"name":"_erc721Escrow","type":"address","internalType":"contract ERC721EscrowObligation"},{"name":"_erc721Payment","type":"address","internalType":"contract ERC721PaymentObligation"},{"name":"_erc1155Escrow","type":"address","internalType":"contract ERC1155EscrowObligation"},{"name":"_erc1155Payment","type":"address","internalType":"contract ERC1155PaymentObligation"},{"name":"_bundleEscrow","type":"address","internalType":"contract TokenBundleEscrowObligation2"},{"name":"_bundlePayment","type":"address","internalType":"contract TokenBundlePaymentObligation2"},{"name":"_nativeEscrow","type":"address","internalType":"contract NativeTokenEscrowObligation"},{"name":"_nativePayment","type":"address","internalType":"contract NativeTokenPaymentObligation"}],"stateMutability":"nonpayable"},{"type":"receive","stateMutability":"payable"},{"type":"function","name":"buyBundleWithEth","inputs":[{"name":"bidAmount","type":"uint256","internalType":"uint256"},{"name":"askData","type":"tuple","internalType":"struct TokenBundlePaymentObligation2.ObligationData","components":[{"name":"nativeAmount","type":"uint256","internalType":"uint256"},{"name":"erc20Tokens","type":"address[]","internalType":"address[]"},{"name":"erc20Amounts","type":"uint256[]","internalType":"uint256[]"},{"name":"erc721Tokens","type":"address[]","internalType":"address[]"},{"name":"erc721TokenIds","type":"uint256[]","internalType":"uint256[]"},{"name":"erc1155Tokens","type":"address[]","internalType":"address[]"},{"name":"erc1155TokenIds","type":"uint256[]","internalType":"uint256[]"},{"name":"erc1155Amounts","type":"uint256[]","internalType":"uint256[]"},{"name":"payee","type":"address","internalType":"address"}]},{"name":"expiration","type":"uint64","internalType":"uint64"}],"outputs":[{"name":"","type":"bytes32","internalType":"bytes32"}],"stateMutability":"payable"},{"type":"function","name":"buyErc1155WithEth","inputs":[{"name":"bidAmount","type":"uint256","internalType":"uint256"},{"name":"askToken","type":"address","internalType":"address"},{"name":"askTokenId","type":"uint256","internalType":"uint256"},{"name":"askAmount","type":"uint256","internalType":"uint256"},{"name":"expiration","type":"uint64","internalType":"uint64"}],"outputs":[{"name":"","type":"bytes32","internalType":"bytes32"}],"stateMutability":"payable"},{"type":"function","name":"buyErc20WithEth","inputs":[{"name":"bidAmount","type":"uint256","internalType":"uint256"},{"name":"askToken","type":"address","internalType":"address"},{"name":"askAmount","type":"uint256","internalType":"uint256"},{"name":"expiration","type":"uint64","internalType":"uint64"}],"outputs":[{"name":"","type":"bytes32","internalType":"bytes32"}],"stateMutability":"payable"},{"type":"function","name":"buyErc721WithEth","inputs":[{"name":"bidAmount","type":"uint256","internalType":"uint256"},{"name":"askToken","type":"address","internalType":"address"},{"name":"askTokenId","type":"uint256","internalType":"uint256"},{"name":"expiration","type":"uint64","internalType":"uint64"}],"outputs":[{"name":"","type":"bytes32","internalType":"bytes32"}],"stateMutability":"payable"},{"type":"function","name":"buyEthForEth","inputs":[{"name":"bidAmount","type":"uint256","internalType":"uint256"},{"name":"askAmount","type":"uint256","internalType":"uint256"},{"name":"expiration","type":"uint64","internalType":"uint64"}],"outputs":[{"name":"","type":"bytes32","internalType":"bytes32"}],"stateMutability":"payable"},{"type":"function","name":"payEthForBundle","inputs":[{"name":"buyAttestation","type":"bytes32","internalType":"bytes32"}],"outputs":[{"name":"","type":"bytes32","internalType":"bytes32"}],"stateMutability":"payable"},{"type":"function","name":"payEthForErc1155","inputs":[{"name":"buyAttestation","type":"bytes32","internalType":"bytes32"}],"outputs":[{"name":"","type":"bytes32","internalType":"bytes32"}],"stateMutability":"payable"},{"type":"function","name":"payEthForErc20","inputs":[{"name":"buyAttestation","type":"bytes32","internalType":"bytes32"}],"outputs":[{"name":"","type":"bytes32","internalType":"bytes32"}],"stateMutability":"payable"},{"type":"function","name":"payEthForErc721","inputs":[{"name":"buyAttestation","type":"bytes32","internalType":"bytes32"}],"outputs":[{"name":"","type":"bytes32","internalType":"bytes32"}],"stateMutability":"payable"},{"type":"function","name":"payEthForEth","inputs":[{"name":"buyAttestation","type":"bytes32","internalType":"bytes32"}],"outputs":[{"name":"","type":"bytes32","internalType":"bytes32"}],"stateMutability":"payable"},{"type":"error","name":"AttestationNotFound","inputs":[{"name":"attestationId","type":"bytes32","internalType":"bytes32"}]},{"type":"error","name":"CouldntCollectEscrow","inputs":[]}],"bytecode":{"object":"0x6080346101ff57601f61164338819003918201601f19168301916001600160401b0383118484101761020357808492610160946040528339810103126101ff5780516001600160a01b03811691908290036101ff5760208101516001600160a01b038116908190036101ff5760408201516001600160a01b038116908190036101ff5760608301516001600160a01b038116908190036101ff5760808401516001600160a01b038116908190036101ff5760a08501516001600160a01b03811691908290036101ff5760c08601516001600160a01b03811693908490036101ff5760e08701516001600160a01b03811695908690036101ff576101008801516001600160a01b03811697908890036101ff576101208901516001600160a01b03811699908a90036101ff5761014001516001600160a01b0381169a908b90036101ff5760018060a01b03195f5416175f5560018060a01b0319600154161760015560018060a01b0319600254161760025560018060a01b0319600354161760035560018060a01b0319600454161760045560018060a01b0319600554161760055560018060a01b0319600654161760065560018060a01b0319600754161760075560018060a01b0319600854161760085560018060a01b0319600954161760095560018060a01b0319600a541617600a5560405161142b90816102188239f35b5f80fd5b634e487b7160e01b5f52604160045260245ffdfe608080604052600436101561001c575b50361561001a575f80fd5b005b5f3560e01c90816314e1f2af14610bf157508063253d181d146109e95780635747e3e2146107f357806381e3b3d0146107bf5780639dfb380b14610733578063a4511639146105e2578063add4fc3d1461046d578063b9362afe146103f3578063ceaa0526146101de5763f36b979c14610096575f61000f565b60a03660031901126101c7576004356024356001600160a01b038116908190036101c7576084356001600160401b03811681036101c757600954600654604051610180956020956001600160a01b03948516949093169290916100f881610f86565b8181528681019060443582526060604082019160643583520191338352604051938985015251604084015251606083015260018060a01b0390511660808201526080815261014760a082610fa1565b6040519261015484610f50565b835285830152806040830152604051809681958294631c8a87e160e01b845233913391600486016112f9565b03925af180156101d3575f9061019c575b602090604051908152f35b506020813d6020116101cb575b816101b660209383610fa1565b810103126101c75760209051610191565b5f80fd5b3d91506101a9565b6040513d5f823e3d90fd5b60203660031901126101c75760043560245f60018060a01b03815416604051928380926328c44a9960e21b82528660048301525afa80156101d357610120915f916103d1575b50015180518101906020818303126101c7576020810151906001600160401b0382116101c757016060818303126101c75760405161026181610f50565b61026d60208301610fd6565b81526040820151926001600160401b0384116101c757606061029c6102b7956020806040950191870101610ff7565b93846020850152015191015260208082518301019101611200565b9060206102eb60018060a01b03600a54168451946040519586809481936309c2f70b60e11b8352339033906004850161122f565b03925af19182156101d3575f9261039c575b50600954604051632c713cd960e01b8152600481019290925260248201839052602090829060449082905f906001600160a01b03165af19081156101d3575f91610362575b501561035357602090604051908152f35b63a97a981d60e01b5f5260045ffd5b90506020813d602011610394575b8161037d60209383610fa1565b810103126101c75761038e90610fea565b82610342565b3d9150610370565b9091506020813d6020116103c9575b816103b860209383610fa1565b810103126101c757519060206102fd565b3d91506103ab565b6103ed91503d805f833e6103e58183610fa1565b81019061104c565b83610224565b60603660031901126101c757610180602060043561040f610ecc565b600954600a5460405192936001600160a01b0392831693929091169161043481610f6b565b6024358152338682015260405181518188019081526020928301516001600160a01b031692019190915260408152610147606082610fa1565b60203660031901126101c75760043560245f60018060a01b03815416604051928380926328c44a9960e21b82528660048301525afa9081156101d3575f916105c8575b508051156105b55760206104d46101206104e5930151828082518301019101611375565b015160208082518301019101611200565b90602061051960018060a01b03600a54168451946040519586809481936309c2f70b60e11b8352339033906004850161122f565b03925af19182156101d3575f92610580575b50600354604051632c713cd960e01b8152600481019290925260248201839052602090829060449082905f906001600160a01b03165af19081156101d3575f9161036257501561035357602090604051908152f35b9091506020813d6020116105ad575b8161059c60209383610fa1565b810103126101c7575190602061052b565b3d915061058f565b506301fb6dd160e01b5f5260045260245ffd5b6105dc91503d805f833e6103e58183610fa1565b826104b0565b60203660031901126101c75760043560245f60018060a01b03815416604051928380926328c44a9960e21b82528660048301525afa9081156101d3575f91610719575b508051156105b55760206104d4610120610649930151828082518301019101611375565b90602061067d60018060a01b03600a54168451946040519586809481936309c2f70b60e11b8352339033906004850161122f565b03925af19182156101d3575f926106e4575b50600154604051632c713cd960e01b8152600481019290925260248201839052602090829060449082905f906001600160a01b03165af19081156101d3575f9161036257501561035357602090604051908152f35b9091506020813d602011610711575b8161070060209383610fa1565b810103126101c7575190602061068f565b3d91506106f3565b61072d91503d805f833e6103e58183610fa1565b82610625565b610180602061074136610ef6565b9260018060a01b03600954169260018060a01b0360025416926040519161076783610f50565b60018060a01b03168252868201523360408201526107b0604051918783019060409060018060a01b038151168352602081015160208401528160018060a01b0391015116910152565b60608152610147608082610fa1565b61018060206107cd36610ef6565b9260018060a01b03600954169260018060a01b0360045416926040519161076783610f50565b60603660031901126101c7576004356024356001600160401b0381116101c757806004019161012060031983360301126101c75761082f610ecc565b90600160a01b600190036009541692600160a01b6001900360085416946040519182916020830160209052803560408401526024820161086f9082611262565b60608501610120905261016085019061088792611296565b6108946044840183611262565b858303603f190160808701526108aa92916112d5565b6108b76064840183611262565b858303603f190160a08701526108cd9291611296565b6108da6084840183611262565b858303603f190160c08701526108f092916112d5565b6108fd60a4840183611262565b858303603f190160e08701526109139291611296565b61092060c4840183611262565b858303603f190161010087015261093792916112d5565b9060e4830161094591611262565b848303603f190161012086015261095c92916112d5565b906001600160a01b03906109739061010401610ee2565b1661014083015203601f198101825261098c9082610fa1565b6040519461099986610f50565b855260208501528060408501526040518080958194631c8a87e160e01b83523390339060048501936109ca946112f9565b03915a94602095f180156101d3575f9061019c57602090604051908152f35b60203660031901126101c75760043560245f60018060a01b03815416604051928380926328c44a9960e21b82528660048301525afa9081156101d3575f91610bd7575b508051156105b557610120015180518101906020818303126101c7576020810151906001600160401b0382116101c7570160a0818303126101c75760405160a081018181106001600160401b03821117610bc357604052610a8f60208301610fd6565b81526040820151926001600160401b0384116101c75760a0610abe610af3956020806080950191870101610ff7565b93846020850152610ad160608201610fd6565b6040850152828101516060850152015191015260208082518301019101611200565b906020610b2760018060a01b03600a54168451946040519586809481936309c2f70b60e11b8352339033906004850161122f565b03925af19182156101d3575f92610b8e575b50600554604051632c713cd960e01b8152600481019290925260248201839052602090829060449082905f906001600160a01b03165af19081156101d3575f9161036257501561035357602090604051908152f35b9091506020813d602011610bbb575b81610baa60209383610fa1565b810103126101c75751906020610b39565b3d9150610b9d565b634e487b7160e01b5f52604160045260245ffd5b610beb91503d805f833e6103e58183610fa1565b82610a2c565b60203660031901126101c757600435905f8160248160018060a01b038454166328c44a9960e21b82528660048301525afa80156101d357610120915f91610eb2575b5001518051810160208101916020818303126101c7576020810151906001600160401b0382116101c757019061014090829003126101c757604051610c7781610f34565b610c8360208301610fd6565b815260408201516001600160401b0381116101c757836020610ca792850101610ff7565b91602082019283526060810151604083015260808101516001600160401b0381116101c757846020610cdb9284010161113e565b606083015260a08101516001600160401b0381116101c757846020610d02928401016111a3565b608083015260c08101516001600160401b0381116101c757846020610d299284010161113e565b60a083015260e08101516001600160401b0381116101c757846020610d50928401016111a3565b60c08301526101008101516001600160401b0381116101c757846020610d789284010161113e565b60e08301526101208101516001600160401b0381116101c757846020610da0928401016111a3565b6101008301526101408101516001600160401b0381116101c757610de2946020610dcf926101209401016111a3565b9101525160208082518301019101611200565b906020610e1660018060a01b03600a54168451946040519586809481936309c2f70b60e11b8352339033906004850161122f565b03925af19182156101d3575f92610e7d575b50600754604051632c713cd960e01b8152600481019290925260248201839052602090829060449082905f906001600160a01b03165af19081156101d3575f9161036257501561035357602090604051908152f35b9091506020813d602011610eaa575b81610e9960209383610fa1565b810103126101c75751906020610e28565b3d9150610e8c565b610ec691503d805f833e6103e58183610fa1565b83610c33565b604435906001600160401b03821682036101c757565b35906001600160a01b03821682036101c757565b60809060031901126101c757600435906024356001600160a01b03811681036101c75790604435906064356001600160401b03811681036101c75790565b61014081019081106001600160401b03821117610bc357604052565b606081019081106001600160401b03821117610bc357604052565b604081019081106001600160401b03821117610bc357604052565b608081019081106001600160401b03821117610bc357604052565b90601f801991011681019081106001600160401b03821117610bc357604052565b51906001600160401b03821682036101c757565b51906001600160a01b03821682036101c757565b519081151582036101c757565b81601f820112156101c7578051906001600160401b038211610bc3576040519261102b601f8401601f191660200185610fa1565b828452602083830101116101c757815f9260208093018386015e8301015290565b6020818303126101c7578051906001600160401b0382116101c75701610140818303126101c7576040519161108083610f34565b815183526020820151602084015261109a60408301610fc2565b60408401526110ab60608301610fc2565b60608401526110bc60808301610fc2565b608084015260a082015160a08401526110d760c08301610fd6565b60c08401526110e860e08301610fd6565b60e08401526110fa6101008301610fea565b6101008401526101208201516001600160401b0381116101c75761111e9201610ff7565b61012082015290565b6001600160401b038111610bc35760051b60200190565b9080601f830112156101c757815161115581611127565b926111636040519485610fa1565b81845260208085019260051b8201019283116101c757602001905b82821061118b5750505090565b6020809161119884610fd6565b81520191019061117e565b9080601f830112156101c75781516111ba81611127565b926111c86040519485610fa1565b81845260208085019260051b8201019283116101c757602001905b8282106111f05750505090565b81518152602091820191016111e3565b908160409103126101c75761122760206040519261121d84610f6b565b8051845201610fd6565b602082015290565b815181526020918201516001600160a01b0390811692820192909252918116604083015291909116606082015260800190565b9035601e19823603018112156101c75701602081359101916001600160401b0382116101c7578160051b360383136101c757565b916020908281520191905f5b8181106112af5750505090565b909192602080600192838060a01b036112c788610ee2565b1681520194019291016112a2565b81835290916001600160fb1b0383116101c75760209260051b809284830137010190565b926001600160401b03610100602060406060969998956080895260018060a01b0381511660808a0152828101518860a08b015280519384918260e08d015201858b015e5f84848b010152015160c0880152601f80199101168601019616602085015260018060a01b0316604084015260018060a01b0316910152565b6020818303126101c7578051906001600160401b0382116101c75701906080828203126101c757604051916113a983610f86565b6113b281610fd6565b835260208101516001600160401b0381116101c7576060926113d5918301610ff7565b60208401526113e660408201610fd6565b6040840152015160608201529056fea26469706673582212209dfa4018fc35c6369378e9f6467a0a9e7306877e31bfee8c70073e96a9997d0f64736f6c634300081b0033","linkReferences":{}},"methodIdentifiers":{"buyBundleWithEth(uint256,(uint256,address[],uint256[],address[],uint256[],address[],uint256[],uint256[],address),uint64)":"5747e3e2","buyErc1155WithEth(uint256,address,uint256,uint256,uint64)":"f36b979c","buyErc20WithEth(uint256,address,uint256,uint64)":"9dfb380b","buyErc721WithEth(uint256,address,uint256,uint64)":"81e3b3d0","buyEthForEth(uint256,uint256,uint64)":"b9362afe","payEthForBundle(bytes32)":"14e1f2af","payEthForErc1155(bytes32)":"253d181d","payEthForErc20(bytes32)":"a4511639","payEthForErc721(bytes32)":"add4fc3d","payEthForEth(bytes32)":"ceaa0526"},"id":34}