{"abi":[{"type":"constructor","inputs":[{"name":"_eas","type":"address","internalType":"contract IEAS"},{"name":"_schemaRegistry","type":"address","internalType":"contract ISchemaRegistry"}],"stateMutability":"nonpayable"},{"type":"receive","stateMutability":"payable"},{"type":"function","name":"ATTESTATION_SCHEMA","inputs":[],"outputs":[{"name":"","type":"bytes32","internalType":"bytes32"}],"stateMutability":"view"},{"type":"function","name":"attest","inputs":[{"name":"attestation","type":"tuple","internalType":"struct Attestation","components":[{"name":"uid","type":"bytes32","internalType":"bytes32"},{"name":"schema","type":"bytes32","internalType":"bytes32"},{"name":"time","type":"uint64","internalType":"uint64"},{"name":"expirationTime","type":"uint64","internalType":"uint64"},{"name":"revocationTime","type":"uint64","internalType":"uint64"},{"name":"refUID","type":"bytes32","internalType":"bytes32"},{"name":"recipient","type":"address","internalType":"address"},{"name":"attester","type":"address","internalType":"address"},{"name":"revocable","type":"bool","internalType":"bool"},{"name":"data","type":"bytes","internalType":"bytes"}]}],"outputs":[{"name":"","type":"bool","internalType":"bool"}],"stateMutability":"payable"},{"type":"function","name":"checkObligation","inputs":[{"name":"obligation","type":"tuple","internalType":"struct Attestation","components":[{"name":"uid","type":"bytes32","internalType":"bytes32"},{"name":"schema","type":"bytes32","internalType":"bytes32"},{"name":"time","type":"uint64","internalType":"uint64"},{"name":"expirationTime","type":"uint64","internalType":"uint64"},{"name":"revocationTime","type":"uint64","internalType":"uint64"},{"name":"refUID","type":"bytes32","internalType":"bytes32"},{"name":"recipient","type":"address","internalType":"address"},{"name":"attester","type":"address","internalType":"address"},{"name":"revocable","type":"bool","internalType":"bool"},{"name":"data","type":"bytes","internalType":"bytes"}]},{"name":"demand","type":"bytes","internalType":"bytes"},{"name":"","type":"bytes32","internalType":"bytes32"}],"outputs":[{"name":"","type":"bool","internalType":"bool"}],"stateMutability":"view"},{"type":"function","name":"collectEscrow","inputs":[{"name":"escrow","type":"bytes32","internalType":"bytes32"},{"name":"fulfillment","type":"bytes32","internalType":"bytes32"}],"outputs":[{"name":"","type":"bool","internalType":"bool"}],"stateMutability":"nonpayable"},{"type":"function","name":"collectEscrowRaw","inputs":[{"name":"_escrow","type":"bytes32","internalType":"bytes32"},{"name":"_fulfillment","type":"bytes32","internalType":"bytes32"}],"outputs":[{"name":"","type":"bytes","internalType":"bytes"}],"stateMutability":"nonpayable"},{"type":"function","name":"decodeObligationData","inputs":[{"name":"data","type":"bytes","internalType":"bytes"}],"outputs":[{"name":"","type":"tuple","internalType":"struct ERC1155EscrowObligation.ObligationData","components":[{"name":"arbiter","type":"address","internalType":"address"},{"name":"demand","type":"bytes","internalType":"bytes"},{"name":"token","type":"address","internalType":"address"},{"name":"tokenId","type":"uint256","internalType":"uint256"},{"name":"amount","type":"uint256","internalType":"uint256"}]}],"stateMutability":"pure"},{"type":"function","name":"doObligation","inputs":[{"name":"data","type":"tuple","internalType":"struct ERC1155EscrowObligation.ObligationData","components":[{"name":"arbiter","type":"address","internalType":"address"},{"name":"demand","type":"bytes","internalType":"bytes"},{"name":"token","type":"address","internalType":"address"},{"name":"tokenId","type":"uint256","internalType":"uint256"},{"name":"amount","type":"uint256","internalType":"uint256"}]},{"name":"expirationTime","type":"uint64","internalType":"uint64"}],"outputs":[{"name":"","type":"bytes32","internalType":"bytes32"}],"stateMutability":"nonpayable"},{"type":"function","name":"doObligationFor","inputs":[{"name":"data","type":"tuple","internalType":"struct ERC1155EscrowObligation.ObligationData","components":[{"name":"arbiter","type":"address","internalType":"address"},{"name":"demand","type":"bytes","internalType":"bytes"},{"name":"token","type":"address","internalType":"address"},{"name":"tokenId","type":"uint256","internalType":"uint256"},{"name":"amount","type":"uint256","internalType":"uint256"}]},{"name":"expirationTime","type":"uint64","internalType":"uint64"},{"name":"payer","type":"address","internalType":"address"},{"name":"recipient","type":"address","internalType":"address"}],"outputs":[{"name":"","type":"bytes32","internalType":"bytes32"}],"stateMutability":"nonpayable"},{"type":"function","name":"doObligationForRaw","inputs":[{"name":"data","type":"bytes","internalType":"bytes"},{"name":"expirationTime","type":"uint64","internalType":"uint64"},{"name":"payer","type":"address","internalType":"address"},{"name":"recipient","type":"address","internalType":"address"},{"name":"refUID","type":"bytes32","internalType":"bytes32"}],"outputs":[{"name":"uid_","type":"bytes32","internalType":"bytes32"}],"stateMutability":"payable"},{"type":"function","name":"doObligationRaw","inputs":[{"name":"data","type":"bytes","internalType":"bytes"},{"name":"expirationTime","type":"uint64","internalType":"uint64"},{"name":"refUID","type":"bytes32","internalType":"bytes32"}],"outputs":[{"name":"uid_","type":"bytes32","internalType":"bytes32"}],"stateMutability":"payable"},{"type":"function","name":"extractArbiterAndDemand","inputs":[{"name":"data","type":"bytes","internalType":"bytes"}],"outputs":[{"name":"arbiter","type":"address","internalType":"address"},{"name":"demand","type":"bytes","internalType":"bytes"}],"stateMutability":"pure"},{"type":"function","name":"getObligationData","inputs":[{"name":"uid","type":"bytes32","internalType":"bytes32"}],"outputs":[{"name":"","type":"tuple","internalType":"struct ERC1155EscrowObligation.ObligationData","components":[{"name":"arbiter","type":"address","internalType":"address"},{"name":"demand","type":"bytes","internalType":"bytes"},{"name":"token","type":"address","internalType":"address"},{"name":"tokenId","type":"uint256","internalType":"uint256"},{"name":"amount","type":"uint256","internalType":"uint256"}]}],"stateMutability":"view"},{"type":"function","name":"getSchema","inputs":[],"outputs":[{"name":"","type":"tuple","internalType":"struct SchemaRecord","components":[{"name":"uid","type":"bytes32","internalType":"bytes32"},{"name":"resolver","type":"address","internalType":"contract ISchemaResolver"},{"name":"revocable","type":"bool","internalType":"bool"},{"name":"schema","type":"string","internalType":"string"}]}],"stateMutability":"view"},{"type":"function","name":"isPayable","inputs":[],"outputs":[{"name":"","type":"bool","internalType":"bool"}],"stateMutability":"pure"},{"type":"function","name":"multiAttest","inputs":[{"name":"attestations","type":"tuple[]","internalType":"struct Attestation[]","components":[{"name":"uid","type":"bytes32","internalType":"bytes32"},{"name":"schema","type":"bytes32","internalType":"bytes32"},{"name":"time","type":"uint64","internalType":"uint64"},{"name":"expirationTime","type":"uint64","internalType":"uint64"},{"name":"revocationTime","type":"uint64","internalType":"uint64"},{"name":"refUID","type":"bytes32","internalType":"bytes32"},{"name":"recipient","type":"address","internalType":"address"},{"name":"attester","type":"address","internalType":"address"},{"name":"revocable","type":"bool","internalType":"bool"},{"name":"data","type":"bytes","internalType":"bytes"}]},{"name":"values","type":"uint256[]","internalType":"uint256[]"}],"outputs":[{"name":"","type":"bool","internalType":"bool"}],"stateMutability":"payable"},{"type":"function","name":"multiRevoke","inputs":[{"name":"attestations","type":"tuple[]","internalType":"struct Attestation[]","components":[{"name":"uid","type":"bytes32","internalType":"bytes32"},{"name":"schema","type":"bytes32","internalType":"bytes32"},{"name":"time","type":"uint64","internalType":"uint64"},{"name":"expirationTime","type":"uint64","internalType":"uint64"},{"name":"revocationTime","type":"uint64","internalType":"uint64"},{"name":"refUID","type":"bytes32","internalType":"bytes32"},{"name":"recipient","type":"address","internalType":"address"},{"name":"attester","type":"address","internalType":"address"},{"name":"revocable","type":"bool","internalType":"bool"},{"name":"data","type":"bytes","internalType":"bytes"}]},{"name":"values","type":"uint256[]","internalType":"uint256[]"}],"outputs":[{"name":"","type":"bool","internalType":"bool"}],"stateMutability":"payable"},{"type":"function","name":"onERC1155BatchReceived","inputs":[{"name":"","type":"address","internalType":"address"},{"name":"","type":"address","internalType":"address"},{"name":"","type":"uint256[]","internalType":"uint256[]"},{"name":"","type":"uint256[]","internalType":"uint256[]"},{"name":"","type":"bytes","internalType":"bytes"}],"outputs":[{"name":"","type":"bytes4","internalType":"bytes4"}],"stateMutability":"nonpayable"},{"type":"function","name":"onERC1155Received","inputs":[{"name":"","type":"address","internalType":"address"},{"name":"","type":"address","internalType":"address"},{"name":"","type":"uint256","internalType":"uint256"},{"name":"","type":"uint256","internalType":"uint256"},{"name":"","type":"bytes","internalType":"bytes"}],"outputs":[{"name":"","type":"bytes4","internalType":"bytes4"}],"stateMutability":"nonpayable"},{"type":"function","name":"reclaimExpired","inputs":[{"name":"uid","type":"bytes32","internalType":"bytes32"}],"outputs":[{"name":"","type":"bool","internalType":"bool"}],"stateMutability":"nonpayable"},{"type":"function","name":"revoke","inputs":[{"name":"attestation","type":"tuple","internalType":"struct Attestation","components":[{"name":"uid","type":"bytes32","internalType":"bytes32"},{"name":"schema","type":"bytes32","internalType":"bytes32"},{"name":"time","type":"uint64","internalType":"uint64"},{"name":"expirationTime","type":"uint64","internalType":"uint64"},{"name":"revocationTime","type":"uint64","internalType":"uint64"},{"name":"refUID","type":"bytes32","internalType":"bytes32"},{"name":"recipient","type":"address","internalType":"address"},{"name":"attester","type":"address","internalType":"address"},{"name":"revocable","type":"bool","internalType":"bool"},{"name":"data","type":"bytes","internalType":"bytes"}]}],"outputs":[{"name":"","type":"bool","internalType":"bool"}],"stateMutability":"payable"},{"type":"function","name":"supportsInterface","inputs":[{"name":"interfaceId","type":"bytes4","internalType":"bytes4"}],"outputs":[{"name":"","type":"bool","internalType":"bool"}],"stateMutability":"view"},{"type":"function","name":"version","inputs":[],"outputs":[{"name":"","type":"string","internalType":"string"}],"stateMutability":"view"},{"type":"event","name":"EscrowCollected","inputs":[{"name":"escrow","type":"bytes32","indexed":true,"internalType":"bytes32"},{"name":"fulfillment","type":"bytes32","indexed":true,"internalType":"bytes32"},{"name":"fulfiller","type":"address","indexed":true,"internalType":"address"}],"anonymous":false},{"type":"event","name":"EscrowMade","inputs":[{"name":"escrow","type":"bytes32","indexed":true,"internalType":"bytes32"},{"name":"buyer","type":"address","indexed":true,"internalType":"address"}],"anonymous":false},{"type":"error","name":"AccessDenied","inputs":[]},{"type":"error","name":"AttestationNotFound","inputs":[{"name":"attestationId","type":"bytes32","internalType":"bytes32"}]},{"type":"error","name":"AttestationRevoked","inputs":[]},{"type":"error","name":"DeadlineExpired","inputs":[]},{"type":"error","name":"ERC1155TransferFailed","inputs":[{"name":"token","type":"address","internalType":"address"},{"name":"from","type":"address","internalType":"address"},{"name":"to","type":"address","internalType":"address"},{"name":"tokenId","type":"uint256","internalType":"uint256"},{"name":"amount","type":"uint256","internalType":"uint256"}]},{"type":"error","name":"InsufficientValue","inputs":[]},{"type":"error","name":"InvalidEAS","inputs":[]},{"type":"error","name":"InvalidEscrowAttestation","inputs":[]},{"type":"error","name":"InvalidFulfillment","inputs":[]},{"type":"error","name":"InvalidLength","inputs":[]},{"type":"error","name":"InvalidSchema","inputs":[]},{"type":"error","name":"NotFromThisAttester","inputs":[]},{"type":"error","name":"NotPayable","inputs":[]},{"type":"error","name":"RevocationFailed","inputs":[{"name":"attestationId","type":"bytes32","internalType":"bytes32"}]},{"type":"error","name":"UnauthorizedCall","inputs":[]}],"bytecode":{"object":"0x610160806040523461020e576040816120b480380380916100208285610248565b83398101031261020e5780516001600160a01b0381169182820361020e5760200151916001600160a01b03831680840361020e57604051608081016001600160401b0381118282101761023457604052604d815260208101927f6164647265737320617262697465722c2062797465732064656d616e642c206184527f64647265737320746f6b656e2c2075696e7432353620746f6b656e49642c207560408301526c1a5b9d0c8d4d88185b5bdd5b9d609a1b60608301526001608052600360a0525f60c05215610225576084948460209560e05261012052610100525f604051958680958194630c1af44f60e31b8352606060048401525180918160648501528484015e818101830184905230602483015260016044830152601f01601f191681010301925af190811561021a575f916101e4575b5061014052604051611e48908161026c823960805181610a46015260a05181610a71015260c05181610a9c015260e05181611c5a015261010051816108c8015261012051818181610527015281816107a1015281816113930152611a250152610140518181816105670152818161089601528181610a04015281816115720152818161171201526119780152f35b90506020813d602011610212575b816101ff60209383610248565b8101031261020e57515f610156565b5f80fd5b3d91506101f2565b6040513d5f823e3d90fd5b6341bc07ff60e11b5f5260045ffd5b634e487b7160e01b5f52604160045260245ffd5b601f909101601f19168101906001600160401b038211908210176102345760405256fe6080806040526004361015610029575b50361561001a575f80fd5b631574f9f360e01b5f5260045ffd5b5f3560e01c90816301ffc9a714610bb5575080632c713cd914610ba45780633dc9f35014610b1557806354fd4d5014610a275780635bf2f20d146109ed5780636b122fe0146108575780637d2c2931146107695780638371ef591461070b57806388e5b2d9146106be578063891d9ea8146106dd57806391db0b7e146106be578063b3b902d414610678578063bc197c81146105e3578063c6ec5070146104e8578063c93844be14610411578063ce46e046146103f7578063cecf1aff14610318578063e49617e1146102fd578063e60c3505146102fd578063e6c9714d146101db578063f0ffa185146101805763f23a6e6114610127575f61000f565b3461017c5760a036600319011261017c57610140610c74565b50610149610c8a565b506084356001600160401b03811161017c57610169903690600401610dcb565b5060405163f23a6e6160e01b8152602090f35b5f80fd5b60a036600319011261017c576004356001600160401b03811161017c576101d36101b06020923690600401610e69565b6101b8610c1e565b6101c0610c48565b906101c9610c5e565b926084359461181a565b604051908152f35b3461017c57606036600319011261017c576004356001600160401b03811161017c57610140600319823603011261017c576040519061021982610d22565b806004013582526024810135602083015261023660448201610c34565b604083015261024760648201610c34565b606083015261025860848201610c34565b608083015260a481013560a083015261027360c48201610ca0565b60c083015261028460e48201610ca0565b60e0830152610104810135801515810361017c57610100830152610124810135906001600160401b03821161017c5760046102c29236920101610dcb565b6101208201526024356001600160401b03811161017c576020916102ed6102f3923690600401610dcb565b90611710565b6040519015158152f35b60206102f361030b36610f4f565b610313611c58565b611c99565b3461017c57604036600319011261017c576004356001600160401b03811161017c5760a0600319823603011261017c57602061039b9161036e61037c61035c610c1e565b92604051928391600401868301610f83565b03601f198101835282610d59565b60405163f0ffa18560e01b815293849283923391829160048601611025565b03815f305af180156103ec575f906103b9575b602090604051908152f35b506020813d6020116103e4575b816103d360209383610d59565b8101031261017c57602090516103ae565b3d91506103c6565b6040513d5f823e3d90fd5b3461017c575f36600319011261017c5760206040515f8152f35b3461017c57602036600319011261017c576004356001600160401b03811161017c57610441903690600401610e69565b6104496116e5565b5081019060208183031261017c578035906001600160401b03821161017c57019060a08282031261017c576040519061048182610d07565b61048a83610ca0565b82526020830135926001600160401b03841161017c576104b16080926104e4958301610dcb565b60208401526104c260408201610ca0565b6040840152606081013560608401520135608082015260405191829182610efd565b0390f35b3461017c57602036600319011261017c576105016116e5565b5061050a6110ab565b506040516328c44a9960e21b815260048035908201525f816024817f00000000000000000000000000000000000000000000000000000000000000006001600160a01b03165afa9081156103ec575f916105c1575b5060208101517f0000000000000000000000000000000000000000000000000000000000000000036105b2576105a66101206104e492015160208082518301019101611212565b60405191829182610efd565b635527981560e11b5f5260045ffd5b6105dd91503d805f833e6105d58183610d59565b810190611137565b8161055f565b3461017c5760a036600319011261017c576105fc610c74565b50610605610c8a565b506044356001600160401b03811161017c57610625903690600401610e96565b506064356001600160401b03811161017c57610645903690600401610e96565b506084356001600160401b03811161017c57610665903690600401610dcb565b5060405163bc197c8160e01b8152602090f35b606036600319011261017c576004356001600160401b03811161017c576101d36106a86020923690600401610e69565b6106b0610c1e565b91604435923392339261181a565b60206102f36106cc36610e19565b926106d8929192611c58565b6112c5565b3461017c576104e46106f76106f136610c08565b90611369565b604051918291602083526020830190610cb4565b3461017c57602036600319011261017c576004356001600160401b03811161017c5761073e610743913690600401610dcb565b61129c565b604080516001600160a01b0390931683526020830181905282916104e491830190610cb4565b3461017c57602036600319011261017c576004356107856110ab565b506040516328c44a9960e21b8152600481018290525f816024817f00000000000000000000000000000000000000000000000000000000000000006001600160a01b03165afa5f918161083b575b506107eb57506301fb6dd160e01b5f5260045260245ffd5b6001600160401b03606082015116421061082c5761012081015160c090910151610820916001600160a01b0390911690611d0d565b50602060405160018152f35b637bf6a16f60e01b5f5260045ffd5b6108509192503d805f833e6105d58183610d59565b90836107d3565b3461017c575f36600319011261017c5760608060405161087681610cd8565b5f81525f60208201525f604082015201526040516351753e3760e11b81527f000000000000000000000000000000000000000000000000000000000000000060048201525f8160248160018060a01b037f0000000000000000000000000000000000000000000000000000000000000000165afa80156103ec575f9061093d575b6060906104e4604051928392602084528051602085015260018060a01b0360208201511660408501526040810151151582850152015160808084015260a0830190610cb4565b503d805f833e61094d8183610d59565b81019060208183031261017c578051906001600160401b03821161017c570160808183031261017c576040519061098382610cd8565b8051825260208101516001600160a01b038116810361017c5760208301526109ad60408201611068565b60408301526060810151906001600160401b03821161017c570182601f8201121561017c576060928160206109e493519101611075565b828201526108f7565b3461017c575f36600319011261017c5760206040517f00000000000000000000000000000000000000000000000000000000000000008152f35b3461017c575f36600319011261017c576104e460206106f76001610a6a7f0000000000000000000000000000000000000000000000000000000000000000611aeb565b8184610a957f0000000000000000000000000000000000000000000000000000000000000000611aeb565b8180610ac07f0000000000000000000000000000000000000000000000000000000000000000611aeb565b9260405199878b985191829101848a015e870190601760f91b83830152805192839101602183015e010190601760f91b84830152805192839101600283015e01015f838201520301601f198101835282610d59565b3461017c57608036600319011261017c576004356001600160401b03811161017c5760a0600319823603011261017c576020610b4f610c1e565b610b7b61039b610b5d610c48565b94610b89610b69610c5e565b91604051948591600401888301610f83565b03601f198101855284610d59565b60405163f0ffa18560e01b8152958694859460048601611025565b3461017c576108206106f136610c08565b3461017c57602036600319011261017c576004359063ffffffff60e01b821680920361017c57602091630271189760e51b8114908115610bf7575b5015158152f35b6301ffc9a760e01b14905083610bf0565b604090600319011261017c576004359060243590565b602435906001600160401b038216820361017c57565b35906001600160401b038216820361017c57565b604435906001600160a01b038216820361017c57565b606435906001600160a01b038216820361017c57565b600435906001600160a01b038216820361017c57565b602435906001600160a01b038216820361017c57565b35906001600160a01b038216820361017c57565b805180835260209291819084018484015e5f828201840152601f01601f1916010190565b608081019081106001600160401b03821117610cf357604052565b634e487b7160e01b5f52604160045260245ffd5b60a081019081106001600160401b03821117610cf357604052565b61014081019081106001600160401b03821117610cf357604052565b604081019081106001600160401b03821117610cf357604052565b90601f801991011681019081106001600160401b03821117610cf357604052565b6001600160401b038111610cf357601f01601f191660200190565b929192610da182610d7a565b91610daf6040519384610d59565b82948184528183011161017c578281602093845f960137010152565b9080601f8301121561017c57816020610de693359101610d95565b90565b9181601f8401121561017c578235916001600160401b03831161017c576020808501948460051b01011161017c57565b604060031982011261017c576004356001600160401b03811161017c5781610e4391600401610de9565b92909291602435906001600160401b03821161017c57610e6591600401610de9565b9091565b9181601f8401121561017c578235916001600160401b03831161017c576020838186019501011161017c57565b9080601f8301121561017c578135916001600160401b038311610cf3578260051b9060405193610ec96020840186610d59565b845260208085019282010192831161017c57602001905b828210610eed5750505090565b8135815260209182019101610ee0565b6020815260018060a01b03825116602082015260a06080610f2c602085015183604086015260c0850190610cb4565b93600180841b036040820151166060850152606081015182850152015191015290565b602060031982011261017c57600435906001600160401b03821161017c5761014090829003600319011261017c5760040190565b602081526001600160a01b03610f9883610ca0565b1660208201526020820135601e198336030181121561017c5782016020813591016001600160401b03821161017c57813603811361017c5760e0938260809260a060408701528160c0870152868601375f8484018601526001600160a01b0361100360408301610ca0565b166060850152606081013582850152013560a0830152601f8019910116010190565b90935f936001600160401b03611047608095989760a0865260a0860190610cb4565b971660208401526001600160a01b0390811660408401521660608201520152565b5190811515820361017c57565b92919261108182610d7a565b9161108f6040519384610d59565b82948184528183011161017c578281602093845f96015e010152565b604051906110b882610d22565b6060610120835f81525f60208201525f60408201525f838201525f60808201525f60a08201525f60c08201525f60e08201525f6101008201520152565b51906001600160401b038216820361017c57565b51906001600160a01b038216820361017c57565b9080601f8301121561017c578151610de692602001611075565b60208183031261017c578051906001600160401b03821161017c57016101408183031261017c576040519161116b83610d22565b8151835260208201516020840152611185604083016110f5565b6040840152611196606083016110f5565b60608401526111a7608083016110f5565b608084015260a082015160a08401526111c260c08301611109565b60c08401526111d360e08301611109565b60e08401526111e56101008301611068565b6101008401526101208201516001600160401b03811161017c57611209920161111d565b61012082015290565b60208183031261017c578051906001600160401b03821161017c57019060a08282031261017c576040519161124683610d07565b61124f81611109565b835260208101516001600160401b03811161017c5760809261127291830161111d565b602084015261128360408201611109565b6040840152606081015160608401520151608082015290565b6112af9060208082518301019101611212565b80516020909101516001600160a01b0390911691565b92909281840361135a575f91345b8584101561134f578184101561133b578360051b808601359082821161132c5784013561013e198536030181121561017c57611310908501611c99565b1561132157600191039301926112d3565b505050505050505f90565b63044044a560e21b5f5260045ffd5b634e487b7160e01b5f52603260045260245ffd5b505050505050600190565b63251f56a160e21b5f5260045ffd5b915f6113736110ab565b5061137c6110ab565b506040516328c44a9960e21b8152600481018590527f00000000000000000000000000000000000000000000000000000000000000006001600160a01b0316905f81602481855afa5f91816116c9575b506113e457856301fb6dd160e01b5f5260045260245ffd5b94919293946040516328c44a9960e21b81528660048201525f81602481865afa5f91816116ad575b5061142457866301fb6dd160e01b5f5260045260245ffd5b9591929394959261143482611cb2565b1561169e5761151360206101208085019460c088611525611455895161129c565b91909451916040519889978896879663e6c9714d60e01b885260606004890152805160648901528b81015160848901526001600160401b0360408201511660a48901526001600160401b0360608201511660c48901526001600160401b0360808201511660e489015260a0810151610104890152019e8f60018060a01b0390511661012488015260018060a01b0360e082015116610144880152610100810151151561016488015201516101406101848701526101a4860190610cb4565b84810360031901602486015290610cb4565b604483019190915203916001600160a01b03165afa9081156103ec575f91611664575b50156116555760405161155a81610d3e565b8581525f60208201526040519061157082610d3e565b7f0000000000000000000000000000000000000000000000000000000000000000825260208201908152823b1561017c5760645f92836020956040519687958694634692626760e01b86525160048601525180516024860152015160448401525af19081611640575b506115f25763614cf93960e01b85526004849052602485fd5b51825192949391927ff96e77bc177ae8e2ff25185e7c6d85f8ba97c8bdd9d46933aac70a7a33edf6c09161162f916001600160a01b031690611d0d565b94516001600160a01b03169380a490565b61164d9196505f90610d59565b5f945f6115d9565b630ebe58ef60e11b5f5260045ffd5b90506020813d602011611696575b8161167f60209383610d59565b8101031261017c5761169090611068565b5f611548565b3d9150611672565b63629cd40b60e11b5f5260045ffd5b6116c29192503d805f833e6105d58183610d59565b905f61140c565b6116de9192503d805f833e6105d58183610d59565b905f6113cc565b604051906116f282610d07565b5f608083828152606060208201528260408201528260608201520152565b7f000000000000000000000000000000000000000000000000000000000000000060208201510361180b5761174481611cb2565b156118055761176461012061177492015160208082518301019101611212565b9160208082518301019101611212565b604082810151908201516001600160a01b0390811691161491826117f2575b826117de575b826117c5575b826117a957505090565b6020919250810151818151910120910151602081519101201490565b805182516001600160a01b03908116911614925061179f565b915060808201516080820151111591611799565b9150606082015160608201511491611793565b50505f90565b635f9bd90760e11b5f5260045ffd5b9195909594929461183e61182f368986610d95565b60208082518301019101611212565b9460408601948551945f9560018060a01b031699606089019a60808c519a01998a51823b1561017c57604051637921219560e11b81526001600160a01b038e1660048201523060248201526044810192909252606482015260a060848201525f60a482018190529091829060c490829084905af19081611ad6575b506119015787518b518a5160405163334a7d1b60e21b81526001600160a01b039384166004820152928d1660248401523060448401526064830191909152608482015260a490fd5b9296509296509397506119179296503691610d95565b906040519260c084018481106001600160401b03821117611ac257906001600160401b039160405260018060a01b03169485855216602084015260016040840152606083015260808201528360a0820152602060405161197681610d3e565b7f000000000000000000000000000000000000000000000000000000000000000081528181019283526040518093819263f17325e760e01b8352846004840152516024830152516040604483015260018060a01b0381511660648301526001600160401b03848201511660848301526040810151151560a4830152606081015160c483015260a0611a17608083015160c060e4860152610124850190610cb4565b9101516101048301520381877f00000000000000000000000000000000000000000000000000000000000000006001600160a01b03165af1908115611ab7578491611a85575b507f8f7f2dbafd79125e808bf16a53d7fa4e17b8b6374ced76d946a45f94b7bf4d06819480a3565b90506020813d602011611aaf575b81611aa060209383610d59565b8101031261017c57515f611a5d565b3d9150611a93565b6040513d86823e3d90fd5b634e487b7160e01b88526041600452602488fd5b611ae39198505f90610d59565b5f965f6118b9565b805f9172184f03e93ff9f4daa797ed6e38ed64bf6a1f0160401b821015611c35575b806d04ee2d6d415b85acef8100000000600a921015611c1a575b662386f26fc10000811015611c06575b6305f5e100811015611bf5575b612710811015611be6575b6064811015611bd8575b1015611bcd575b600a60216001840193611b7285610d7a565b94611b806040519687610d59565b808652611b8f601f1991610d7a565b013660208701378401015b5f1901916f181899199a1a9b1b9c1cb0b131b232b360811b8282061a8353048015611bc857600a9091611b9a565b505090565b600190910190611b60565b606460029104930192611b59565b61271060049104930192611b4f565b6305f5e10060089104930192611b44565b662386f26fc1000060109104930192611b37565b6d04ee2d6d415b85acef810000000060209104930192611b27565b506040915072184f03e93ff9f4daa797ed6e38ed64bf6a1f0160401b8104611b0d565b7f00000000000000000000000000000000000000000000000000000000000000006001600160a01b03163303611c8a57565b634ca8886760e01b5f5260045ffd5b60e0013560018060a01b03811680910361017c57301490565b6001600160401b036060820151168015159081611d03575b50611cf457608001516001600160401b0316611ce557600190565b637b6227e960e11b5f5260045ffd5b631ab7da6b60e01b5f5260045ffd5b905042115f611cca565b611d239092919260208082518301019101611212565b604081018051925f9360018060a01b0316936060840194608086519501948551823b1561017c57604051637921219560e11b81523060048201526001600160a01b038a1660248201526044810192909252606482015260a060848201525f60a482018190529091829060c490829084905af19081611dfd575b50611de3575050519151905160405163334a7d1b60e21b81526001600160a01b0393841660048201523060248201529390921660448401526064830152608482015260a490fd5b93509350505060405190611df8602083610d59565b815290565b611e0a9192505f90610d59565b5f905f611d9c56fea26469706673582212205c246de3a1b84d3badb5979e11d6dcd46a9deac940626195fbb53b1d2d2f893b64736f6c634300081b0033","linkReferences":{}},"methodIdentifiers":{"ATTESTATION_SCHEMA()":"5bf2f20d","attest((bytes32,bytes32,uint64,uint64,uint64,bytes32,address,address,bool,bytes))":"e60c3505","checkObligation((bytes32,bytes32,uint64,uint64,uint64,bytes32,address,address,bool,bytes),bytes,bytes32)":"e6c9714d","collectEscrow(bytes32,bytes32)":"2c713cd9","collectEscrowRaw(bytes32,bytes32)":"891d9ea8","decodeObligationData(bytes)":"c93844be","doObligation((address,bytes,address,uint256,uint256),uint64)":"cecf1aff","doObligationFor((address,bytes,address,uint256,uint256),uint64,address,address)":"3dc9f350","doObligationForRaw(bytes,uint64,address,address,bytes32)":"f0ffa185","doObligationRaw(bytes,uint64,bytes32)":"b3b902d4","extractArbiterAndDemand(bytes)":"8371ef59","getObligationData(bytes32)":"c6ec5070","getSchema()":"6b122fe0","isPayable()":"ce46e046","multiAttest((bytes32,bytes32,uint64,uint64,uint64,bytes32,address,address,bool,bytes)[],uint256[])":"91db0b7e","multiRevoke((bytes32,bytes32,uint64,uint64,uint64,bytes32,address,address,bool,bytes)[],uint256[])":"88e5b2d9","onERC1155BatchReceived(address,address,uint256[],uint256[],bytes)":"bc197c81","onERC1155Received(address,address,uint256,uint256,bytes)":"f23a6e61","reclaimExpired(bytes32)":"7d2c2931","revoke((bytes32,bytes32,uint64,uint64,uint64,bytes32,address,address,bool,bytes))":"e49617e1","supportsInterface(bytes4)":"01ffc9a7","version()":"54fd4d50"},"id":115}