{"abi":[{"type":"constructor","inputs":[{"name":"_eas","type":"address","internalType":"contract IEAS"},{"name":"_erc20Escrow","type":"address","internalType":"contract ERC20EscrowObligation"},{"name":"_erc20Payment","type":"address","internalType":"contract ERC20PaymentObligation"},{"name":"_erc721Escrow","type":"address","internalType":"contract ERC721EscrowObligation"},{"name":"_erc721Payment","type":"address","internalType":"contract ERC721PaymentObligation"},{"name":"_erc1155Escrow","type":"address","internalType":"contract ERC1155EscrowObligation"},{"name":"_erc1155Payment","type":"address","internalType":"contract ERC1155PaymentObligation"},{"name":"_bundleEscrow","type":"address","internalType":"contract TokenBundleEscrowObligation2"},{"name":"_bundlePayment","type":"address","internalType":"contract TokenBundlePaymentObligation2"},{"name":"_nativeEscrow","type":"address","internalType":"contract NativeTokenEscrowObligation"},{"name":"_nativePayment","type":"address","internalType":"contract NativeTokenPaymentObligation"}],"stateMutability":"nonpayable"},{"type":"function","name":"buyBundleWithErc1155","inputs":[{"name":"bidToken","type":"address","internalType":"address"},{"name":"bidTokenId","type":"uint256","internalType":"uint256"},{"name":"bidAmount","type":"uint256","internalType":"uint256"},{"name":"askData","type":"tuple","internalType":"struct TokenBundlePaymentObligation2.ObligationData","components":[{"name":"nativeAmount","type":"uint256","internalType":"uint256"},{"name":"erc20Tokens","type":"address[]","internalType":"address[]"},{"name":"erc20Amounts","type":"uint256[]","internalType":"uint256[]"},{"name":"erc721Tokens","type":"address[]","internalType":"address[]"},{"name":"erc721TokenIds","type":"uint256[]","internalType":"uint256[]"},{"name":"erc1155Tokens","type":"address[]","internalType":"address[]"},{"name":"erc1155TokenIds","type":"uint256[]","internalType":"uint256[]"},{"name":"erc1155Amounts","type":"uint256[]","internalType":"uint256[]"},{"name":"payee","type":"address","internalType":"address"}]},{"name":"expiration","type":"uint64","internalType":"uint64"}],"outputs":[{"name":"","type":"bytes32","internalType":"bytes32"}],"stateMutability":"nonpayable"},{"type":"function","name":"buyErc1155ForErc1155","inputs":[{"name":"bidToken","type":"address","internalType":"address"},{"name":"bidTokenId","type":"uint256","internalType":"uint256"},{"name":"bidAmount","type":"uint256","internalType":"uint256"},{"name":"askToken","type":"address","internalType":"address"},{"name":"askId","type":"uint256","internalType":"uint256"},{"name":"askAmount","type":"uint256","internalType":"uint256"},{"name":"expiration","type":"uint64","internalType":"uint64"}],"outputs":[{"name":"","type":"bytes32","internalType":"bytes32"}],"stateMutability":"nonpayable"},{"type":"function","name":"buyErc20WithErc1155","inputs":[{"name":"bidToken","type":"address","internalType":"address"},{"name":"bidTokenId","type":"uint256","internalType":"uint256"},{"name":"bidAmount","type":"uint256","internalType":"uint256"},{"name":"askToken","type":"address","internalType":"address"},{"name":"askAmount","type":"uint256","internalType":"uint256"},{"name":"expiration","type":"uint64","internalType":"uint64"}],"outputs":[{"name":"","type":"bytes32","internalType":"bytes32"}],"stateMutability":"nonpayable"},{"type":"function","name":"buyErc721WithErc1155","inputs":[{"name":"bidToken","type":"address","internalType":"address"},{"name":"bidTokenId","type":"uint256","internalType":"uint256"},{"name":"bidAmount","type":"uint256","internalType":"uint256"},{"name":"askToken","type":"address","internalType":"address"},{"name":"askTokenId","type":"uint256","internalType":"uint256"},{"name":"expiration","type":"uint64","internalType":"uint64"}],"outputs":[{"name":"","type":"bytes32","internalType":"bytes32"}],"stateMutability":"nonpayable"},{"type":"function","name":"buyEthWithErc1155","inputs":[{"name":"bidToken","type":"address","internalType":"address"},{"name":"bidTokenId","type":"uint256","internalType":"uint256"},{"name":"bidAmount","type":"uint256","internalType":"uint256"},{"name":"askAmount","type":"uint256","internalType":"uint256"},{"name":"expiration","type":"uint64","internalType":"uint64"}],"outputs":[{"name":"","type":"bytes32","internalType":"bytes32"}],"stateMutability":"nonpayable"},{"type":"function","name":"payErc1155ForBundle","inputs":[{"name":"buyAttestation","type":"bytes32","internalType":"bytes32"}],"outputs":[{"name":"","type":"bytes32","internalType":"bytes32"}],"stateMutability":"nonpayable"},{"type":"function","name":"payErc1155ForErc1155","inputs":[{"name":"buyAttestation","type":"bytes32","internalType":"bytes32"}],"outputs":[{"name":"","type":"bytes32","internalType":"bytes32"}],"stateMutability":"nonpayable"},{"type":"function","name":"payErc1155ForErc20","inputs":[{"name":"buyAttestation","type":"bytes32","internalType":"bytes32"}],"outputs":[{"name":"","type":"bytes32","internalType":"bytes32"}],"stateMutability":"nonpayable"},{"type":"function","name":"payErc1155ForErc721","inputs":[{"name":"buyAttestation","type":"bytes32","internalType":"bytes32"}],"outputs":[{"name":"","type":"bytes32","internalType":"bytes32"}],"stateMutability":"nonpayable"},{"type":"function","name":"payErc1155ForEth","inputs":[{"name":"buyAttestation","type":"bytes32","internalType":"bytes32"}],"outputs":[{"name":"","type":"bytes32","internalType":"bytes32"}],"stateMutability":"nonpayable"},{"type":"function","name":"payEthForErc1155","inputs":[{"name":"buyAttestation","type":"bytes32","internalType":"bytes32"}],"outputs":[{"name":"","type":"bytes32","internalType":"bytes32"}],"stateMutability":"payable"},{"type":"error","name":"AttestationNotFound","inputs":[{"name":"attestationId","type":"bytes32","internalType":"bytes32"}]},{"type":"error","name":"CouldntCollectEscrow","inputs":[]}],"bytecode":{"object":"0x6080346101ff57601f61187238819003918201601f19168301916001600160401b0383118484101761020357808492610160946040528339810103126101ff5780516001600160a01b03811691908290036101ff5760208101516001600160a01b038116908190036101ff5760408201516001600160a01b038116908190036101ff5760608301516001600160a01b038116908190036101ff5760808401516001600160a01b038116908190036101ff5760a08501516001600160a01b03811691908290036101ff5760c08601516001600160a01b03811693908490036101ff5760e08701516001600160a01b03811695908690036101ff576101008801516001600160a01b03811697908890036101ff576101208901516001600160a01b03811699908a90036101ff5761014001516001600160a01b0381169a908b90036101ff5760018060a01b03195f5416175f5560018060a01b0319600154161760015560018060a01b0319600254161760025560018060a01b0319600354161760035560018060a01b0319600454161760045560018060a01b0319600554161760055560018060a01b0319600654161760065560018060a01b0319600754161760075560018060a01b0319600854161760085560018060a01b0319600954161760095560018060a01b0319600a541617600a5560405161165a90816102188239f35b5f80fd5b634e487b7160e01b5f52604160045260245ffdfe6080806040526004361015610012575f80fd5b5f3560e01c90816301d71c0f14610eed575080631fa56b2014610eaf578063253d181d14610d4c57806333666e5f14610c2c5780634d2ac84c14610a11578063576748fb1461098d5780636d1d261f146108ac57806378a56f8f1461073a578063af808a2a14610602578063d7452d90146103105763da7af44614610095575f80fd5b3461028f57602036600319011261028f5760043560245f60018060a01b03815416604051928380926328c44a9960e21b82528660048301525afa90811561029b575f916102ee575b508051156102db57610120015190815182019160208184031261028f576020810151906001600160401b03821161028f57019160608382031261028f5760405190610127826110a7565b61013360208501611178565b825260408401516001600160401b03811161028f575f94602093604060606101686101819588806101e6990191870101611199565b9384888501520151910152838082518301019101611349565b60065460408051633785506f60e11b815283516001600160a01b0390811660048301526020850151602483015291840151604482015260609093015181166064840152336084840181905260a4840152919586939290911691839190829060c4820190565b03925af191821561029b575f926102a6575b50600954604051632c713cd960e01b8152600481019290925260248201839052602090829060449082905f906001600160a01b03165af190811561029b575f9161025d575b501561024e57602090604051908152f35b63a97a981d60e01b5f5260045ffd5b90506020813d602011610293575b8161027860209383611143565b8101031261028f576102899061118c565b5f61023d565b5f80fd5b3d915061026b565b6040513d5f823e3d90fd5b9091506020813d6020116102d3575b816102c260209383611143565b8101031261028f57519060206101f8565b3d91506102b5565b506301fb6dd160e01b5f5260045260245ffd5b61030a91503d805f833e6103028183611143565b8101906111ee565b5f6100dd565b3461028f57602036600319011261028f5760043560245f60018060a01b03815416604051928380926328c44a9960e21b82528660048301525afa801561029b57610120915f916105e8575b5001519081518201602081019260208183031261028f576020810151906001600160401b03821161028f570190610140908290031261028f57604051926103a184611127565b6103ad60208301611178565b845260408201516001600160401b03811161028f578160206103d192850101611199565b90602085019182526060830151604086015260808301516001600160401b03811161028f5781602061040592860101611562565b606086015260a08301516001600160401b03811161028f5781602061042c928601016115c7565b608086015260c08301516001600160401b03811161028f5781602061045392860101611562565b60a086015260e08301516001600160401b03811161028f5781602061047a928601016115c7565b60c08601526101008301516001600160401b03811161028f578160206104a292860101611562565b60e08601526101208301516001600160401b03811161028f578160206104ca928601016115c7565b610100860152610140830151916001600160401b03831161028f575f9561012061050061018194602061051297819901016115c7565b91015251838082518301019101611349565b03925af191821561029b575f926105b3575b50600754604051632c713cd960e01b8152600481019290925260248201839052602090829060449082905f906001600160a01b03165af190811561029b575f9161057957501561024e57602090604051908152f35b90506020813d6020116105ab575b8161059460209383611143565b8101031261028f576105a59061118c565b8261023d565b3d9150610587565b9091506020813d6020116105e0575b816105cf60209383611143565b8101031261028f5751906020610524565b3d91506105c2565b6105fc91503d805f833e6103028183611143565b8361035b565b3461028f57602036600319011261028f5760043560245f60018060a01b03815416604051928380926328c44a9960e21b82528660048301525afa90811561029b575f91610720575b508051156102db57906020610684610181826106746101205f9701518280825183010191016112c9565b0151838082518301019101611349565b03925af191821561029b575f926106eb575b50600154604051632c713cd960e01b8152600481019290925260248201839052602090829060449082905f906001600160a01b03165af190811561029b575f9161057957501561024e57602090604051908152f35b9091506020813d602011610718575b8161070760209383611143565b8101031261028f5751906020610696565b3d91506106fa565b61073491503d805f833e6103028183611143565b8261064a565b3461028f5760e036600319011261028f57610753611011565b6064356001600160a01b0381169081900361028f5760c4356001600160401b038116810361028f5760055460065460405161085d956020956001600160a01b0394851694909316929091906107a78261110c565b81526084358682015260a43560408201523360608201526107fd604051918783019060609060018060a01b03815116835260208101516020840152604081015160408401528160018060a01b0391015116910152565b6080815261080c60a082611143565b60405192610819846110d6565b83528583015260018060a01b03166040820152602435606082015260443560808201525f6040518096819582946303dc9f3560e41b84523391339160048601611393565b03925af1801561029b575f90610879575b602090604051908152f35b506020813d6020116108a4575b8161089360209383611143565b8101031261028f576020905161086e565b3d9150610886565b3461028f5761085d60206108bf36611051565b60055460025460405192976001600160a01b039283169792909116959491939092916108ea836110a7565b60018060a01b0316825288820152336040820152610933604051918983019060409060018060a01b038151168352602081015160208401528160018060a01b0391015116910152565b60608152610942608082611143565b6040519461094f866110d6565b85528785015260018060a01b03166040840152606083015260808201525f6040518096819582946303dc9f3560e41b84523391339160048601611393565b3461028f5760a036600319011261028f5761085d60206109ab611011565b6109b361103b565b600554600a5460405192936001600160a01b039283169392909116916109d8816110f1565b6064358152338682015260405181518188019081526020928301516001600160a01b03169201919091526040815261080c606082611143565b3461028f5760a036600319011261028f57610a2a611011565b6064356001600160401b03811161028f578060040191610120600319833603011261028f57610a5761103b565b90600160a01b600190036005541692600160a01b60019003600854169460405191829160208301602090528035604084015260248201610a9790826114b4565b606085016101209052610160850190610aaf926114e8565b610abc60448401836114b4565b858303603f19016080870152610ad29291611527565b610adf60648401836114b4565b858303603f190160a0870152610af592916114e8565b610b0260848401836114b4565b858303603f190160c0870152610b189291611527565b610b2560a48401836114b4565b858303603f190160e0870152610b3b92916114e8565b610b4860c48401836114b4565b858303603f1901610100870152610b5f9291611527565b9060e48301610b6d916114b4565b848303603f1901610120860152610b849291611527565b906001600160a01b0390610b9b9061010401611027565b1661014083015203601f1981018252610bb49082611143565b60405194610bc1866110d6565b855260208501526001600160a01b031660408085019190915260243560608501526044356080850152516303dc9f3560e41b81529283918291610c0c91339182919060048601611393565b03815a6020945f91f1801561029b575f9061087957602090604051908152f35b3461028f57602036600319011261028f5760246004355f60018060a01b03815416604051938480926328c44a9960e21b82528560048301525afa801561029b57610c96610181602061067461012082955f988991610d32575b50015182808251830101910161142a565b03925af191821561029b575f92610cfd575b50600554604051632c713cd960e01b8152600481019290925260248201839052602090829060449082905f906001600160a01b03165af190811561029b575f9161057957501561024e57602090604051908152f35b9091506020813d602011610d2a575b81610d1960209383611143565b8101031261028f5751906020610ca8565b3d9150610d0c565b610d4691503d808b833e6103028183611143565b89610c85565b602036600319011261028f5760043560245f60018060a01b03815416604051928380926328c44a9960e21b82528660048301525afa90811561029b575f91610e95575b508051156102db57610db0610120602092015182808251830101910161142a565b01519060408280518101031261028f576020610e256084604051610dd3816110f1565b610de66040858801519788845201611178565b81850152600a546040516309c2f70b60e11b8152825160048201526020909201516001600160a01b039081166024840152919687948593919290911690565b3360448401523360648401525af191821561029b575f92610cfd5750600554604051632c713cd960e01b8152600481019290925260248201839052602090829060449082905f906001600160a01b03165af190811561029b575f9161057957501561024e57602090604051908152f35b610ea991503d805f833e6103028183611143565b82610d8f565b3461028f5761085d6020610ec236611051565b60055460045460405192976001600160a01b039283169792909116959491939092916108ea836110a7565b3461028f57602036600319011261028f57600435905f8160248160018060a01b038454166328c44a9960e21b82528660048301525afa90811561029b575f91610ff7575b508051156102db57906020610f5b610181826106746101205f9701518280825183010191016112c9565b03925af191821561029b575f92610fc2575b50600354604051632c713cd960e01b8152600481019290925260248201839052602090829060449082905f906001600160a01b03165af190811561029b575f9161057957501561024e57602090604051908152f35b9091506020813d602011610fef575b81610fde60209383611143565b8101031261028f5751906020610f6d565b3d9150610fd1565b61100b91503d805f833e6103028183611143565b82610f31565b600435906001600160a01b038216820361028f57565b35906001600160a01b038216820361028f57565b608435906001600160401b038216820361028f57565b60c090600319011261028f576004356001600160a01b038116810361028f579060243590604435906064356001600160a01b038116810361028f57906084359060a4356001600160401b038116810361028f5790565b606081019081106001600160401b038211176110c257604052565b634e487b7160e01b5f52604160045260245ffd5b60a081019081106001600160401b038211176110c257604052565b604081019081106001600160401b038211176110c257604052565b608081019081106001600160401b038211176110c257604052565b61014081019081106001600160401b038211176110c257604052565b90601f801991011681019081106001600160401b038211176110c257604052565b51906001600160401b038216820361028f57565b51906001600160a01b038216820361028f57565b5190811515820361028f57565b81601f8201121561028f578051906001600160401b0382116110c257604051926111cd601f8401601f191660200185611143565b8284526020838301011161028f57815f9260208093018386015e8301015290565b60208183031261028f578051906001600160401b03821161028f57016101408183031261028f576040519161122283611127565b815183526020820151602084015261123c60408301611164565b604084015261124d60608301611164565b606084015261125e60808301611164565b608084015260a082015160a084015261127960c08301611178565b60c084015261128a60e08301611178565b60e084015261129c610100830161118c565b6101008401526101208201516001600160401b03811161028f576112c09201611199565b61012082015290565b60208183031261028f578051906001600160401b03821161028f57019060808282031261028f57604051916112fd8361110c565b61130681611178565b835260208101516001600160401b03811161028f57606092611329918301611199565b602084015261133a60408201611178565b60408401520151606082015290565b9081608091031261028f5761138b6060604051926113668461110c565b61136f81611178565b8452602081015160208501526040810151604085015201611178565b606082015290565b926001600160401b036101406020608060609699989581895260018060a01b03815116828a01528281015160a0808b01528051938491826101208d015201858b015e5f84848b01015260018060a01b0360408201511660c08a01528781015160e08a01520151610100880152601f80199101168601019616602085015260018060a01b0316604084015260018060a01b0316910152565b60208183031261028f578051906001600160401b03821161028f57019060a08282031261028f576040519161145e836110d6565b61146781611178565b835260208101516001600160401b03811161028f5760809261148a918301611199565b602084015261149b60408201611178565b6040840152606081015160608401520151608082015290565b9035601e198236030181121561028f5701602081359101916001600160401b03821161028f578160051b3603831361028f57565b916020908281520191905f5b8181106115015750505090565b909192602080600192838060a01b0361151988611027565b1681520194019291016114f4565b81835290916001600160fb1b03831161028f5760209260051b809284830137010190565b6001600160401b0381116110c25760051b60200190565b9080601f8301121561028f5781516115798161154b565b926115876040519485611143565b81845260208085019260051b82010192831161028f57602001905b8282106115af5750505090565b602080916115bc84611178565b8152019101906115a2565b9080601f8301121561028f5781516115de8161154b565b926115ec6040519485611143565b81845260208085019260051b82010192831161028f57602001905b8282106116145750505090565b815181526020918201910161160756fea2646970667358221220599190b1094f7597b7660b5963f163bfb193473f4647c15bde3ee50cf700d03464736f6c634300081b0033","linkReferences":{}},"methodIdentifiers":{"buyBundleWithErc1155(address,uint256,uint256,(uint256,address[],uint256[],address[],uint256[],address[],uint256[],uint256[],address),uint64)":"4d2ac84c","buyErc1155ForErc1155(address,uint256,uint256,address,uint256,uint256,uint64)":"78a56f8f","buyErc20WithErc1155(address,uint256,uint256,address,uint256,uint64)":"6d1d261f","buyErc721WithErc1155(address,uint256,uint256,address,uint256,uint64)":"1fa56b20","buyEthWithErc1155(address,uint256,uint256,uint256,uint64)":"576748fb","payErc1155ForBundle(bytes32)":"d7452d90","payErc1155ForErc1155(bytes32)":"33666e5f","payErc1155ForErc20(bytes32)":"af808a2a","payErc1155ForErc721(bytes32)":"01d71c0f","payErc1155ForEth(bytes32)":"da7af446","payEthForErc1155(bytes32)":"253d181d"},"id":135}