{"abi":[{"type":"constructor","inputs":[{"name":"_eas","type":"address","internalType":"contract IEAS"},{"name":"_schemaRegistry","type":"address","internalType":"contract ISchemaRegistry"}],"stateMutability":"nonpayable"},{"type":"receive","stateMutability":"payable"},{"type":"function","name":"ATTESTATION_SCHEMA","inputs":[],"outputs":[{"name":"","type":"bytes32","internalType":"bytes32"}],"stateMutability":"view"},{"type":"function","name":"attest","inputs":[{"name":"attestation","type":"tuple","internalType":"struct Attestation","components":[{"name":"uid","type":"bytes32","internalType":"bytes32"},{"name":"schema","type":"bytes32","internalType":"bytes32"},{"name":"time","type":"uint64","internalType":"uint64"},{"name":"expirationTime","type":"uint64","internalType":"uint64"},{"name":"revocationTime","type":"uint64","internalType":"uint64"},{"name":"refUID","type":"bytes32","internalType":"bytes32"},{"name":"recipient","type":"address","internalType":"address"},{"name":"attester","type":"address","internalType":"address"},{"name":"revocable","type":"bool","internalType":"bool"},{"name":"data","type":"bytes","internalType":"bytes"}]}],"outputs":[{"name":"","type":"bool","internalType":"bool"}],"stateMutability":"payable"},{"type":"function","name":"checkObligation","inputs":[{"name":"obligation","type":"tuple","internalType":"struct Attestation","components":[{"name":"uid","type":"bytes32","internalType":"bytes32"},{"name":"schema","type":"bytes32","internalType":"bytes32"},{"name":"time","type":"uint64","internalType":"uint64"},{"name":"expirationTime","type":"uint64","internalType":"uint64"},{"name":"revocationTime","type":"uint64","internalType":"uint64"},{"name":"refUID","type":"bytes32","internalType":"bytes32"},{"name":"recipient","type":"address","internalType":"address"},{"name":"attester","type":"address","internalType":"address"},{"name":"revocable","type":"bool","internalType":"bool"},{"name":"data","type":"bytes","internalType":"bytes"}]},{"name":"demand","type":"bytes","internalType":"bytes"},{"name":"","type":"bytes32","internalType":"bytes32"}],"outputs":[{"name":"","type":"bool","internalType":"bool"}],"stateMutability":"view"},{"type":"function","name":"decodeObligationData","inputs":[{"name":"data","type":"bytes","internalType":"bytes"}],"outputs":[{"name":"","type":"tuple","internalType":"struct ERC1155PaymentObligation.ObligationData","components":[{"name":"token","type":"address","internalType":"address"},{"name":"tokenId","type":"uint256","internalType":"uint256"},{"name":"amount","type":"uint256","internalType":"uint256"},{"name":"payee","type":"address","internalType":"address"}]}],"stateMutability":"pure"},{"type":"function","name":"doObligation","inputs":[{"name":"data","type":"tuple","internalType":"struct ERC1155PaymentObligation.ObligationData","components":[{"name":"token","type":"address","internalType":"address"},{"name":"tokenId","type":"uint256","internalType":"uint256"},{"name":"amount","type":"uint256","internalType":"uint256"},{"name":"payee","type":"address","internalType":"address"}]}],"outputs":[{"name":"uid_","type":"bytes32","internalType":"bytes32"}],"stateMutability":"nonpayable"},{"type":"function","name":"doObligationFor","inputs":[{"name":"data","type":"tuple","internalType":"struct ERC1155PaymentObligation.ObligationData","components":[{"name":"token","type":"address","internalType":"address"},{"name":"tokenId","type":"uint256","internalType":"uint256"},{"name":"amount","type":"uint256","internalType":"uint256"},{"name":"payee","type":"address","internalType":"address"}]},{"name":"payer","type":"address","internalType":"address"},{"name":"recipient","type":"address","internalType":"address"}],"outputs":[{"name":"uid_","type":"bytes32","internalType":"bytes32"}],"stateMutability":"nonpayable"},{"type":"function","name":"doObligationForRaw","inputs":[{"name":"data","type":"bytes","internalType":"bytes"},{"name":"expirationTime","type":"uint64","internalType":"uint64"},{"name":"payer","type":"address","internalType":"address"},{"name":"recipient","type":"address","internalType":"address"},{"name":"refUID","type":"bytes32","internalType":"bytes32"}],"outputs":[{"name":"uid_","type":"bytes32","internalType":"bytes32"}],"stateMutability":"payable"},{"type":"function","name":"doObligationRaw","inputs":[{"name":"data","type":"bytes","internalType":"bytes"},{"name":"expirationTime","type":"uint64","internalType":"uint64"},{"name":"refUID","type":"bytes32","internalType":"bytes32"}],"outputs":[{"name":"uid_","type":"bytes32","internalType":"bytes32"}],"stateMutability":"payable"},{"type":"function","name":"getObligationData","inputs":[{"name":"uid","type":"bytes32","internalType":"bytes32"}],"outputs":[{"name":"","type":"tuple","internalType":"struct ERC1155PaymentObligation.ObligationData","components":[{"name":"token","type":"address","internalType":"address"},{"name":"tokenId","type":"uint256","internalType":"uint256"},{"name":"amount","type":"uint256","internalType":"uint256"},{"name":"payee","type":"address","internalType":"address"}]}],"stateMutability":"view"},{"type":"function","name":"getSchema","inputs":[],"outputs":[{"name":"","type":"tuple","internalType":"struct SchemaRecord","components":[{"name":"uid","type":"bytes32","internalType":"bytes32"},{"name":"resolver","type":"address","internalType":"contract ISchemaResolver"},{"name":"revocable","type":"bool","internalType":"bool"},{"name":"schema","type":"string","internalType":"string"}]}],"stateMutability":"view"},{"type":"function","name":"isPayable","inputs":[],"outputs":[{"name":"","type":"bool","internalType":"bool"}],"stateMutability":"pure"},{"type":"function","name":"multiAttest","inputs":[{"name":"attestations","type":"tuple[]","internalType":"struct Attestation[]","components":[{"name":"uid","type":"bytes32","internalType":"bytes32"},{"name":"schema","type":"bytes32","internalType":"bytes32"},{"name":"time","type":"uint64","internalType":"uint64"},{"name":"expirationTime","type":"uint64","internalType":"uint64"},{"name":"revocationTime","type":"uint64","internalType":"uint64"},{"name":"refUID","type":"bytes32","internalType":"bytes32"},{"name":"recipient","type":"address","internalType":"address"},{"name":"attester","type":"address","internalType":"address"},{"name":"revocable","type":"bool","internalType":"bool"},{"name":"data","type":"bytes","internalType":"bytes"}]},{"name":"values","type":"uint256[]","internalType":"uint256[]"}],"outputs":[{"name":"","type":"bool","internalType":"bool"}],"stateMutability":"payable"},{"type":"function","name":"multiRevoke","inputs":[{"name":"attestations","type":"tuple[]","internalType":"struct Attestation[]","components":[{"name":"uid","type":"bytes32","internalType":"bytes32"},{"name":"schema","type":"bytes32","internalType":"bytes32"},{"name":"time","type":"uint64","internalType":"uint64"},{"name":"expirationTime","type":"uint64","internalType":"uint64"},{"name":"revocationTime","type":"uint64","internalType":"uint64"},{"name":"refUID","type":"bytes32","internalType":"bytes32"},{"name":"recipient","type":"address","internalType":"address"},{"name":"attester","type":"address","internalType":"address"},{"name":"revocable","type":"bool","internalType":"bool"},{"name":"data","type":"bytes","internalType":"bytes"}]},{"name":"values","type":"uint256[]","internalType":"uint256[]"}],"outputs":[{"name":"","type":"bool","internalType":"bool"}],"stateMutability":"payable"},{"type":"function","name":"revoke","inputs":[{"name":"attestation","type":"tuple","internalType":"struct Attestation","components":[{"name":"uid","type":"bytes32","internalType":"bytes32"},{"name":"schema","type":"bytes32","internalType":"bytes32"},{"name":"time","type":"uint64","internalType":"uint64"},{"name":"expirationTime","type":"uint64","internalType":"uint64"},{"name":"revocationTime","type":"uint64","internalType":"uint64"},{"name":"refUID","type":"bytes32","internalType":"bytes32"},{"name":"recipient","type":"address","internalType":"address"},{"name":"attester","type":"address","internalType":"address"},{"name":"revocable","type":"bool","internalType":"bool"},{"name":"data","type":"bytes","internalType":"bytes"}]}],"outputs":[{"name":"","type":"bool","internalType":"bool"}],"stateMutability":"payable"},{"type":"function","name":"version","inputs":[],"outputs":[{"name":"","type":"string","internalType":"string"}],"stateMutability":"view"},{"type":"event","name":"PaymentMade","inputs":[{"name":"payment","type":"bytes32","indexed":true,"internalType":"bytes32"},{"name":"buyer","type":"address","indexed":true,"internalType":"address"}],"anonymous":false},{"type":"error","name":"AccessDenied","inputs":[]},{"type":"error","name":"AttestationRevoked","inputs":[]},{"type":"error","name":"DeadlineExpired","inputs":[]},{"type":"error","name":"ERC1155TransferFailed","inputs":[{"name":"token","type":"address","internalType":"address"},{"name":"from","type":"address","internalType":"address"},{"name":"to","type":"address","internalType":"address"},{"name":"tokenId","type":"uint256","internalType":"uint256"},{"name":"amount","type":"uint256","internalType":"uint256"}]},{"type":"error","name":"InsufficientValue","inputs":[]},{"type":"error","name":"InvalidEAS","inputs":[]},{"type":"error","name":"InvalidLength","inputs":[]},{"type":"error","name":"InvalidSchema","inputs":[]},{"type":"error","name":"NotFromThisAttester","inputs":[]},{"type":"error","name":"NotPayable","inputs":[]}],"bytecode":{"object":"0x61016080604052346101e3576040816116428038038091610020828561021d565b8339810103126101e35780516001600160a01b038116918282036101e35760200151916001600160a01b0383168084036101e357604051606081016001600160401b0381118282101761020957604052603d815260208101927f6164647265737320746f6b656e2c2075696e7432353620746f6b656e49642c2084527f75696e7432353620616d6f756e742c206164647265737320706179656500000060408301526001608052600360a0525f60c052156101fa576084948460209560e05261012052610100525f604051958680958194630c1af44f60e31b8352606060048401525180918160648501528484015e818101830184905230602483015260016044830152601f01601f191681010301925af19081156101ef575f916101b9575b506101405260405161140190816102418239608051816109d0015260a051816109fb015260c05181610a26015260e0518161135f0152610100518161085201526101205181818161057e015261111601526101405181818161025f015281816105b6015281816108200152818161098e01526110690152f35b90506020813d6020116101e7575b816101d46020938361021d565b810103126101e357515f610140565b5f80fd5b3d91506101c7565b6040513d5f823e3d90fd5b6341bc07ff60e11b5f5260045ffd5b634e487b7160e01b5f52604160045260245ffd5b601f909101601f19168101906001600160401b038211908210176102095760405256fe60806040526004361015610027575b3615610018575f80fd5b631574f9f360e01b5f5260045ffd5b5f3560e01c806354fd4d50146109b15780635bf2f20d146109775780636b122fe0146107e15780636f0aa0de1461076e57806388e5b2d91461074f57806391db0b7e1461074f578063b3b902d414610709578063c6ec5070146104fb578063c93844be1461046e578063ce46e04614610454578063e49617e11461042f578063e60c35051461042f578063e665ba151461037f578063e6c9714d146101475763f0ffa1850361000e5760a0366003190112610143576004356001600160401b038111610143576100fb903690600401610b67565b610103610b94565b916044356001600160a01b038116810361014357606435906001600160a01b03821682036101435760209461013b9460843594610efb565b604051908152f35b5f80fd5b34610143576060366003190112610143576004356001600160401b038111610143576101406003198236030112610143576040519061018582610c21565b806004013582526020820190602481013582526101a460448201610baa565b60408401526101b560648201610baa565b606084019081526101c860848301610baa565b916080850192835260a481013560a08601526101e660c48201610ad3565b60c08601526101f760e48201610ad3565b60e08601526101048101358015158103610143576101008601526101248101356001600160401b038111610143576101209160046102389236920101610caf565b94019384526024356001600160401b0381116101435761025c903690600401610caf565b927f000000000000000000000000000000000000000000000000000000000000000090510361037057516001600160401b03168015159081610366575b5061035757516001600160401b0316610348576102d36102c460209351848082518301019101610e6f565b91838082518301019101610e6f565b815181516001600160a01b039081169116149182610338575b82610324575b82610304575b50506040519015158152f35b6060908101519101516001600160a01b03908116911614905082806102f8565b9150604082015160408201511115916102f2565b83810151828501511492506102ec565b637b6227e960e11b5f5260045ffd5b631ab7da6b60e01b5f5260045ffd5b9050421184610299565b635f9bd90760e11b5f5260045ffd5b34610143576080366003190112610143576103d360206040516103b5816103a7848201610d10565b03601f198101835282610c3d565b6040518093819263f0ffa18560e01b83523390339060048501610d59565b03815f305af18015610424575f906103f1575b602090604051908152f35b506020813d60201161041c575b8161040b60209383610c3d565b8101031261014357602090516103e6565b3d91506103fe565b6040513d5f823e3d90fd5b602061044a61043d36610bbe565b61044561135d565b61139e565b6040519015158152f35b34610143575f3660031901126101435760206040515f8152f35b34610143576020366003190112610143576004356001600160401b038111610143576104b56104a46104f7923690600401610b67565b6104ac610e37565b50810190610eb9565b604051918291829190916060608082019360018060a01b03815116835260208101516020840152604081015160408401528160018060a01b0391015116910152565b0390f35b3461014357602036600319011261014357610514610e37565b50606061012060405161052681610c21565b5f81525f60208201525f60408201525f838201525f60808201525f60a08201525f60c08201525f60e08201525f61010082015201526040516328c44a9960e21b815260043560048201525f8160248160018060a01b037f0000000000000000000000000000000000000000000000000000000000000000165afa908115610424575f91610604575b5060208101517f0000000000000000000000000000000000000000000000000000000000000000036105f5576104b56101206104f792015160208082518301019101610e6f565b635527981560e11b5f5260045ffd5b90503d805f833e6106158183610c3d565b810190602081830312610143578051906001600160401b03821161014357019061014082820312610143576040519161064d83610c21565b8051835260208101516020840152610667604082016113b7565b6040840152610678606082016113b7565b6060840152610689608082016113b7565b608084015260a081015160a08401526106a460c08201610e5b565b60c08401526106b560e08201610e5b565b60e08401526106c76101008201610ccd565b610100840152610120810151906001600160401b03821161014357019080601f830112156101435781516106fd92602001610cda565b610120820152816105ae565b6060366003190112610143576004356001600160401b0381116101435761013b6107396020923690600401610b67565b610741610b94565b916044359233923392610efb565b602061044a61075d36610b17565b9261076992919261135d565b610d93565b3461014357366003190160c0811261014357608013610143576084356001600160a01b03811681036101435760a435906001600160a01b0382168203610143576020906040516107c3816103a7858201610d10565b6103d3604051948593849363f0ffa18560e01b855260048501610d59565b34610143575f3660031901126101435760608060405161080081610bf2565b5f81525f60208201525f604082015201526040516351753e3760e11b81527f000000000000000000000000000000000000000000000000000000000000000060048201525f8160248160018060a01b037f0000000000000000000000000000000000000000000000000000000000000000165afa8015610424575f906108c7575b6060906104f7604051928392602084528051602085015260018060a01b0360208201511660408501526040810151151582850152015160808084015260a0830190610aaf565b503d805f833e6108d78183610c3d565b810190602081830312610143578051906001600160401b0382116101435701608081830312610143576040519061090d82610bf2565b8051825260208101516001600160a01b038116810361014357602083015261093760408201610ccd565b60408301526060810151906001600160401b038211610143570182601f820112156101435760609281602061096e93519101610cda565b82820152610881565b34610143575f3660031901126101435760206040517f00000000000000000000000000000000000000000000000000000000000000008152f35b34610143575f366003190112610143576104f76020610a9f60016109f47f00000000000000000000000000000000000000000000000000000000000000006111f0565b8184610a1f7f00000000000000000000000000000000000000000000000000000000000000006111f0565b8180610a4a7f00000000000000000000000000000000000000000000000000000000000000006111f0565b9260405199878b985191829101848a015e870190601760f91b83830152805192839101602183015e010190601760f91b84830152805192839101600283015e01015f838201520301601f198101835282610c3d565b6040519182916020835260208301905b805180835260209291819084018484015e5f828201840152601f01601f1916010190565b35906001600160a01b038216820361014357565b9181601f84011215610143578235916001600160401b038311610143576020808501948460051b01011161014357565b6040600319820112610143576004356001600160401b0381116101435781610b4191600401610ae7565b92909291602435906001600160401b03821161014357610b6391600401610ae7565b9091565b9181601f84011215610143578235916001600160401b038311610143576020838186019501011161014357565b602435906001600160401b038216820361014357565b35906001600160401b038216820361014357565b602060031982011261014357600435906001600160401b038211610143576101409082900360031901126101435760040190565b608081019081106001600160401b03821117610c0d57604052565b634e487b7160e01b5f52604160045260245ffd5b61014081019081106001600160401b03821117610c0d57604052565b90601f801991011681019081106001600160401b03821117610c0d57604052565b6001600160401b038111610c0d57601f01601f191660200190565b929192610c8582610c5e565b91610c936040519384610c3d565b829481845281830111610143578281602093845f960137010152565b9080601f8301121561014357816020610cca93359101610c79565b90565b5190811515820361014357565b929192610ce682610c5e565b91610cf46040519384610c3d565b829481845281830111610143578281602093845f96015e010152565b6080810191906004356001600160a01b03811690819003610143578152602435602082015260443560408201526064356001600160a01b03811691908290036101435760600152565b5f929493610d7160809360a0845260a0840190610aaf565b602083018590526001600160a01b039687166040840152951660608201520152565b929092818403610e28575f91345b85841015610e1d5781841015610e09578360051b8086013590828211610dfa5784013561013e198536030181121561014357610dde90850161139e565b15610def5760019103930192610da1565b505050505050505f90565b63044044a560e21b5f5260045ffd5b634e487b7160e01b5f52603260045260245ffd5b505050505050600190565b63251f56a160e21b5f5260045ffd5b60405190610e4482610bf2565b5f6060838281528260208201528260408201520152565b51906001600160a01b038216820361014357565b9081608091031261014357610eb1606060405192610e8c84610bf2565b610e9581610e5b565b8452602081015160208501526040810151604085015201610e5b565b606082015290565b9081608091031261014357610eb1606060405192610ed684610bf2565b610edf81610ad3565b8452602081013560208501526040810135604085015201610ad3565b95909491939293610f0e86880188610eb9565b938451935f98606087019860018060a01b038a5116602089019788519160408b015160018060a01b0383163b1561014357604051637921219560e11b81526001600160a01b03808f16600483015260248201939093526044810194909452606484015260a060848401525f60a4840181905291839160c49183918591165af190816111db575b50610fe15787518a5188516040808c0151905163334a7d1b60e21b81526001600160a01b0394851660048201528d851660248201529390921660448401526064830152608482015260a490fd5b9296509296509350610ff69296503691610c79565b906040519260c084018481106001600160401b038211176111c757906001600160401b039160405260018060a01b03169485855216602084015260016040840152606083015260808201528360a0820152604051604081018181106001600160401b038211176111b357906020916040527f000000000000000000000000000000000000000000000000000000000000000081528181019283526040518093819263f17325e760e01b8352846004840152516024830152516040604483015260018060a01b0381511660648301526001600160401b03848201511660848301526040810151151560a4830152606081015160c483015260a0611108608083015160c060e4860152610124850190610aaf565b9101516101048301520381877f00000000000000000000000000000000000000000000000000000000000000006001600160a01b03165af19081156111a8578491611176575b507f4b5d781b1f4414459813c44d669c7821fcdec72a83b67c0303229be68d03ad05819480a3565b90506020813d6020116111a0575b8161119160209383610c3d565b8101031261014357515f61114e565b3d9150611184565b6040513d86823e3d90fd5b634e487b7160e01b86526041600452602486fd5b634e487b7160e01b88526041600452602488fd5b6111e8919c505f90610c3d565b5f9a5f610f94565b805f9172184f03e93ff9f4daa797ed6e38ed64bf6a1f0160401b82101561133a575b806d04ee2d6d415b85acef8100000000600a92101561131f575b662386f26fc1000081101561130b575b6305f5e1008110156112fa575b6127108110156112eb575b60648110156112dd575b10156112d2575b600a6021600184019361127785610c5e565b946112856040519687610c3d565b808652611294601f1991610c5e565b013660208701378401015b5f1901916f181899199a1a9b1b9c1cb0b131b232b360811b8282061a83530480156112cd57600a909161129f565b505090565b600190910190611265565b60646002910493019261125e565b61271060049104930192611254565b6305f5e10060089104930192611249565b662386f26fc100006010910493019261123c565b6d04ee2d6d415b85acef81000000006020910493019261122c565b506040915072184f03e93ff9f4daa797ed6e38ed64bf6a1f0160401b8104611212565b7f00000000000000000000000000000000000000000000000000000000000000006001600160a01b0316330361138f57565b634ca8886760e01b5f5260045ffd5b60e0013560018060a01b03811680910361014357301490565b51906001600160401b03821682036101435756fea2646970667358221220b0e3b55c879b48efcdd77c43d4a62d4f3855999adc3ae6ab78cc6d59aad689f164736f6c634300081b0033","linkReferences":{}},"methodIdentifiers":{"ATTESTATION_SCHEMA()":"5bf2f20d","attest((bytes32,bytes32,uint64,uint64,uint64,bytes32,address,address,bool,bytes))":"e60c3505","checkObligation((bytes32,bytes32,uint64,uint64,uint64,bytes32,address,address,bool,bytes),bytes,bytes32)":"e6c9714d","decodeObligationData(bytes)":"c93844be","doObligation((address,uint256,uint256,address))":"e665ba15","doObligationFor((address,uint256,uint256,address),address,address)":"6f0aa0de","doObligationForRaw(bytes,uint64,address,address,bytes32)":"f0ffa185","doObligationRaw(bytes,uint64,bytes32)":"b3b902d4","getObligationData(bytes32)":"c6ec5070","getSchema()":"6b122fe0","isPayable()":"ce46e046","multiAttest((bytes32,bytes32,uint64,uint64,uint64,bytes32,address,address,bool,bytes)[],uint256[])":"91db0b7e","multiRevoke((bytes32,bytes32,uint64,uint64,uint64,bytes32,address,address,bool,bytes)[],uint256[])":"88e5b2d9","revoke((bytes32,bytes32,uint64,uint64,uint64,bytes32,address,address,bool,bytes))":"e49617e1","version()":"54fd4d50"},"id":116}