{"abi":[{"type":"constructor","inputs":[{"name":"_eas","type":"address","internalType":"contract IEAS"},{"name":"_schemaRegistry","type":"address","internalType":"contract ISchemaRegistry"}],"stateMutability":"nonpayable"},{"type":"receive","stateMutability":"payable"},{"type":"function","name":"ATTESTATION_SCHEMA","inputs":[],"outputs":[{"name":"","type":"bytes32","internalType":"bytes32"}],"stateMutability":"view"},{"type":"function","name":"attest","inputs":[{"name":"attestation","type":"tuple","internalType":"struct Attestation","components":[{"name":"uid","type":"bytes32","internalType":"bytes32"},{"name":"schema","type":"bytes32","internalType":"bytes32"},{"name":"time","type":"uint64","internalType":"uint64"},{"name":"expirationTime","type":"uint64","internalType":"uint64"},{"name":"revocationTime","type":"uint64","internalType":"uint64"},{"name":"refUID","type":"bytes32","internalType":"bytes32"},{"name":"recipient","type":"address","internalType":"address"},{"name":"attester","type":"address","internalType":"address"},{"name":"revocable","type":"bool","internalType":"bool"},{"name":"data","type":"bytes","internalType":"bytes"}]}],"outputs":[{"name":"","type":"bool","internalType":"bool"}],"stateMutability":"payable"},{"type":"function","name":"checkObligation","inputs":[{"name":"obligation","type":"tuple","internalType":"struct Attestation","components":[{"name":"uid","type":"bytes32","internalType":"bytes32"},{"name":"schema","type":"bytes32","internalType":"bytes32"},{"name":"time","type":"uint64","internalType":"uint64"},{"name":"expirationTime","type":"uint64","internalType":"uint64"},{"name":"revocationTime","type":"uint64","internalType":"uint64"},{"name":"refUID","type":"bytes32","internalType":"bytes32"},{"name":"recipient","type":"address","internalType":"address"},{"name":"attester","type":"address","internalType":"address"},{"name":"revocable","type":"bool","internalType":"bool"},{"name":"data","type":"bytes","internalType":"bytes"}]},{"name":"demand","type":"bytes","internalType":"bytes"},{"name":"","type":"bytes32","internalType":"bytes32"}],"outputs":[{"name":"","type":"bool","internalType":"bool"}],"stateMutability":"view"},{"type":"function","name":"collectEscrow","inputs":[{"name":"escrow","type":"bytes32","internalType":"bytes32"},{"name":"fulfillment","type":"bytes32","internalType":"bytes32"}],"outputs":[{"name":"","type":"bool","internalType":"bool"}],"stateMutability":"nonpayable"},{"type":"function","name":"collectEscrowRaw","inputs":[{"name":"_escrow","type":"bytes32","internalType":"bytes32"},{"name":"_fulfillment","type":"bytes32","internalType":"bytes32"}],"outputs":[{"name":"","type":"bytes","internalType":"bytes"}],"stateMutability":"nonpayable"},{"type":"function","name":"decodeObligationData","inputs":[{"name":"data","type":"bytes","internalType":"bytes"}],"outputs":[{"name":"","type":"tuple","internalType":"struct ERC20EscrowObligation.ObligationData","components":[{"name":"arbiter","type":"address","internalType":"address"},{"name":"demand","type":"bytes","internalType":"bytes"},{"name":"token","type":"address","internalType":"address"},{"name":"amount","type":"uint256","internalType":"uint256"}]}],"stateMutability":"pure"},{"type":"function","name":"doObligation","inputs":[{"name":"data","type":"tuple","internalType":"struct ERC20EscrowObligation.ObligationData","components":[{"name":"arbiter","type":"address","internalType":"address"},{"name":"demand","type":"bytes","internalType":"bytes"},{"name":"token","type":"address","internalType":"address"},{"name":"amount","type":"uint256","internalType":"uint256"}]},{"name":"expirationTime","type":"uint64","internalType":"uint64"}],"outputs":[{"name":"","type":"bytes32","internalType":"bytes32"}],"stateMutability":"nonpayable"},{"type":"function","name":"doObligationFor","inputs":[{"name":"data","type":"tuple","internalType":"struct ERC20EscrowObligation.ObligationData","components":[{"name":"arbiter","type":"address","internalType":"address"},{"name":"demand","type":"bytes","internalType":"bytes"},{"name":"token","type":"address","internalType":"address"},{"name":"amount","type":"uint256","internalType":"uint256"}]},{"name":"expirationTime","type":"uint64","internalType":"uint64"},{"name":"payer","type":"address","internalType":"address"},{"name":"recipient","type":"address","internalType":"address"}],"outputs":[{"name":"","type":"bytes32","internalType":"bytes32"}],"stateMutability":"nonpayable"},{"type":"function","name":"doObligationForRaw","inputs":[{"name":"data","type":"bytes","internalType":"bytes"},{"name":"expirationTime","type":"uint64","internalType":"uint64"},{"name":"payer","type":"address","internalType":"address"},{"name":"recipient","type":"address","internalType":"address"},{"name":"refUID","type":"bytes32","internalType":"bytes32"}],"outputs":[{"name":"uid_","type":"bytes32","internalType":"bytes32"}],"stateMutability":"payable"},{"type":"function","name":"doObligationRaw","inputs":[{"name":"data","type":"bytes","internalType":"bytes"},{"name":"expirationTime","type":"uint64","internalType":"uint64"},{"name":"refUID","type":"bytes32","internalType":"bytes32"}],"outputs":[{"name":"uid_","type":"bytes32","internalType":"bytes32"}],"stateMutability":"payable"},{"type":"function","name":"extractArbiterAndDemand","inputs":[{"name":"data","type":"bytes","internalType":"bytes"}],"outputs":[{"name":"arbiter","type":"address","internalType":"address"},{"name":"demand","type":"bytes","internalType":"bytes"}],"stateMutability":"pure"},{"type":"function","name":"getObligationData","inputs":[{"name":"uid","type":"bytes32","internalType":"bytes32"}],"outputs":[{"name":"","type":"tuple","internalType":"struct ERC20EscrowObligation.ObligationData","components":[{"name":"arbiter","type":"address","internalType":"address"},{"name":"demand","type":"bytes","internalType":"bytes"},{"name":"token","type":"address","internalType":"address"},{"name":"amount","type":"uint256","internalType":"uint256"}]}],"stateMutability":"view"},{"type":"function","name":"getSchema","inputs":[],"outputs":[{"name":"","type":"tuple","internalType":"struct SchemaRecord","components":[{"name":"uid","type":"bytes32","internalType":"bytes32"},{"name":"resolver","type":"address","internalType":"contract ISchemaResolver"},{"name":"revocable","type":"bool","internalType":"bool"},{"name":"schema","type":"string","internalType":"string"}]}],"stateMutability":"view"},{"type":"function","name":"isPayable","inputs":[],"outputs":[{"name":"","type":"bool","internalType":"bool"}],"stateMutability":"pure"},{"type":"function","name":"multiAttest","inputs":[{"name":"attestations","type":"tuple[]","internalType":"struct Attestation[]","components":[{"name":"uid","type":"bytes32","internalType":"bytes32"},{"name":"schema","type":"bytes32","internalType":"bytes32"},{"name":"time","type":"uint64","internalType":"uint64"},{"name":"expirationTime","type":"uint64","internalType":"uint64"},{"name":"revocationTime","type":"uint64","internalType":"uint64"},{"name":"refUID","type":"bytes32","internalType":"bytes32"},{"name":"recipient","type":"address","internalType":"address"},{"name":"attester","type":"address","internalType":"address"},{"name":"revocable","type":"bool","internalType":"bool"},{"name":"data","type":"bytes","internalType":"bytes"}]},{"name":"values","type":"uint256[]","internalType":"uint256[]"}],"outputs":[{"name":"","type":"bool","internalType":"bool"}],"stateMutability":"payable"},{"type":"function","name":"multiRevoke","inputs":[{"name":"attestations","type":"tuple[]","internalType":"struct Attestation[]","components":[{"name":"uid","type":"bytes32","internalType":"bytes32"},{"name":"schema","type":"bytes32","internalType":"bytes32"},{"name":"time","type":"uint64","internalType":"uint64"},{"name":"expirationTime","type":"uint64","internalType":"uint64"},{"name":"revocationTime","type":"uint64","internalType":"uint64"},{"name":"refUID","type":"bytes32","internalType":"bytes32"},{"name":"recipient","type":"address","internalType":"address"},{"name":"attester","type":"address","internalType":"address"},{"name":"revocable","type":"bool","internalType":"bool"},{"name":"data","type":"bytes","internalType":"bytes"}]},{"name":"values","type":"uint256[]","internalType":"uint256[]"}],"outputs":[{"name":"","type":"bool","internalType":"bool"}],"stateMutability":"payable"},{"type":"function","name":"reclaimExpired","inputs":[{"name":"uid","type":"bytes32","internalType":"bytes32"}],"outputs":[{"name":"","type":"bool","internalType":"bool"}],"stateMutability":"nonpayable"},{"type":"function","name":"revoke","inputs":[{"name":"attestation","type":"tuple","internalType":"struct Attestation","components":[{"name":"uid","type":"bytes32","internalType":"bytes32"},{"name":"schema","type":"bytes32","internalType":"bytes32"},{"name":"time","type":"uint64","internalType":"uint64"},{"name":"expirationTime","type":"uint64","internalType":"uint64"},{"name":"revocationTime","type":"uint64","internalType":"uint64"},{"name":"refUID","type":"bytes32","internalType":"bytes32"},{"name":"recipient","type":"address","internalType":"address"},{"name":"attester","type":"address","internalType":"address"},{"name":"revocable","type":"bool","internalType":"bool"},{"name":"data","type":"bytes","internalType":"bytes"}]}],"outputs":[{"name":"","type":"bool","internalType":"bool"}],"stateMutability":"payable"},{"type":"function","name":"version","inputs":[],"outputs":[{"name":"","type":"string","internalType":"string"}],"stateMutability":"view"},{"type":"event","name":"EscrowCollected","inputs":[{"name":"escrow","type":"bytes32","indexed":true,"internalType":"bytes32"},{"name":"fulfillment","type":"bytes32","indexed":true,"internalType":"bytes32"},{"name":"fulfiller","type":"address","indexed":true,"internalType":"address"}],"anonymous":false},{"type":"event","name":"EscrowMade","inputs":[{"name":"escrow","type":"bytes32","indexed":true,"internalType":"bytes32"},{"name":"buyer","type":"address","indexed":true,"internalType":"address"}],"anonymous":false},{"type":"error","name":"AccessDenied","inputs":[]},{"type":"error","name":"AttestationNotFound","inputs":[{"name":"attestationId","type":"bytes32","internalType":"bytes32"}]},{"type":"error","name":"AttestationRevoked","inputs":[]},{"type":"error","name":"DeadlineExpired","inputs":[]},{"type":"error","name":"ERC20TransferFailed","inputs":[{"name":"token","type":"address","internalType":"address"},{"name":"from","type":"address","internalType":"address"},{"name":"to","type":"address","internalType":"address"},{"name":"amount","type":"uint256","internalType":"uint256"}]},{"type":"error","name":"InsufficientValue","inputs":[]},{"type":"error","name":"InvalidEAS","inputs":[]},{"type":"error","name":"InvalidEscrowAttestation","inputs":[]},{"type":"error","name":"InvalidFulfillment","inputs":[]},{"type":"error","name":"InvalidLength","inputs":[]},{"type":"error","name":"InvalidSchema","inputs":[]},{"type":"error","name":"NotFromThisAttester","inputs":[]},{"type":"error","name":"NotPayable","inputs":[]},{"type":"error","name":"RevocationFailed","inputs":[{"name":"attestationId","type":"bytes32","internalType":"bytes32"}]},{"type":"error","name":"UnauthorizedCall","inputs":[]}],"bytecode":{"object":"0x61016080604052346101f857604081611e0f80380380916100208285610232565b8339810103126101f85780516001600160a01b038116918282036101f85760200151916001600160a01b0383168084036101f857604051606081016001600160401b0381118282101761021e57604052603c815260208101927f6164647265737320617262697465722c2062797465732064656d616e642c206184527f64647265737320746f6b656e2c2075696e7432353620616d6f756e740000000060408301526001608052600360a0525f60c0521561020f576084948460209560e05261012052610100525f604051958680958194630c1af44f60e31b8352606060048401525180918160648501528484015e818101830184905230602483015260016044830152601f01601f191681010301925af1908115610204575f916101ce575b5061014052604051611bb99081610256823960805181610927015260a05181610952015260c0518161097d015260e051816119d6015261010051816107a90152610120518181816103be015281816106820152818161115301526117560152610140518181816103fe01528181610777015281816108e501528181611332015281816114cb01526116a90152f35b90506020813d6020116101fc575b816101e960209383610232565b810103126101f857515f610140565b5f80fd5b3d91506101dc565b6040513d5f823e3d90fd5b6341bc07ff60e11b5f5260045ffd5b634e487b7160e01b5f52604160045260245ffd5b601f909101601f19168101906001600160401b0382119082101761021e5760405256fe60806040526004361015610027575b3615610018575f80fd5b631574f9f360e01b5f5260045ffd5b5f3560e01c80632c713cd914610a855780633ce55d02146109f657806354fd4d50146109085780635bf2f20d146108ce5780636b122fe0146107385780637d2c29311461064a5780638371ef59146105ec57806388e5b2d91461059f578063891d9ea8146105be57806391db0b7e1461059f578063a4f0d517146104cb578063b3b902d414610485578063c6ec50701461037f578063c93844be146102b2578063ce46e04614610298578063e49617e11461027d578063e60c35051461027d578063e6c9714d1461015b5763f0ffa1850361000e5760a0366003190112610157576004356001600160401b0381116101575761014f61012c6020923690600401610cac565b610134610aa8565b61013c610ad2565b90610145610ae8565b92608435946115ba565b604051908152f35b5f80fd5b34610157576060366003190112610157576004356001600160401b038111610157576101406003198236030112610157576040519061019982610b65565b80600401358252602481013560208301526101b660448201610abe565b60408301526101c760648201610abe565b60608301526101d860848201610abe565b608083015260a481013560a08301526101f360c48201610afe565b60c083015261020460e48201610afe565b60e0830152610104810135801515810361015757610100830152610124810135906001600160401b0382116101575760046102429236920101610c0e565b6101208201526024356001600160401b0381116101575760209161026d610273923690600401610c0e565b906114c9565b6040519015158152f35b602061027361028b36610d23565b6102936119d4565b611a15565b34610157575f3660031901126101575760206040515f8152f35b34610157576020366003190112610157576004356001600160401b038111610157576102e2903690600401610cac565b6102ea6114a5565b50810190602081830312610157578035906001600160401b038211610157570190608082820312610157576040519061032282610b36565b61032b83610afe565b82526020830135926001600160401b0384116101575761035260609261037b958301610c0e565b602084015261036360408201610afe565b60408401520135606082015260405191829182610cd9565b0390f35b34610157576020366003190112610157576103986114a5565b506103a1610e75565b506040516328c44a9960e21b815260048035908201525f816024817f00000000000000000000000000000000000000000000000000000000000000006001600160a01b03165afa90811561047a575f91610458575b5060208101517f0000000000000000000000000000000000000000000000000000000000000000036104495761043d61012061037b92015160208082518301019101610fdc565b60405191829182610cd9565b635527981560e11b5f5260045ffd5b61047491503d805f833e61046c8183610b9c565b810190610f01565b816103f6565b6040513d5f823e3d90fd5b6060366003190112610157576004356001600160401b0381116101575761014f6104b56020923690600401610cac565b6104bd610aa8565b9160443592339233926115ba565b34610157576040366003190112610157576004356001600160401b038111610157576080600319823603011261015757602061054e9161052161052f61050f610aa8565b92604051928391600401868301610d57565b03601f198101835282610b9c565b60405163f0ffa18560e01b815293849283923391829160048601610def565b03815f305af1801561047a575f9061056c575b602090604051908152f35b506020813d602011610597575b8161058660209383610b9c565b810103126101575760209051610561565b3d9150610579565b60206102736105ad36610c5c565b926105b99291926119d4565b611085565b346101575761037b6105d86105d236610a92565b90611129565b604051918291602083526020830190610b12565b34610157576020366003190112610157576004356001600160401b0381116101575761061f610624913690600401610c0e565b61105c565b604080516001600160a01b03909316835260208301819052829161037b91830190610b12565b3461015757602036600319011261015757600435610666610e75565b506040516328c44a9960e21b8152600481018290525f816024817f00000000000000000000000000000000000000000000000000000000000000006001600160a01b03165afa5f918161071c575b506106cc57506301fb6dd160e01b5f5260045260245ffd5b6001600160401b03606082015116421061070d5761012081015160c090910151610701916001600160a01b0390911690611a89565b50602060405160018152f35b637bf6a16f60e01b5f5260045ffd5b6107319192503d805f833e61046c8183610b9c565b90836106b4565b34610157575f3660031901126101575760608060405161075781610b36565b5f81525f60208201525f604082015201526040516351753e3760e11b81527f000000000000000000000000000000000000000000000000000000000000000060048201525f8160248160018060a01b037f0000000000000000000000000000000000000000000000000000000000000000165afa801561047a575f9061081e575b60609061037b604051928392602084528051602085015260018060a01b0360208201511660408501526040810151151582850152015160808084015260a0830190610b12565b503d805f833e61082e8183610b9c565b810190602081830312610157578051906001600160401b0382116101575701608081830312610157576040519061086482610b36565b8051825260208101516001600160a01b038116810361015757602083015261088e60408201610e32565b60408301526060810151906001600160401b038211610157570182601f82011215610157576060928160206108c593519101610e3f565b828201526107d8565b34610157575f3660031901126101575760206040517f00000000000000000000000000000000000000000000000000000000000000008152f35b34610157575f3660031901126101575761037b60206105d8600161094b7f0000000000000000000000000000000000000000000000000000000000000000611867565b81846109767f0000000000000000000000000000000000000000000000000000000000000000611867565b81806109a17f0000000000000000000000000000000000000000000000000000000000000000611867565b9260405199878b985191829101848a015e870190601760f91b83830152805192839101602183015e010190601760f91b84830152805192839101600283015e01015f838201520301601f198101835282610b9c565b34610157576080366003190112610157576004356001600160401b0381116101575760806003198236030112610157576020610a30610aa8565b610a5c61054e610a3e610ad2565b94610a6a610a4a610ae8565b91604051948591600401888301610d57565b03601f198101855284610b9c565b60405163f0ffa18560e01b8152958694859460048601610def565b34610157576107016105d2365b6040906003190112610157576004359060243590565b602435906001600160401b038216820361015757565b35906001600160401b038216820361015757565b604435906001600160a01b038216820361015757565b606435906001600160a01b038216820361015757565b35906001600160a01b038216820361015757565b805180835260209291819084018484015e5f828201840152601f01601f1916010190565b608081019081106001600160401b03821117610b5157604052565b634e487b7160e01b5f52604160045260245ffd5b61014081019081106001600160401b03821117610b5157604052565b604081019081106001600160401b03821117610b5157604052565b90601f801991011681019081106001600160401b03821117610b5157604052565b6001600160401b038111610b5157601f01601f191660200190565b929192610be482610bbd565b91610bf26040519384610b9c565b829481845281830111610157578281602093845f960137010152565b9080601f8301121561015757816020610c2993359101610bd8565b90565b9181601f84011215610157578235916001600160401b038311610157576020808501948460051b01011161015757565b6040600319820112610157576004356001600160401b0381116101575781610c8691600401610c2c565b92909291602435906001600160401b03821161015757610ca891600401610c2c565b9091565b9181601f84011215610157578235916001600160401b038311610157576020838186019501011161015757565b6020815260018060a01b03825116602082015260806060610d08602085015183604086015260a0850190610b12565b60408501516001600160a01b03168483015293015191015290565b602060031982011261015757600435906001600160401b038211610157576101409082900360031901126101575760040190565b602081526001600160a01b03610d6c83610afe565b1660208201526020820135601e19833603018112156101575782016020813591016001600160401b0382116101575781360381136101575760c09382606092608060408701528160a0870152868601375f8484018601526001600160a01b03610dd760408301610afe565b168483015201356080830152601f01601f1916010190565b90935f936001600160401b03610e11608095989760a0865260a0860190610b12565b971660208401526001600160a01b0390811660408401521660608201520152565b5190811515820361015757565b929192610e4b82610bbd565b91610e596040519384610b9c565b829481845281830111610157578281602093845f96015e010152565b60405190610e8282610b65565b6060610120835f81525f60208201525f60408201525f838201525f60808201525f60a08201525f60c08201525f60e08201525f6101008201520152565b51906001600160401b038216820361015757565b51906001600160a01b038216820361015757565b9080601f83011215610157578151610c2992602001610e3f565b602081830312610157578051906001600160401b0382116101575701610140818303126101575760405191610f3583610b65565b8151835260208201516020840152610f4f60408301610ebf565b6040840152610f6060608301610ebf565b6060840152610f7160808301610ebf565b608084015260a082015160a0840152610f8c60c08301610ed3565b60c0840152610f9d60e08301610ed3565b60e0840152610faf6101008301610e32565b6101008401526101208201516001600160401b03811161015757610fd39201610ee7565b61012082015290565b602081830312610157578051906001600160401b038211610157570190608082820312610157576040519161101083610b36565b61101981610ed3565b835260208101516001600160401b0381116101575760609261103c918301610ee7565b602084015261104d60408201610ed3565b60408401520151606082015290565b61106f9060208082518301019101610fdc565b80516020909101516001600160a01b0390911691565b92909281840361111a575f91345b8584101561110f57818410156110fb578360051b80860135908282116110ec5784013561013e1985360301811215610157576110d0908501611a15565b156110e15760019103930192611093565b505050505050505f90565b63044044a560e21b5f5260045ffd5b634e487b7160e01b5f52603260045260245ffd5b505050505050600190565b63251f56a160e21b5f5260045ffd5b915f611133610e75565b5061113c610e75565b506040516328c44a9960e21b8152600481018590527f00000000000000000000000000000000000000000000000000000000000000006001600160a01b0316905f81602481855afa5f9181611489575b506111a457856301fb6dd160e01b5f5260045260245ffd5b94919293946040516328c44a9960e21b81528660048201525f81602481865afa5f918161146d575b506111e457866301fb6dd160e01b5f5260045260245ffd5b959192939495926111f482611a2e565b1561145e576112d360206101208085019460c0886112e5611215895161105c565b91909451916040519889978896879663e6c9714d60e01b885260606004890152805160648901528b81015160848901526001600160401b0360408201511660a48901526001600160401b0360608201511660c48901526001600160401b0360808201511660e489015260a0810151610104890152019e8f60018060a01b0390511661012488015260018060a01b0360e082015116610144880152610100810151151561016488015201516101406101848701526101a4860190610b12565b84810360031901602486015290610b12565b604483019190915203916001600160a01b03165afa90811561047a575f91611424575b50156114155760405161131a81610b81565b8581525f60208201526040519061133082610b81565b7f0000000000000000000000000000000000000000000000000000000000000000825260208201908152823b156101575760645f92836020956040519687958694634692626760e01b86525160048601525180516024860152015160448401525af19081611400575b506113b25763614cf93960e01b85526004849052602485fd5b51825192949391927ff96e77bc177ae8e2ff25185e7c6d85f8ba97c8bdd9d46933aac70a7a33edf6c0916113ef916001600160a01b031690611a89565b94516001600160a01b03169380a490565b61140d9196505f90610b9c565b5f945f611399565b630ebe58ef60e11b5f5260045ffd5b90506020813d602011611456575b8161143f60209383610b9c565b810103126101575761145090610e32565b5f611308565b3d9150611432565b63629cd40b60e11b5f5260045ffd5b6114829192503d805f833e61046c8183610b9c565b905f6111cc565b61149e9192503d805f833e61046c8183610b9c565b905f61118c565b604051906114b282610b36565b5f6060838281528160208201528260408201520152565b7f00000000000000000000000000000000000000000000000000000000000000006020820151036115ab576114fd81611a2e565b156115a55761151d61012061152d92015160208082518301019101610fdc565b9160208082518301019101610fdc565b604082810151908201516001600160a01b039081169116149182611591575b82611578575b8261155c57505090565b6020919250810151818151910120910151602081519101201490565b805182516001600160a01b039081169116149250611552565b91506060820151606082015111159161154c565b50505f90565b635f9bd90760e11b5f5260045ffd5b91939594926115dc6115cd368486610bd8565b60208082518301019101610fdc565b90604082015f6020606060018060a01b038451169501946064865160405194859384926323b872dd60e01b845260018060a01b038a16600485015230602485015260448401525af15f918161182b575b5061182657505f5b156117ea5750505090611648913691610bd8565b906040519460c08601908682106001600160401b03831117610b51576001600160401b039160405260018060a01b03169384875216602086015260016040860152606085015260808401525f60a084015260206040516116a781610b81565b7f000000000000000000000000000000000000000000000000000000000000000081528181019485526040518095819263f17325e760e01b8352846004840152516024830152516040604483015260018060a01b0381511660648301526001600160401b03848201511660848301526040810151151560a4830152606081015160c483015260a0611748608083015160c060e4860152610124850190610b12565b91015161010483015203815f7f00000000000000000000000000000000000000000000000000000000000000006001600160a01b03165af192831561047a575f936117b6575b50827f8f7f2dbafd79125e808bf16a53d7fa4e17b8b6374ced76d946a45f94b7bf4d065f80a3565b9092506020813d6020116117e2575b816117d260209383610b9c565b810103126101575751915f61178e565b3d91506117c5565b519151604051634a73404560e11b81526001600160a01b0393841660048201529190921660248201523060448201526064810191909152608490fd5b611634565b9091506020813d60201161185f575b8161184760209383610b9c565b810103126101575761185890610e32565b905f61162c565b3d915061183a565b805f9172184f03e93ff9f4daa797ed6e38ed64bf6a1f0160401b8210156119b1575b806d04ee2d6d415b85acef8100000000600a921015611996575b662386f26fc10000811015611982575b6305f5e100811015611971575b612710811015611962575b6064811015611954575b1015611949575b600a602160018401936118ee85610bbd565b946118fc6040519687610b9c565b80865261190b601f1991610bbd565b013660208701378401015b5f1901916f181899199a1a9b1b9c1cb0b131b232b360811b8282061a835304801561194457600a9091611916565b505090565b6001909101906118dc565b6064600291049301926118d5565b612710600491049301926118cb565b6305f5e100600891049301926118c0565b662386f26fc10000601091049301926118b3565b6d04ee2d6d415b85acef8100000000602091049301926118a3565b506040915072184f03e93ff9f4daa797ed6e38ed64bf6a1f0160401b8104611889565b7f00000000000000000000000000000000000000000000000000000000000000006001600160a01b03163303611a0657565b634ca8886760e01b5f5260045ffd5b60e0013560018060a01b03811680910361015757301490565b6001600160401b036060820151168015159081611a7f575b50611a7057608001516001600160401b0316611a6157600190565b637b6227e960e11b5f5260045ffd5b631ab7da6b60e01b5f5260045ffd5b905042115f611a46565b611a9c9060208082518301019101610fdc565b604081015f6020606060018060a01b0384511694019360448551604051948593849263a9059cbb60e01b845260018060a01b038b16600485015260248401525af15f9181611b47575b50611b4257505f5b15611b0957505050604051611b03602082610b9c565b5f815290565b519051604051634a73404560e11b81526001600160a01b0392831660048201523060248201529290911660448301526064820152608490fd5b611aed565b9091506020813d602011611b7b575b81611b6360209383610b9c565b8101031261015757611b7490610e32565b905f611ae5565b3d9150611b5656fea26469706673582212203fac997bdb8d78e2b712ad2f7bef2e9deb34e4cca74210da1ab26354c866454264736f6c634300081b0033","linkReferences":{}},"methodIdentifiers":{"ATTESTATION_SCHEMA()":"5bf2f20d","attest((bytes32,bytes32,uint64,uint64,uint64,bytes32,address,address,bool,bytes))":"e60c3505","checkObligation((bytes32,bytes32,uint64,uint64,uint64,bytes32,address,address,bool,bytes),bytes,bytes32)":"e6c9714d","collectEscrow(bytes32,bytes32)":"2c713cd9","collectEscrowRaw(bytes32,bytes32)":"891d9ea8","decodeObligationData(bytes)":"c93844be","doObligation((address,bytes,address,uint256),uint64)":"a4f0d517","doObligationFor((address,bytes,address,uint256),uint64,address,address)":"3ce55d02","doObligationForRaw(bytes,uint64,address,address,bytes32)":"f0ffa185","doObligationRaw(bytes,uint64,bytes32)":"b3b902d4","extractArbiterAndDemand(bytes)":"8371ef59","getObligationData(bytes32)":"c6ec5070","getSchema()":"6b122fe0","isPayable()":"ce46e046","multiAttest((bytes32,bytes32,uint64,uint64,uint64,bytes32,address,address,bool,bytes)[],uint256[])":"91db0b7e","multiRevoke((bytes32,bytes32,uint64,uint64,uint64,bytes32,address,address,bool,bytes)[],uint256[])":"88e5b2d9","reclaimExpired(bytes32)":"7d2c2931","revoke((bytes32,bytes32,uint64,uint64,uint64,bytes32,address,address,bool,bytes))":"e49617e1","version()":"54fd4d50"},"id":117}