{"abi":[{"type":"constructor","inputs":[{"name":"_eas","type":"address","internalType":"contract IEAS"},{"name":"_erc20Escrow","type":"address","internalType":"contract ERC20EscrowObligation"},{"name":"_erc20Payment","type":"address","internalType":"contract ERC20PaymentObligation"},{"name":"_erc721Escrow","type":"address","internalType":"contract ERC721EscrowObligation"},{"name":"_erc721Payment","type":"address","internalType":"contract ERC721PaymentObligation"},{"name":"_erc1155Escrow","type":"address","internalType":"contract ERC1155EscrowObligation"},{"name":"_erc1155Payment","type":"address","internalType":"contract ERC1155PaymentObligation"},{"name":"_bundleEscrow","type":"address","internalType":"contract TokenBundleEscrowObligation2"},{"name":"_bundlePayment","type":"address","internalType":"contract TokenBundlePaymentObligation2"},{"name":"_nativeEscrow","type":"address","internalType":"contract NativeTokenEscrowObligation"},{"name":"_nativePayment","type":"address","internalType":"contract NativeTokenPaymentObligation"}],"stateMutability":"nonpayable"},{"type":"function","name":"buyBundleWithErc721","inputs":[{"name":"bidToken","type":"address","internalType":"address"},{"name":"bidTokenId","type":"uint256","internalType":"uint256"},{"name":"askData","type":"tuple","internalType":"struct TokenBundlePaymentObligation2.ObligationData","components":[{"name":"nativeAmount","type":"uint256","internalType":"uint256"},{"name":"erc20Tokens","type":"address[]","internalType":"address[]"},{"name":"erc20Amounts","type":"uint256[]","internalType":"uint256[]"},{"name":"erc721Tokens","type":"address[]","internalType":"address[]"},{"name":"erc721TokenIds","type":"uint256[]","internalType":"uint256[]"},{"name":"erc1155Tokens","type":"address[]","internalType":"address[]"},{"name":"erc1155TokenIds","type":"uint256[]","internalType":"uint256[]"},{"name":"erc1155Amounts","type":"uint256[]","internalType":"uint256[]"},{"name":"payee","type":"address","internalType":"address"}]},{"name":"expiration","type":"uint64","internalType":"uint64"}],"outputs":[{"name":"","type":"bytes32","internalType":"bytes32"}],"stateMutability":"nonpayable"},{"type":"function","name":"buyErc1155WithErc721","inputs":[{"name":"bidToken","type":"address","internalType":"address"},{"name":"bidTokenId","type":"uint256","internalType":"uint256"},{"name":"askToken","type":"address","internalType":"address"},{"name":"askTokenId","type":"uint256","internalType":"uint256"},{"name":"askAmount","type":"uint256","internalType":"uint256"},{"name":"expiration","type":"uint64","internalType":"uint64"}],"outputs":[{"name":"","type":"bytes32","internalType":"bytes32"}],"stateMutability":"nonpayable"},{"type":"function","name":"buyErc20WithErc721","inputs":[{"name":"bidToken","type":"address","internalType":"address"},{"name":"bidTokenId","type":"uint256","internalType":"uint256"},{"name":"askToken","type":"address","internalType":"address"},{"name":"askAmount","type":"uint256","internalType":"uint256"},{"name":"expiration","type":"uint64","internalType":"uint64"}],"outputs":[{"name":"","type":"bytes32","internalType":"bytes32"}],"stateMutability":"nonpayable"},{"type":"function","name":"buyErc721ForErc721","inputs":[{"name":"bidToken","type":"address","internalType":"address"},{"name":"bidTokenId","type":"uint256","internalType":"uint256"},{"name":"askToken","type":"address","internalType":"address"},{"name":"askTokenId","type":"uint256","internalType":"uint256"},{"name":"expiration","type":"uint64","internalType":"uint64"}],"outputs":[{"name":"","type":"bytes32","internalType":"bytes32"}],"stateMutability":"nonpayable"},{"type":"function","name":"buyEthWithErc721","inputs":[{"name":"bidToken","type":"address","internalType":"address"},{"name":"bidTokenId","type":"uint256","internalType":"uint256"},{"name":"askAmount","type":"uint256","internalType":"uint256"},{"name":"expiration","type":"uint64","internalType":"uint64"}],"outputs":[{"name":"","type":"bytes32","internalType":"bytes32"}],"stateMutability":"nonpayable"},{"type":"function","name":"payErc721ForBundle","inputs":[{"name":"buyAttestation","type":"bytes32","internalType":"bytes32"}],"outputs":[{"name":"","type":"bytes32","internalType":"bytes32"}],"stateMutability":"nonpayable"},{"type":"function","name":"payErc721ForErc1155","inputs":[{"name":"buyAttestation","type":"bytes32","internalType":"bytes32"}],"outputs":[{"name":"","type":"bytes32","internalType":"bytes32"}],"stateMutability":"nonpayable"},{"type":"function","name":"payErc721ForErc20","inputs":[{"name":"buyAttestation","type":"bytes32","internalType":"bytes32"}],"outputs":[{"name":"","type":"bytes32","internalType":"bytes32"}],"stateMutability":"nonpayable"},{"type":"function","name":"payErc721ForErc721","inputs":[{"name":"buyAttestation","type":"bytes32","internalType":"bytes32"}],"outputs":[{"name":"","type":"bytes32","internalType":"bytes32"}],"stateMutability":"nonpayable"},{"type":"function","name":"payErc721ForEth","inputs":[{"name":"buyAttestation","type":"bytes32","internalType":"bytes32"}],"outputs":[{"name":"","type":"bytes32","internalType":"bytes32"}],"stateMutability":"nonpayable"},{"type":"function","name":"payEthForErc721","inputs":[{"name":"buyAttestation","type":"bytes32","internalType":"bytes32"}],"outputs":[{"name":"","type":"bytes32","internalType":"bytes32"}],"stateMutability":"payable"},{"type":"error","name":"AttestationNotFound","inputs":[{"name":"attestationId","type":"bytes32","internalType":"bytes32"}]},{"type":"error","name":"CouldntCollectEscrow","inputs":[]}],"bytecode":{"object":"0x6080346101ff57601f6117e838819003918201601f19168301916001600160401b0383118484101761020357808492610160946040528339810103126101ff5780516001600160a01b03811691908290036101ff5760208101516001600160a01b038116908190036101ff5760408201516001600160a01b038116908190036101ff5760608301516001600160a01b038116908190036101ff5760808401516001600160a01b038116908190036101ff5760a08501516001600160a01b03811691908290036101ff5760c08601516001600160a01b03811693908490036101ff5760e08701516001600160a01b03811695908690036101ff576101008801516001600160a01b03811697908890036101ff576101208901516001600160a01b03811699908a90036101ff5761014001516001600160a01b0381169a908b90036101ff5760018060a01b03195f5416175f5560018060a01b0319600154161760015560018060a01b0319600254161760025560018060a01b0319600354161760035560018060a01b0319600454161760045560018060a01b0319600554161760055560018060a01b0319600654161760065560018060a01b0319600754161760075560018060a01b0319600854161760085560018060a01b0319600954161760095560018060a01b0319600a541617600a556040516115d090816102188239f35b5f80fd5b634e487b7160e01b5f52604160045260245ffdfe6080806040526004361015610012575f80fd5b5f3560e01c90816341b81d5814610e7b575080635f19ead114610dc05780636590e21b14610c98578063793d455d146109e057806395aefd7c1461083e578063add4fc3d146106c8578063e32aa4631461068b578063e52f91ab146105be578063ebb48d90146104c8578063eff69b5e146102eb5763fc6febeb14610095575f80fd5b346102d45760803660031901126102d4576100ae611057565b6044356001600160401b0381116102d457806004019161012060031983360301126102d4576100db611081565b90600160a01b600190036003541692600160a01b6001900360085416946040519182916020830160209052803560408401526024820161011b9082611503565b60608501610120905261016085019061013392611537565b6101406044840183611503565b858303603f190160808701526101569291611576565b6101636064840183611503565b858303603f190160a08701526101799291611537565b6101866084840183611503565b858303603f190160c087015261019c9291611576565b6101a960a4840183611503565b858303603f190160e08701526101bf9291611537565b6101cc60c4840183611503565b858303603f19016101008701526101e39291611576565b9060e483016101f191611503565b848303603f19016101208601526102089291611576565b906001600160a01b039061021f906101040161106d565b1661014083015203601f19810182526102389082611156565b60405194610245866110e9565b855260208501526001600160a01b0316604080850191909152602435606085015251631e72ae8160e11b815292839182916102889133918291906004860161131b565b03815a6020945f91f180156102e0575f906102a9575b602090604051908152f35b506020813d6020116102d8575b816102c360209383611156565b810103126102d4576020905161029e565b5f80fd5b3d91506102b6565b6040513d5f823e3d90fd5b346102d45760203660031901126102d45760246004355f60018060a01b03815416604051938480926328c44a9960e21b82528560048301525afa80156102e0576103c0610365602061035561012082955f9889916104a6575b5001518280825183010191016113aa565b01518380825183010191016112dc565b600480546040805163446c5bf160e11b815284516001600160a01b03908116948201949094526020850151602482015293015182166044840152336064840181905260848401529195869391909216918391829060a4820190565b03925af19182156102e0575f92610471575b50600354604051632c713cd960e01b8152600481019290925260248201839052602090829060449082905f906001600160a01b03165af19081156102e0575f91610437575b501561042857602090604051908152f35b63a97a981d60e01b5f5260045ffd5b90506020813d602011610469575b8161045260209383611156565b810103126102d4576104639061119f565b82610417565b3d9150610445565b9091506020813d60201161049e575b8161048d60209383611156565b810103126102d457519060206103d2565b3d9150610480565b6104c291503d808b833e6104ba8183611156565b810190611201565b89610344565b346102d4576105a360206104db36611097565b60035460045460405192966001600160a01b03928316969290911694919390929161050583611120565b60018060a01b031682528782015233604082015261054e604051918883019060409060018060a01b038151168352602081015160208401528160018060a01b0391015116910152565b6060815261055d608082611156565b6040519361056a856110e9565b84528684015260018060a01b0316604083015260608201525f604051809681958294631e72ae8160e11b8452339133916004860161131b565b03925af180156102e0575f906102a957602090604051908152f35b346102d45760803660031901126102d4576105a360206105dc611057565b6105e4611081565b600354600a5460405192936001600160a01b039283169392909116916106098161113b565b6044358152338682015260405181518188019081526020928301516001600160a01b031692019190915260408152610642606082611156565b6040519261064f846110e9565b83528583015260018060a01b0316604082015260243560608201525f604051809681958294631e72ae8160e11b8452339133916004860161131b565b346102d4576105a3602061069e36611097565b60035460025460405192966001600160a01b03928316969290911694919390929161050583611120565b60203660031901126102d45760043560245f60018060a01b03815416604051928380926328c44a9960e21b82528660048301525afa9081156102e0575f91610824575b508051156108115761072c61012060209201518280825183010191016113aa565b0151906040828051810103126102d45760206107a1608460405161074f8161113b565b610762604085880151978884520161118b565b81850152600a546040516309c2f70b60e11b8152825160048201526020909201516001600160a01b039081166024840152919687948593919290911690565b3360448401523360648401525af19182156102e0575f926104715750600354604051632c713cd960e01b8152600481019290925260248201839052602090829060449082905f906001600160a01b03165af19081156102e0575f9161043757501561042857602090604051908152f35b506301fb6dd160e01b5f5260045260245ffd5b61083891503d805f833e6104ba8183611156565b8261070b565b346102d45760203660031901126102d45760043560245f60018060a01b03815416604051928380926328c44a9960e21b82528660048301525afa9081156102e0575f916109c6575b508051156108115761012001519081518201916020818403126102d4576020810151906001600160401b0382116102d45701916060838203126102d457604051906108d082611120565b6108dc6020850161118b565b825260408401516001600160401b0381116102d4575f946020936040606061091161036595888061092a9901918701016111ac565b93848885015201519101528380825183010191016112dc565b03925af19182156102e0575f92610991575b50600954604051632c713cd960e01b8152600481019290925260248201839052602090829060449082905f906001600160a01b03165af19081156102e0575f9161043757501561042857602090604051908152f35b9091506020813d6020116109be575b816109ad60209383611156565b810103126102d4575190602061093c565b3d91506109a0565b6109da91503d805f833e6104ba8183611156565b82610886565b346102d45760203660031901126102d45760043560245f60018060a01b03815416604051928380926328c44a9960e21b82528660048301525afa80156102e057610120915f91610c7e575b500151908151820160208101926020818303126102d4576020810151906001600160401b0382116102d457019061014090829003126102d45760405192610a7184611104565b610a7d6020830161118b565b845260408201516001600160401b0381116102d457816020610aa1928501016111ac565b90602085019182526060830151604086015260808301516001600160401b0381116102d457816020610ad592860101611441565b606086015260a08301516001600160401b0381116102d457816020610afc928601016114a6565b608086015260c08301516001600160401b0381116102d457816020610b2392860101611441565b60a086015260e08301516001600160401b0381116102d457816020610b4a928601016114a6565b60c08601526101008301516001600160401b0381116102d457816020610b7292860101611441565b60e08601526101208301516001600160401b0381116102d457816020610b9a928601016114a6565b610100860152610140830151916001600160401b0383116102d4575f95610120610bd0610365946020610be297819901016114a6565b910152518380825183010191016112dc565b03925af19182156102e0575f92610c49575b50600754604051632c713cd960e01b8152600481019290925260248201839052602090829060449082905f906001600160a01b03165af19081156102e0575f9161043757501561042857602090604051908152f35b9091506020813d602011610c76575b81610c6560209383611156565b810103126102d45751906020610bf4565b3d9150610c58565b610c9291503d805f833e6104ba8183611156565b83610a2b565b346102d45760203660031901126102d45760043560245f60018060a01b03815416604051928380926328c44a9960e21b82528660048301525afa9081156102e0575f91610da6575b5080511561081157906020610d0a610365826103556101205f9701518280825183010191016113aa565b03925af19182156102e0575f92610d71575b50600154604051632c713cd960e01b8152600481019290925260248201839052602090829060449082905f906001600160a01b03165af19081156102e0575f9161043757501561042857602090604051908152f35b9091506020813d602011610d9e575b81610d8d60209383611156565b810103126102d45751906020610d1c565b3d9150610d80565b610dba91503d805f833e6104ba8183611156565b82610ce0565b346102d45760c03660031901126102d457610dd9611057565b6044356001600160a01b038116908190036102d45760a4356001600160401b03811681036102d4576003546006546040516105a3956020956001600160a01b0394851694909316929091610e2c816110e9565b8181528681019060643582526060604082019160843583520191338352604051938985015251604084015251606083015260018060a01b0390511660808201526080815261064260a082611156565b346102d45760203660031901126102d457600435905f8160248160018060a01b038454166328c44a9960e21b82528660048301525afa9081156102e0575f9161103d575b508051156108115761012001519081518201916020818403126102d4576020810151906001600160401b0382116102d457019160a0838203126102d4576040519060a082018281106001600160401b0382111761102957604052610f256020850161118b565b825260408401516001600160401b0381116102d4575f94602093608060a0610f5a610365958880610f8d9901918701016111ac565b938488850152610f6c6060820161118b565b604085015282810151606085015201519101528380825183010191016112dc565b03925af19182156102e0575f92610ff4575b50600554604051632c713cd960e01b8152600481019290925260248201839052602090829060449082905f906001600160a01b03165af19081156102e0575f9161043757501561042857602090604051908152f35b9091506020813d602011611021575b8161101060209383611156565b810103126102d45751906020610f9f565b3d9150611003565b634e487b7160e01b5f52604160045260245ffd5b61105191503d805f833e6104ba8183611156565b82610ebf565b600435906001600160a01b03821682036102d457565b35906001600160a01b03821682036102d457565b606435906001600160401b03821682036102d457565b60a09060031901126102d4576004356001600160a01b03811681036102d45790602435906044356001600160a01b03811681036102d45790606435906084356001600160401b03811681036102d45790565b608081019081106001600160401b0382111761102957604052565b61014081019081106001600160401b0382111761102957604052565b606081019081106001600160401b0382111761102957604052565b604081019081106001600160401b0382111761102957604052565b90601f801991011681019081106001600160401b0382111761102957604052565b51906001600160401b03821682036102d457565b51906001600160a01b03821682036102d457565b519081151582036102d457565b81601f820112156102d4578051906001600160401b03821161102957604051926111e0601f8401601f191660200185611156565b828452602083830101116102d457815f9260208093018386015e8301015290565b6020818303126102d4578051906001600160401b0382116102d45701610140818303126102d4576040519161123583611104565b815183526020820151602084015261124f60408301611177565b604084015261126060608301611177565b606084015261127160808301611177565b608084015260a082015160a084015261128c60c0830161118b565b60c084015261129d60e0830161118b565b60e08401526112af610100830161119f565b6101008401526101208201516001600160401b0381116102d4576112d392016111ac565b61012082015290565b908160609103126102d45761131360408051926112f884611120565b6113018161118b565b8452602081015160208501520161118b565b604082015290565b926001600160401b036101206020606080969998956080895260018060a01b0381511660808a015282810151608060a08b01528051938491826101008d015201858b015e5f84848b01015260018060a01b0360408201511660c08a0152015160e0880152601f80199101168601019616602085015260018060a01b0316604084015260018060a01b0316910152565b6020818303126102d4578051906001600160401b0382116102d45701906080828203126102d457604051916113de836110e9565b6113e78161118b565b835260208101516001600160401b0381116102d45760609261140a9183016111ac565b602084015261141b6040820161118b565b60408401520151606082015290565b6001600160401b0381116110295760051b60200190565b9080601f830112156102d45781516114588161142a565b926114666040519485611156565b81845260208085019260051b8201019283116102d457602001905b82821061148e5750505090565b6020809161149b8461118b565b815201910190611481565b9080601f830112156102d45781516114bd8161142a565b926114cb6040519485611156565b81845260208085019260051b8201019283116102d457602001905b8282106114f35750505090565b81518152602091820191016114e6565b9035601e19823603018112156102d45701602081359101916001600160401b0382116102d4578160051b360383136102d457565b916020908281520191905f5b8181106115505750505090565b909192602080600192838060a01b036115688861106d565b168152019401929101611543565b81835290916001600160fb1b0383116102d45760209260051b80928483013701019056fea2646970667358221220ad3f25f3c370aee128535af9e7eafcb1ab313031e93376fa962e151d068993d464736f6c634300081b0033","linkReferences":{}},"methodIdentifiers":{"buyBundleWithErc721(address,uint256,(uint256,address[],uint256[],address[],uint256[],address[],uint256[],uint256[],address),uint64)":"fc6febeb","buyErc1155WithErc721(address,uint256,address,uint256,uint256,uint64)":"5f19ead1","buyErc20WithErc721(address,uint256,address,uint256,uint64)":"e32aa463","buyErc721ForErc721(address,uint256,address,uint256,uint64)":"ebb48d90","buyEthWithErc721(address,uint256,uint256,uint64)":"e52f91ab","payErc721ForBundle(bytes32)":"793d455d","payErc721ForErc1155(bytes32)":"41b81d58","payErc721ForErc20(bytes32)":"6590e21b","payErc721ForErc721(bytes32)":"eff69b5e","payErc721ForEth(bytes32)":"95aefd7c","payEthForErc721(bytes32)":"add4fc3d"},"id":137}