{"abi":[{"type":"function","name":"checkObligation","inputs":[{"name":"obligation","type":"tuple","internalType":"struct Attestation","components":[{"name":"uid","type":"bytes32","internalType":"bytes32"},{"name":"schema","type":"bytes32","internalType":"bytes32"},{"name":"time","type":"uint64","internalType":"uint64"},{"name":"expirationTime","type":"uint64","internalType":"uint64"},{"name":"revocationTime","type":"uint64","internalType":"uint64"},{"name":"refUID","type":"bytes32","internalType":"bytes32"},{"name":"recipient","type":"address","internalType":"address"},{"name":"attester","type":"address","internalType":"address"},{"name":"revocable","type":"bool","internalType":"bool"},{"name":"data","type":"bytes","internalType":"bytes"}]},{"name":"demand","type":"bytes","internalType":"bytes"},{"name":"","type":"bytes32","internalType":"bytes32"}],"outputs":[{"name":"","type":"bool","internalType":"bool"}],"stateMutability":"view"},{"type":"function","name":"decodeDemandData","inputs":[{"name":"data","type":"bytes","internalType":"bytes"}],"outputs":[{"name":"","type":"tuple","internalType":"struct IntrinsicsArbiter2.DemandData","components":[{"name":"schema","type":"bytes32","internalType":"bytes32"}]}],"stateMutability":"pure"},{"type":"error","name":"AttestationRevoked","inputs":[]},{"type":"error","name":"DeadlineExpired","inputs":[]},{"type":"error","name":"InvalidSchema","inputs":[]}],"bytecode":{"object":"0x60808060405234601557610362908161001a8239f35b5f80fdfe60806040526004361015610011575f80fd5b5f3560e01c8063838a68d9146101fd5763e6c9714d1461002f575f80fd5b346101e55760603660031901126101e55760043567ffffffffffffffff81116101e55761014060031982360301126101e557604051610140810181811067ffffffffffffffff8211176101e95760405281600401358152602081016024830135815261009d6044840161029b565b60408301526100ae6064840161029b565b91606081019283526100c26084850161029b565b936080820194855260a481013560a08301526100e060c482016102b0565b60c08301526100f160e482016102b0565b60e083015261010481013580151581036101e55761010083015261012481013567ffffffffffffffff81116101e55761012091600461013392369201016102c4565b91015260243567ffffffffffffffff81116101e5576101569036906004016102c4565b906020828051810103126101e557602061016e61027b565b92015180925251036101d6575167ffffffffffffffff1680151590816101cc575b506101bd575167ffffffffffffffff166101ae57602060405160018152f35b637b6227e960e11b5f5260045ffd5b631ab7da6b60e01b5f5260045ffd5b905042115f61018f565b635f9bd90760e11b5f5260045ffd5b5f80fd5b634e487b7160e01b5f52604160045260245ffd5b346101e55760203660031901126101e55760043567ffffffffffffffff81116101e557366023820112156101e557806004013567ffffffffffffffff81116101e55781013660248201116101e5576020905f61025761027b565b52829003126101e557602090602461026d61027b565b910135809152604051908152f35b604051906020820182811067ffffffffffffffff8211176101e957604052565b359067ffffffffffffffff821682036101e557565b35906001600160a01b03821682036101e557565b81601f820112156101e55780359067ffffffffffffffff82116101e95760405192601f8301601f19908116603f0116840167ffffffffffffffff8111858210176101e957604052828452602083830101116101e557815f92602080930183860137830101529056fea2646970667358221220314d315b6bd8e22f0a10ec07b85d907f24ea69cff36537a069ac85d73fe8377764736f6c634300081b0033","linkReferences":{}},"methodIdentifiers":{"checkObligation((bytes32,bytes32,uint64,uint64,uint64,bytes32,address,address,bool,bytes),bytes,bytes32)":"e6c9714d","decodeDemandData(bytes)":"838a68d9"},"id":66}